{
  "address": "0x30ef5958a5ed9099b01B9474923B31aA14d644a7",
  "abi": [
    {
      "inputs": [
        {
          "internalType": "address",
          "name": "_WETH",
          "type": "address"
        }
      ],
      "stateMutability": "nonpayable",
      "type": "constructor"
    },
    {
      "anonymous": false,
      "inputs": [
        {
          "indexed": true,
          "internalType": "address",
          "name": "token",
          "type": "address"
        }
      ],
      "name": "BaseTokenAdded",
      "type": "event"
    },
    {
      "anonymous": false,
      "inputs": [
        {
          "indexed": true,
          "internalType": "address",
          "name": "token",
          "type": "address"
        }
      ],
      "name": "BaseTokenRemoved",
      "type": "event"
    },
    {
      "anonymous": false,
      "inputs": [
        {
          "indexed": true,
          "internalType": "address",
          "name": "previousOwner",
          "type": "address"
        },
        {
          "indexed": true,
          "internalType": "address",
          "name": "newOwner",
          "type": "address"
        }
      ],
      "name": "OwnershipTransferred",
      "type": "event"
    },
    {
      "anonymous": false,
      "inputs": [
        {
          "indexed": true,
          "internalType": "address",
          "name": "to",
          "type": "address"
        },
        {
          "indexed": true,
          "internalType": "uint256",
          "name": "value",
          "type": "uint256"
        }
      ],
      "name": "Withdrawn",
      "type": "event"
    },
    {
      "stateMutability": "nonpayable",
      "type": "fallback"
    },
    {
      "inputs": [
        {
          "internalType": "address",
          "name": "token",
          "type": "address"
        }
      ],
      "name": "addBaseToken",
      "outputs": [],
      "stateMutability": "nonpayable",
      "type": "function"
    },
    {
      "inputs": [
        {
          "internalType": "address",
          "name": "token",
          "type": "address"
        }
      ],
      "name": "baseTokensContains",
      "outputs": [
        {
          "internalType": "bool",
          "name": "",
          "type": "bool"
        }
      ],
      "stateMutability": "view",
      "type": "function"
    },
    {
      "inputs": [
        {
          "internalType": "address",
          "name": "pool0",
          "type": "address"
        },
        {
          "internalType": "address",
          "name": "pool1",
          "type": "address"
        }
      ],
      "name": "flashArbitrage",
      "outputs": [],
      "stateMutability": "nonpayable",
      "type": "function"
    },
    {
      "inputs": [],
      "name": "getBaseTokens",
      "outputs": [
        {
          "internalType": "address[]",
          "name": "tokens",
          "type": "address[]"
        }
      ],
      "stateMutability": "view",
      "type": "function"
    },
    {
      "inputs": [
        {
          "internalType": "address",
          "name": "pool0",
          "type": "address"
        },
        {
          "internalType": "address",
          "name": "pool1",
          "type": "address"
        }
      ],
      "name": "getProfit",
      "outputs": [
        {
          "internalType": "uint256",
          "name": "profit",
          "type": "uint256"
        },
        {
          "internalType": "address",
          "name": "baseToken",
          "type": "address"
        }
      ],
      "stateMutability": "view",
      "type": "function"
    },
    {
      "inputs": [],
      "name": "owner",
      "outputs": [
        {
          "internalType": "address",
          "name": "",
          "type": "address"
        }
      ],
      "stateMutability": "view",
      "type": "function"
    },
    {
      "inputs": [
        {
          "internalType": "address",
          "name": "token",
          "type": "address"
        }
      ],
      "name": "removeBaseToken",
      "outputs": [],
      "stateMutability": "nonpayable",
      "type": "function"
    },
    {
      "inputs": [],
      "name": "renounceOwnership",
      "outputs": [],
      "stateMutability": "nonpayable",
      "type": "function"
    },
    {
      "inputs": [
        {
          "internalType": "address",
          "name": "newOwner",
          "type": "address"
        }
      ],
      "name": "transferOwnership",
      "outputs": [],
      "stateMutability": "nonpayable",
      "type": "function"
    },
    {
      "inputs": [
        {
          "internalType": "address",
          "name": "sender",
          "type": "address"
        },
        {
          "internalType": "uint256",
          "name": "amount0",
          "type": "uint256"
        },
        {
          "internalType": "uint256",
          "name": "amount1",
          "type": "uint256"
        },
        {
          "internalType": "bytes",
          "name": "data",
          "type": "bytes"
        }
      ],
      "name": "uniswapV2Call",
      "outputs": [],
      "stateMutability": "nonpayable",
      "type": "function"
    },
    {
      "inputs": [
        {
          "internalType": "address",
          "name": "token",
          "type": "address"
        },
        {
          "internalType": "uint256",
          "name": "amount",
          "type": "uint256"
        }
      ],
      "name": "withdraw",
      "outputs": [],
      "stateMutability": "nonpayable",
      "type": "function"
    },
    {
      "inputs": [],
      "name": "withdrawAll",
      "outputs": [],
      "stateMutability": "nonpayable",
      "type": "function"
    },
    {
      "stateMutability": "payable",
      "type": "receive"
    }
  ],
  "transactionHash": "0x908c84c02d2109a2c324ab8595541f10a6ed4c5fb4e341c01bef02b3d074fe4f",
  "args": [
    "0x0d500B1d8E8eF31E21C99d1Db9A6444d3ADf1270"
  ],
  "solcInputHash": "7193fbd982eb0edcabed1d2656517fb2",
  "bytecode": "0x60a060405260018060006101000a81548173ffffffffffffffffffffffffffffffffffffffff021916908373ffffffffffffffffffffffffffffffffffffffff1602179055503480156200005257600080fd5b50604051620057b5380380620057b5833981810160405281019062000078919062000276565b60006200008a6200018260201b60201c565b9050806000806101000a81548173ffffffffffffffffffffffffffffffffffffffff021916908373ffffffffffffffffffffffffffffffffffffffff1602179055508073ffffffffffffffffffffffffffffffffffffffff16600073ffffffffffffffffffffffffffffffffffffffff167f8be0079c531659141344cd1fd0a4f28419497f9722a3daafe3b4186f6b6457e060405160405180910390a3508073ffffffffffffffffffffffffffffffffffffffff1660808173ffffffffffffffffffffffffffffffffffffffff1660601b815250506200017a8160026200018a60201b620024761790919060201c565b5050620002f0565b600033905090565b6000620001ba836000018373ffffffffffffffffffffffffffffffffffffffff1660001b620001c260201b60201c565b905092915050565b6000620001d683836200023c60201b60201c565b6200023157826000018290806001815401808255809150506001900390600052602060002001600090919091909150558260000180549050836001016000848152602001908152602001600020819055506001905062000236565b600090505b92915050565b600080836001016000848152602001908152602001600020541415905092915050565b6000815190506200027081620002d6565b92915050565b6000602082840312156200028957600080fd5b600062000299848285016200025f565b91505092915050565b6000620002af82620002b6565b9050919050565b600073ffffffffffffffffffffffffffffffffffffffff82169050919050565b620002e181620002a2565b8114620002ed57600080fd5b50565b60805160601c6154ac62000309600039506154ac6000f3fe6080604052600436106100ab5760003560e01c80638da5cb5b116100645780638da5cb5b1461022c578063baee64f114610257578063bbd1e12214610280578063bed64c2f146102a9578063f2fde38b146102d4578063f3fef3a3146102fd576100b2565b806310d1e85c1461013157806321d094261461015a578063715018a614610197578063759eee10146101ae57806383e280d9146101ec578063853828b614610215576100b2565b366100b257005b3480156100be57600080fd5b506000366060600080600080868660049080926100dd939291906150fe565b8101906100ea9190614509565b93509350935093506101166040518060600160405280603081526020016153fc60309139858585610326565b61012284848484610455565b50505050915050805190602001f35b34801561013d57600080fd5b50610158600480360381019061015391906145fc565b610455565b005b34801561016657600080fd5b50610181600480360381019061017c91906144b7565b6106d6565b60405161018e9190614dcc565b60405180910390f35b3480156101a357600080fd5b506101ac6106f3565b005b3480156101ba57600080fd5b506101d560048036038101906101d09190614584565b610860565b6040516101e3929190614fc2565b60405180910390f35b3480156101f857600080fd5b50610213600480360381019061020e91906144b7565b610a10565b005b34801561022157600080fd5b5061022a610b1a565b005b34801561023857600080fd5b50610241610dd9565b60405161024e9190614d4b565b60405180910390f35b34801561026357600080fd5b5061027e60048036038101906102799190614584565b610e02565b005b34801561028c57600080fd5b506102a760048036038101906102a291906144b7565b611d05565b005b3480156102b557600080fd5b506102be611f3c565b6040516102cb9190614daa565b60405180910390f35b3480156102e057600080fd5b506102fb60048036038101906102f691906144b7565b61200c565b005b34801561030957600080fd5b50610324600480360381019061031f91906145c0565b6121fe565b005b61044f8484848460405160240180806020018573ffffffffffffffffffffffffffffffffffffffff168152602001848152602001838152602001828103825286818151815260200191508051906020019080838360005b8381101561039857808201518184015260208101905061037d565b50505050905090810190601f1680156103c55780820380516001836020036101000a031916815260200191505b50955050505050506040516020818303038152906040527fdaa394bd000000000000000000000000000000000000000000000000000000007bffffffffffffffffffffffffffffffffffffffffffffffffffffffff19166020820180517bffffffffffffffffffffffffffffffffffffffffffffffffffffffff83818316178352505050506124a6565b50505050565b600160009054906101000a900473ffffffffffffffffffffffffffffffffffffffff1673ffffffffffffffffffffffffffffffffffffffff163373ffffffffffffffffffffffffffffffffffffffff16146104e5576040517f08c379a00000000000000000000000000000000000000000000000000000000081526004016104dc90614ec7565b60405180910390fd5b3073ffffffffffffffffffffffffffffffffffffffff168473ffffffffffffffffffffffffffffffffffffffff1614610553576040517f08c379a000000000000000000000000000000000000000000000000000000000815260040161054a90614de7565b60405180910390fd5b60008084116105625782610564565b835b905060008280602001905181019061057c91906146a0565b90506105b1816020015183836060015173ffffffffffffffffffffffffffffffffffffffff166124cf9092919063ffffffff16565b60008082604001516105c95760008360c001516105d1565b8260c0015160005b91509150826020015173ffffffffffffffffffffffffffffffffffffffff1663022c0d9f838330600067ffffffffffffffff8111801561061057600080fd5b506040519080825280601f01601f1916602001820160405280156106435781602001600182028036833780820191505090505b506040518563ffffffff1660e01b81526004016106639493929190614feb565b600060405180830381600087803b15801561067d57600080fd5b505af1158015610691573d6000803e3d6000fd5b505050506106cc83600001518460a00151856080015173ffffffffffffffffffffffffffffffffffffffff166124cf9092919063ffffffff16565b5050505050505050565b60006106ec82600261257190919063ffffffff16565b9050919050565b6106fb6125a1565b73ffffffffffffffffffffffffffffffffffffffff16610719610dd9565b73ffffffffffffffffffffffffffffffffffffffff16146107a2576040517f08c379a00000000000000000000000000000000000000000000000000000000081526004018080602001828103825260208152602001807f4f776e61626c653a2063616c6c6572206973206e6f7420746865206f776e657281525060200191505060405180910390fd5b600073ffffffffffffffffffffffffffffffffffffffff1660008054906101000a900473ffffffffffffffffffffffffffffffffffffffff1673ffffffffffffffffffffffffffffffffffffffff167f8be0079c531659141344cd1fd0a4f28419497f9722a3daafe3b4186f6b6457e060405160405180910390a360008060006101000a81548173ffffffffffffffffffffffffffffffffffffffff021916908373ffffffffffffffffffffffffffffffffffffffff160217905550565b600080600061086f85856125a9565b50509050806108fb578473ffffffffffffffffffffffffffffffffffffffff1663d21220a76040518163ffffffff1660e01b815260040160206040518083038186803b1580156108be57600080fd5b505afa1580156108d2573d6000803e3d6000fd5b505050506040513d601f19601f820116820180604052508101906108f691906144e0565b61097a565b8473ffffffffffffffffffffffffffffffffffffffff16630dfe16816040518163ffffffff1660e01b815260040160206040518083038186803b15801561094157600080fd5b505afa158015610955573d6000803e3d6000fd5b505050506040513d601f19601f8201168201806040525081019061097991906144e0565b5b9150600080600061098c8888866129f7565b925092509250600061099d82612cf9565b905060006109aa85612fda565b905060006109c28385600001518660200151856130bc565b905060006109cf86612fda565b905060006109e78587606001518860400151856131d0565b9050828110156109fa5760009a50610a00565b8281039a505b5050505050505050509250929050565b610a186125a1565b73ffffffffffffffffffffffffffffffffffffffff16610a36610dd9565b73ffffffffffffffffffffffffffffffffffffffff1614610abf576040517f08c379a00000000000000000000000000000000000000000000000000000000081526004018080602001828103825260208152602001807f4f776e61626c653a2063616c6c6572206973206e6f7420746865206f776e657281525060200191505060405180910390fd5b610ad381600261247690919063ffffffff16565b508073ffffffffffffffffffffffffffffffffffffffff167ffa1388d6e7328e9c711a539b0addfc27de8bfb6f5924cce26f80f41023b1525360405160405180910390a250565b610b226125a1565b73ffffffffffffffffffffffffffffffffffffffff16610b40610dd9565b73ffffffffffffffffffffffffffffffffffffffff1614610bc9576040517f08c379a00000000000000000000000000000000000000000000000000000000081526004018080602001828103825260208152602001807f4f776e61626c653a2063616c6c6572206973206e6f7420746865206f776e657281525060200191505060405180910390fd5b60004790506000811115610c7157610bdf610dd9565b73ffffffffffffffffffffffffffffffffffffffff166108fc829081150290604051600060405180830381858888f19350505050158015610c24573d6000803e3d6000fd5b5080610c2e610dd9565b73ffffffffffffffffffffffffffffffffffffffff167f7084f5476618d8e60b11ef0d7d3f06914655adb8793e28ff7f018d4c76d505d560405160405180910390a35b60005b610c7e60026132d7565b811015610dd5576000610c9b8260026132ec90919063ffffffff16565b90508073ffffffffffffffffffffffffffffffffffffffff166370a08231306040518263ffffffff1660e01b8152600401610cd69190614d66565b60206040518083038186803b158015610cee57600080fd5b505afa158015610d02573d6000803e3d6000fd5b505050506040513d601f19601f82011682018060405250810190610d269190614718565b92506000831115610dc7578073ffffffffffffffffffffffffffffffffffffffff1663a9059cbb610d55610dd9565b856040518363ffffffff1660e01b8152600401610d73929190614d81565b602060405180830381600087803b158015610d8d57600080fd5b505af1158015610da1573d6000803e3d6000fd5b505050506040513d601f19601f82011682018060405250810190610dc59190614677565b505b508080600101915050610c74565b5050565b60008060009054906101000a900473ffffffffffffffffffffffffffffffffffffffff16905090565b610e0a61419c565b610e1483836125a9565b8360400184600001856020018373ffffffffffffffffffffffffffffffffffffffff1673ffffffffffffffffffffffffffffffffffffffff168152508373ffffffffffffffffffffffffffffffffffffffff1673ffffffffffffffffffffffffffffffffffffffff168152508315151515815250505050610e93614225565b610ea2848484604001516129f7565b84606001856080018295508373ffffffffffffffffffffffffffffffffffffffff1673ffffffffffffffffffffffffffffffffffffffff168152508373ffffffffffffffffffffffffffffffffffffffff1673ffffffffffffffffffffffffffffffffffffffff168152505050508160600151600160006101000a81548173ffffffffffffffffffffffffffffffffffffffff021916908373ffffffffffffffffffffffffffffffffffffffff1602179055506000826000015173ffffffffffffffffffffffffffffffffffffffff166370a08231306040518263ffffffff1660e01b8152600401610f949190614d66565b60206040518083038186803b158015610fac57600080fd5b505afa158015610fc0573d6000803e3d6000fd5b505050506040513d601f19601f82011682018060405250810190610fe49190614718565b90506000610ff183612cf9565b90506110326040518060400160405280600c81526020017f626f72726f77416d6f756e74000000000000000000000000000000000000000081525082613306565b73684d8c187be836171a1af8d533e472489303182873ffffffffffffffffffffffffffffffffffffffff16846060015173ffffffffffffffffffffffffffffffffffffffff1663c45a01556040518163ffffffff1660e01b815260040160206040518083038186803b1580156110a757600080fd5b505afa1580156110bb573d6000803e3d6000fd5b505050506040513d601f19601f820116820180604052508101906110df91906144e0565b73ffffffffffffffffffffffffffffffffffffffff161415611788576111396040518060400160405280601281526020017f546574752073776170206265686176696f72000000000000000000000000000081525061340d565b600080856040015161114d57826000611151565b6000835b9150915060006111648760600151612fda565b90506111a56040518060400160405280600481526020017f666565310000000000000000000000000000000000000000000000000000000081525082613306565b60006111bb8588600001518960200151856130bc565b90506111fc6040518060400160405280600a81526020017f64656274416d6f756e740000000000000000000000000000000000000000000081525082613306565b600061120b8960800151612fda565b905061124c6040518060400160405280600481526020017f666565320000000000000000000000000000000000000000000000000000000081525082613306565b6000611262878a606001518b60400151856131d0565b90508281116112a6576040517f08c379a000000000000000000000000000000000000000000000000000000000815260040161129d90614f87565b60405180910390fd5b6112f86040518060400160405280600781526020017f50726f6669743a00000000000000000000000000000000000000000000000000815250670de0b6b3a7640000858403816112f257fe5b04613306565b61130061424d565b8a60600151816000019073ffffffffffffffffffffffffffffffffffffffff16908173ffffffffffffffffffffffffffffffffffffffff16815250508a60800151816020019073ffffffffffffffffffffffffffffffffffffffff16908173ffffffffffffffffffffffffffffffffffffffff16815250508a604001518160400190151590811515815250508a60200151816060019073ffffffffffffffffffffffffffffffffffffffff16908173ffffffffffffffffffffffffffffffffffffffff16815250508a60000151816080019073ffffffffffffffffffffffffffffffffffffffff16908173ffffffffffffffffffffffffffffffffffffffff1681525050838160a0018181525050818160c001818152505060606000826080015173ffffffffffffffffffffffffffffffffffffffff166370a08231306040518263ffffffff1660e01b81526004016114599190614d66565b60206040518083038186803b15801561147157600080fd5b505afa158015611485573d6000803e3d6000fd5b505050506040513d601f19601f820116820180604052508101906114a99190614718565b90506114ea6040518060400160405280601081526020017f62617365546f6b656e42616c616e63650000000000000000000000000000000081525082613306565b60006127109050818460a00151111561156a576115288460a0015161151a6127108561350b90919063ffffffff16565b61359190919063ffffffff16565b90506115696040518060400160405280600981526020017f6e657720726174696f000000000000000000000000000000000000000000000081525082613306565b5b6115aa84600001516115808660a001518461361a565b866080015173ffffffffffffffffffffffffffffffffffffffff166124cf9092919063ffffffff16565b8d6060015173ffffffffffffffffffffffffffffffffffffffff1663022c0d9f6115d48c8461361a565b6115de8c8561361a565b30876040518563ffffffff1660e01b81526004016115ff9493929190614feb565b600060405180830381600087803b15801561161957600080fd5b505af115801561162d573d6000803e3d6000fd5b505050506000808b116116405789611642565b8a5b90506116808560200151611656838561361a565b876060015173ffffffffffffffffffffffffffffffffffffffff166124cf9092919063ffffffff16565b60008086604001516116985760008760c001516116a0565b8660c0015160005b91509150866020015173ffffffffffffffffffffffffffffffffffffffff1663022c0d9f6116ce848761361a565b6116d8848861361a565b30600067ffffffffffffffff811180156116f157600080fd5b506040519080825280601f01601f1916602001820160405280156117245781602001600182028036833780820191505090505b506040518563ffffffff1660e01b81526004016117449493929190614feb565b600060405180830381600087803b15801561175e57600080fd5b505af1158015611772573d6000803e3d6000fd5b5050505050505050505050505050505050611b47565b6117c66040518060400160405280601b81526020017f44656661756c7420666c6173682073776170206265686176696f72000000000081525061340d565b60008085604001516117da578260006117de565b6000835b9150915060006117f18760600151612fda565b90506118326040518060400160405280600481526020017f666565310000000000000000000000000000000000000000000000000000000081525082613306565b60006118488588600001518960200151856130bc565b90506118896040518060400160405280600a81526020017f64656274416d6f756e740000000000000000000000000000000000000000000081525082613306565b60006118988960800151612fda565b90506118d96040518060400160405280600481526020017f666565320000000000000000000000000000000000000000000000000000000081525082613306565b60006118ef878a606001518b60400151856131d0565b9050828111611933576040517f08c379a000000000000000000000000000000000000000000000000000000000815260040161192a90614e07565b60405180910390fd5b6119856040518060400160405280600781526020017f50726f6669743a00000000000000000000000000000000000000000000000000815250670de0b6b3a76400008584038161197f57fe5b04613306565b61198d61424d565b8a60600151816000019073ffffffffffffffffffffffffffffffffffffffff16908173ffffffffffffffffffffffffffffffffffffffff16815250508a60800151816020019073ffffffffffffffffffffffffffffffffffffffff16908173ffffffffffffffffffffffffffffffffffffffff16815250508a604001518160400190151590811515815250508a60200151816060019073ffffffffffffffffffffffffffffffffffffffff16908173ffffffffffffffffffffffffffffffffffffffff16815250508a60000151816080019073ffffffffffffffffffffffffffffffffffffffff16908173ffffffffffffffffffffffffffffffffffffffff1681525050838160a0018181525050818160c0018181525050600081604051602001611ab89190614fa7565b60405160208183030381529060405290508b6060015173ffffffffffffffffffffffffffffffffffffffff1663022c0d9f898930856040518563ffffffff1660e01b8152600401611b0c9493929190614feb565b600060405180830381600087803b158015611b2657600080fd5b505af1158015611b3a573d6000803e3d6000fd5b5050505050505050505050505b506000836000015173ffffffffffffffffffffffffffffffffffffffff166370a08231306040518263ffffffff1660e01b8152600401611b879190614d66565b60206040518083038186803b158015611b9f57600080fd5b505afa158015611bb3573d6000803e3d6000fd5b505050506040513d601f19601f82011682018060405250810190611bd79190614718565b9050818111611c1b576040517f08c379a0000000000000000000000000000000000000000000000000000000008152600401611c1290614ee7565b60405180910390fd5b60008282039050846000015173ffffffffffffffffffffffffffffffffffffffff1663a9059cbb611c4a610dd9565b836040518363ffffffff1660e01b8152600401611c68929190614d81565b602060405180830381600087803b158015611c8257600080fd5b505af1158015611c96573d6000803e3d6000fd5b505050506040513d601f19601f82011682018060405250810190611cba9190614677565b5060018060006101000a81548173ffffffffffffffffffffffffffffffffffffffff021916908373ffffffffffffffffffffffffffffffffffffffff16021790555050505050505050565b611d0d6125a1565b73ffffffffffffffffffffffffffffffffffffffff16611d2b610dd9565b73ffffffffffffffffffffffffffffffffffffffff1614611db4576040517f08c379a00000000000000000000000000000000000000000000000000000000081526004018080602001828103825260208152602001807f4f776e61626c653a2063616c6c6572206973206e6f7420746865206f776e657281525060200191505060405180910390fd5b60008173ffffffffffffffffffffffffffffffffffffffff166370a08231306040518263ffffffff1660e01b8152600401611def9190614d66565b60206040518083038186803b158015611e0757600080fd5b505afa158015611e1b573d6000803e3d6000fd5b505050506040513d601f19601f82011682018060405250810190611e3f9190614718565b90506000811115611ee0578173ffffffffffffffffffffffffffffffffffffffff1663a9059cbb611e6e610dd9565b836040518363ffffffff1660e01b8152600401611e8c929190614d81565b602060405180830381600087803b158015611ea657600080fd5b505af1158015611eba573d6000803e3d6000fd5b505050506040513d601f19601f82011682018060405250810190611ede9190614677565b505b611ef482600261364b90919063ffffffff16565b508173ffffffffffffffffffffffffffffffffffffffff167fdc23a849435922f20a9732eb85192a9d0c1cb34725ebe6d7de0be10212ba02fb60405160405180910390a25050565b60606000611f4a60026132d7565b90508067ffffffffffffffff81118015611f6357600080fd5b50604051908082528060200260200182016040528015611f925781602001602082028036833780820191505090505b50915060005b8181101561200757611fb48160026132ec90919063ffffffff16565b838281518110611fc057fe5b602002602001019073ffffffffffffffffffffffffffffffffffffffff16908173ffffffffffffffffffffffffffffffffffffffff16815250508080600101915050611f98565b505090565b6120146125a1565b73ffffffffffffffffffffffffffffffffffffffff16612032610dd9565b73ffffffffffffffffffffffffffffffffffffffff16146120bb576040517f08c379a00000000000000000000000000000000000000000000000000000000081526004018080602001828103825260208152602001807f4f776e61626c653a2063616c6c6572206973206e6f7420746865206f776e657281525060200191505060405180910390fd5b600073ffffffffffffffffffffffffffffffffffffffff168173ffffffffffffffffffffffffffffffffffffffff161415612141576040517f08c379a00000000000000000000000000000000000000000000000000000000081526004018080602001828103825260268152602001806153b06026913960400191505060405180910390fd5b8073ffffffffffffffffffffffffffffffffffffffff1660008054906101000a900473ffffffffffffffffffffffffffffffffffffffff1673ffffffffffffffffffffffffffffffffffffffff167f8be0079c531659141344cd1fd0a4f28419497f9722a3daafe3b4186f6b6457e060405160405180910390a3806000806101000a81548173ffffffffffffffffffffffffffffffffffffffff021916908373ffffffffffffffffffffffffffffffffffffffff16021790555050565b6122066125a1565b73ffffffffffffffffffffffffffffffffffffffff16612224610dd9565b73ffffffffffffffffffffffffffffffffffffffff16146122ad576040517f08c379a00000000000000000000000000000000000000000000000000000000081526004018080602001828103825260208152602001807f4f776e61626c653a2063616c6c6572206973206e6f7420746865206f776e657281525060200191505060405180910390fd5b60008273ffffffffffffffffffffffffffffffffffffffff166370a08231306040518263ffffffff1660e01b81526004016122e89190614d66565b60206040518083038186803b15801561230057600080fd5b505afa158015612314573d6000803e3d6000fd5b505050506040513d601f19601f820116820180604052508101906123389190614718565b90508181106123db578273ffffffffffffffffffffffffffffffffffffffff1663a9059cbb612365610dd9565b846040518363ffffffff1660e01b8152600401612383929190614d81565b602060405180830381600087803b15801561239d57600080fd5b505af11580156123b1573d6000803e3d6000fd5b505050506040513d601f19601f820116820180604052508101906123d59190614677565b50612471565b8273ffffffffffffffffffffffffffffffffffffffff1663a9059cbb6123ff610dd9565b836040518363ffffffff1660e01b815260040161241d929190614d81565b602060405180830381600087803b15801561243757600080fd5b505af115801561244b573d6000803e3d6000fd5b505050506040513d601f19601f8201168201806040525081019061246f9190614677565b505b505050565b600061249e836000018373ffffffffffffffffffffffffffffffffffffffff1660001b61367b565b905092915050565b60008151905060006a636f6e736f6c652e6c6f679050602083016000808483855afa5050505050565b61256c8363a9059cbb60e01b8484604051602401808373ffffffffffffffffffffffffffffffffffffffff16815260200182815260200192505050604051602081830303815290604052907bffffffffffffffffffffffffffffffffffffffffffffffffffffffff19166020820180517bffffffffffffffffffffffffffffffffffffffffffffffffffffffff83818316178352505050506136eb565b505050565b6000612599836000018373ffffffffffffffffffffffffffffffffffffffff1660001b6137da565b905092915050565b600033905090565b60008060008373ffffffffffffffffffffffffffffffffffffffff168573ffffffffffffffffffffffffffffffffffffffff16141561261d576040517f08c379a000000000000000000000000000000000000000000000000000000000815260040161261490614e27565b60405180910390fd5b6000808673ffffffffffffffffffffffffffffffffffffffff16630dfe16816040518163ffffffff1660e01b815260040160206040518083038186803b15801561266657600080fd5b505afa15801561267a573d6000803e3d6000fd5b505050506040513d601f19601f8201168201806040525081019061269e91906144e0565b8773ffffffffffffffffffffffffffffffffffffffff1663d21220a76040518163ffffffff1660e01b815260040160206040518083038186803b1580156126e457600080fd5b505afa1580156126f8573d6000803e3d6000fd5b505050506040513d601f19601f8201168201806040525081019061271c91906144e0565b915091506000808773ffffffffffffffffffffffffffffffffffffffff16630dfe16816040518163ffffffff1660e01b815260040160206040518083038186803b15801561276957600080fd5b505afa15801561277d573d6000803e3d6000fd5b505050506040513d601f19601f820116820180604052508101906127a191906144e0565b8873ffffffffffffffffffffffffffffffffffffffff1663d21220a76040518163ffffffff1660e01b815260040160206040518083038186803b1580156127e757600080fd5b505afa1580156127fb573d6000803e3d6000fd5b505050506040513d601f19601f8201168201806040525081019061281f91906144e0565b915091508273ffffffffffffffffffffffffffffffffffffffff168473ffffffffffffffffffffffffffffffffffffffff1610801561288957508073ffffffffffffffffffffffffffffffffffffffff168273ffffffffffffffffffffffffffffffffffffffff16105b6128c8576040517f08c379a00000000000000000000000000000000000000000000000000000000081526004016128bf90614e67565b60405180910390fd5b8173ffffffffffffffffffffffffffffffffffffffff168473ffffffffffffffffffffffffffffffffffffffff1614801561292e57508073ffffffffffffffffffffffffffffffffffffffff168373ffffffffffffffffffffffffffffffffffffffff16145b61296d576040517f08c379a000000000000000000000000000000000000000000000000000000000815260040161296490614f27565b60405180910390fd5b612976846106d6565b806129865750612985836106d6565b5b6129c5576040517f08c379a00000000000000000000000000000000000000000000000000000000081526004016129bc90614f07565b60405180910390fd5b6129ce846106d6565b6129db57600083856129e0565b600184845b809750819850829950505050505050509250925092565b600080612a02614225565b6000808773ffffffffffffffffffffffffffffffffffffffff16630902f1ac6040518163ffffffff1660e01b815260040160606040518083038186803b158015612a4b57600080fd5b505afa158015612a5f573d6000803e3d6000fd5b505050506040513d601f19601f82011682018060405250810190612a8391906146c9565b506dffffffffffffffffffffffffffff1691506dffffffffffffffffffffffffffff1691506000808873ffffffffffffffffffffffffffffffffffffffff16630902f1ac6040518163ffffffff1660e01b815260040160606040518083038186803b158015612af157600080fd5b505afa158015612b05573d6000803e3d6000fd5b505050506040513d601f19601f82011682018060405250810190612b2991906146c9565b506dffffffffffffffffffffffffffff1691506dffffffffffffffffffffffffffff16915060008089612b9157612b7186612b63876137fd565b61383590919063ffffffff16565b612b8c85612b7e866137fd565b61383590919063ffffffff16565b612bc8565b612bac85612b9e886137fd565b61383590919063ffffffff16565b612bc784612bb9876137fd565b61383590919063ffffffff16565b5b91509150612bdf818361386a90919063ffffffff16565b15612c2a578b8b809950819a50505089612bfc5784868486612c01565b858585855b8a6000018b6020018c6040018d6060018481525084815250848152508481525050505050612c6c565b8a8c809950819a50505089612c425782848688612c47565b838387875b8a6000018b6020018c6040018d60600184815250848152508481525084815250505050505b612cab6040518060400160405280601181526020017f426f72726f772066726f6d20706f6f6c3a0000000000000000000000000000008152508a613880565b612cea6040518060400160405280600d81526020017f53656c6c20746f20706f6f6c3a0000000000000000000000000000000000000081525089613880565b50505050505093509350939050565b6000808260200151836000015110612d15578260200151612d1b565b82600001515b905060008360600151846040015110612d38578360600151612d3e565b83604001515b90506000818310612d4f5781612d51565b825b9050600069d3c21bcecceda1000000821115612d785768056bc75e2d631000009050612ea2565b69152d02c7e14af6800000821115612d9a57678ac7230489e800009050612ea1565b69021e19e0c9bab2400000821115612dbc57670de0b6b3a76400009050612ea0565b683635c9adc5dea00000821115612ddd5767016345785d8a00009050612e9f565b68056bc75e2d63100000821115612dfd57662386f26fc100009050612e9e565b678ac7230489e80000821115612e1c5766038d7ea4c680009050612e9d565b670de0b6b3a7640000821115612e3a57655af3107a40009050612e9c565b67016345785d8a0000821115612e58576509184e72a0009050612e9b565b662386f26fc10000821115612e745764e8d4a510009050612e9a565b66038d7ea4c68000821115612e905764174876e8009050612e99565b6402540be40090505b5b5b5b5b5b5b5b5b5b600080600080848a6000015181612eb557fe5b04858b6040015181612ec357fe5b04868c6020015181612ed157fe5b04878d6060015181612edf57fe5b04935093509350935060008184028386020390506000848601838560020202029050600084860284880203848602029050600080612f1e85858561399d565b91509150600082138015612f3157508682125b8015612f3c57508582125b80612f5d5750600081138015612f5157508681125b8015612f5c57508581125b5b612f9c576040517f08c379a0000000000000000000000000000000000000000000000000000000008152600401612f9390614e47565b60405180910390fd5b600082138015612fab57508682125b8015612fb657508582125b612fc257898102612fc6565b8982025b9d5050505050505050505050505050919050565b60008173ffffffffffffffffffffffffffffffffffffffff1663ddca3f436040518163ffffffff1660e01b815260040160206040518083038186803b15801561302257600080fd5b505afa92505050801561305357506040513d601f19601f820116820180604052508101906130509190614718565b60015b6130a95761305f61524d565b8061306a5750613070565b506130a4565b3d806000811461309c576040519150601f19603f3d011682016040523d82523d6000602084013e6130a1565b606091505b50505b6130b2565b809150506130b7565b601e90505b919050565b6000808511613100576040517f08c379a00000000000000000000000000000000000000000000000000000000081526004016130f790614f67565b60405180910390fd5b6000841180156131105750600083115b61314f576040517f08c379a000000000000000000000000000000000000000000000000000000000815260040161314690614e87565b60405180910390fd5b600061317861271061316a888861350b90919063ffffffff16565b61350b90919063ffffffff16565b905060006131a584612710036131978988613a3190919063ffffffff16565b61350b90919063ffffffff16565b90506131c460018284816131b557fe5b04613ab490919063ffffffff16565b92505050949350505050565b6000808511613214576040517f08c379a000000000000000000000000000000000000000000000000000000000815260040161320b90614f47565b60405180910390fd5b6000841180156132245750600083115b613263576040517f08c379a000000000000000000000000000000000000000000000000000000000815260040161325a90614e87565b60405180910390fd5b600061327c83612710038761350b90919063ffffffff16565b90506000613293858361350b90919063ffffffff16565b905060006132be836132b06127108a61350b90919063ffffffff16565b613ab490919063ffffffff16565b90508082816132c957fe5b049350505050949350505050565b60006132e582600001613b3c565b9050919050565b60006132fb8360000183613b4d565b60001c905092915050565b61340982826040516024018080602001838152602001828103825284818151815260200191508051906020019080838360005b83811015613354578082015181840152602081019050613339565b50505050905090810190601f1680156133815780820380516001836020036101000a031916815260200191505b5093505050506040516020818303038152906040527f9710a9d0000000000000000000000000000000000000000000000000000000007bffffffffffffffffffffffffffffffffffffffffffffffffffffffff19166020820180517bffffffffffffffffffffffffffffffffffffffffffffffffffffffff83818316178352505050506124a6565b5050565b613508816040516024018080602001828103825283818151815260200191508051906020019080838360005b83811015613454578082015181840152602081019050613439565b50505050905090810190601f1680156134815780820380516001836020036101000a031916815260200191505b50925050506040516020818303038152906040527f41304fac000000000000000000000000000000000000000000000000000000007bffffffffffffffffffffffffffffffffffffffffffffffffffffffff19166020820180517bffffffffffffffffffffffffffffffffffffffffffffffffffffffff83818316178352505050506124a6565b50565b60008083141561351e576000905061358b565b600082840290508284828161352f57fe5b0414613586576040517f08c379a000000000000000000000000000000000000000000000000000000000815260040180806020018281038252602181526020018061542c6021913960400191505060405180910390fd5b809150505b92915050565b6000808211613608576040517f08c379a000000000000000000000000000000000000000000000000000000000815260040180806020018281038252601a8152602001807f536166654d6174683a206469766973696f6e206279207a65726f00000000000081525060200191505060405180910390fd5b81838161361157fe5b04905092915050565b6000613643612710613635848661350b90919063ffffffff16565b61359190919063ffffffff16565b905092915050565b6000613673836000018373ffffffffffffffffffffffffffffffffffffffff1660001b613bd0565b905092915050565b600061368783836137da565b6136e05782600001829080600181540180825580915050600190039060005260206000200160009091909190915055826000018054905083600101600084815260200190815260200160002081905550600190506136e5565b600090505b92915050565b600061374d826040518060400160405280602081526020017f5361666545524332303a206c6f772d6c6576656c2063616c6c206661696c65648152508573ffffffffffffffffffffffffffffffffffffffff16613cb89092919063ffffffff16565b90506000815111156137d55780806020019051602081101561376e57600080fd5b81019080805190602001909291905050506137d4576040517f08c379a000000000000000000000000000000000000000000000000000000000815260040180806020018281038252602a81526020018061544d602a913960400191505060405180910390fd5b5b505050565b600080836001016000848152602001908152602001600020541415905092915050565b6138056142e4565b604051806020016040528061382b670de0b6b3a764000085613cd090919063ffffffff16565b8152509050919050565b61383d6142e4565b604051806020016040528061385f848660000151613d5690919063ffffffff16565b815250905092915050565b6000806138778484613da0565b14905092915050565b613999828260405160240180806020018373ffffffffffffffffffffffffffffffffffffffff168152602001828103825284818151815260200191508051906020019080838360005b838110156138e45780820151818401526020810190506138c9565b50505050905090810190601f1680156139115780820380516001836020036101000a031916815260200191505b5093505050506040516020818303038152906040527f319af333000000000000000000000000000000000000000000000000000000007bffffffffffffffffffffffffffffffffffffffffffffffffffffffff19166020820180517bffffffffffffffffffffffffffffffffffffffffffffffffffffffff83818316178352505050506124a6565b5050565b60008060008386600402026002860a039050600081136139f2576040517f08c379a00000000000000000000000000000000000000000000000000000000081526004016139e990614ea7565b60405180910390fd5b60006139fd82613de0565b90508660020281876000030181613a1057fe5b0593508660020281876000030381613a2457fe5b0592505050935093915050565b600082821115613aa9576040517f08c379a000000000000000000000000000000000000000000000000000000000815260040180806020018281038252601e8152602001807f536166654d6174683a207375627472616374696f6e206f766572666c6f77000081525060200191505060405180910390fd5b818303905092915050565b600080828401905083811015613b32576040517f08c379a000000000000000000000000000000000000000000000000000000000815260040180806020018281038252601b8152602001807f536166654d6174683a206164646974696f6e206f766572666c6f77000000000081525060200191505060405180910390fd5b8091505092915050565b600081600001805490509050919050565b600081836000018054905011613bae576040517f08c379a000000000000000000000000000000000000000000000000000000000815260040180806020018281038252602281526020018061538e6022913960400191505060405180910390fd5b826000018281548110613bbd57fe5b9060005260206000200154905092915050565b60008083600101600084815260200190815260200160002054905060008114613cac5760006001820390506000600186600001805490500390506000866000018281548110613c1b57fe5b9060005260206000200154905080876000018481548110613c3857fe5b9060005260206000200181905550600183018760010160008381526020019081526020016000208190555086600001805480613c7057fe5b60019003818190600052602060002001600090559055866001016000878152602001908152602001600020600090556001945050505050613cb2565b60009150505b92915050565b6060613cc78484600085613e4f565b90509392505050565b600080831415613ce35760009050613d50565b6000828402905082848281613cf457fe5b0414613d4b576040517f08c379a000000000000000000000000000000000000000000000000000000000815260040180806020018281038252602181526020018061542c6021913960400191505060405180910390fd5b809150505b92915050565b6000613d9883836040518060400160405280601a81526020017f536166654d6174683a206469766973696f6e206279207a65726f000000000000815250613ff7565b905092915050565b6000816000015183600001511415613dbb5760019050613dda565b8160000151836000015111613dd1576000613dd4565b60025b60ff1690505b92915050565b600060018211613dec57fe5b6000620f424083029050600081905081925060005b600115613e39576002848381613e1357fe5b04850181613e1d57fe5b0490506103e88185031015613e3157613e39565b809350613e01565b6103e88481613e4457fe5b049350505050919050565b606082471015613eaa576040517f08c379a00000000000000000000000000000000000000000000000000000000081526004018080602001828103825260268152602001806153d66026913960400191505060405180910390fd5b613eb3856140bd565b613f25576040517f08c379a000000000000000000000000000000000000000000000000000000000815260040180806020018281038252601d8152602001807f416464726573733a2063616c6c20746f206e6f6e2d636f6e747261637400000081525060200191505060405180910390fd5b6000808673ffffffffffffffffffffffffffffffffffffffff1685876040518082805190602001908083835b60208310613f745780518252602082019150602081019050602083039250613f51565b6001836020036101000a03801982511681845116808217855250505050505090500191505060006040518083038185875af1925050503d8060008114613fd6576040519150601f19603f3d011682016040523d82523d6000602084013e613fdb565b606091505b5091509150613feb8282866140d0565b92505050949350505050565b600080831182906140a3576040517f08c379a00000000000000000000000000000000000000000000000000000000081526004018080602001828103825283818151815260200191508051906020019080838360005b8381101561406857808201518184015260208101905061404d565b50505050905090810190601f1680156140955780820380516001836020036101000a031916815260200191505b509250505060405180910390fd5b5060008385816140af57fe5b049050809150509392505050565b600080823b905060008111915050919050565b606083156140e057829050614195565b6000835111156140f35782518084602001fd5b816040517f08c379a00000000000000000000000000000000000000000000000000000000081526004018080602001828103825283818151815260200191508051906020019080838360005b8381101561415a57808201518184015260208101905061413f565b50505050905090810190601f1680156141875780820380516001836020036101000a031916815260200191505b509250505060405180910390fd5b9392505050565b6040518060a00160405280600073ffffffffffffffffffffffffffffffffffffffff168152602001600073ffffffffffffffffffffffffffffffffffffffff168152602001600015158152602001600073ffffffffffffffffffffffffffffffffffffffff168152602001600073ffffffffffffffffffffffffffffffffffffffff1681525090565b6040518060800160405280600081526020016000815260200160008152602001600081525090565b6040518060e00160405280600073ffffffffffffffffffffffffffffffffffffffff168152602001600073ffffffffffffffffffffffffffffffffffffffff168152602001600015158152602001600073ffffffffffffffffffffffffffffffffffffffff168152602001600073ffffffffffffffffffffffffffffffffffffffff16815260200160008152602001600081525090565b6040518060200160405280600081525090565b600061430a61430584615068565b615037565b90508281526020810184848401111561432257600080fd5b61432d8482856151eb565b509392505050565b60008135905061434481615303565b92915050565b60008151905061435981615303565b92915050565b60008135905061436e8161531a565b92915050565b60008151905061438381615331565b92915050565b600082601f83011261439a57600080fd5b81356143aa8482602086016142f7565b91505092915050565b600060e082840312156143c557600080fd5b6143cf60e0615037565b905060006143df8482850161434a565b60008301525060206143f38482850161434a565b602083015250604061440784828501614374565b604083015250606061441b8482850161434a565b606083015250608061442f8482850161434a565b60808301525060a06144438482850161448d565b60a08301525060c06144578482850161448d565b60c08301525092915050565b60008151905061447281615348565b92915050565b6000813590506144878161535f565b92915050565b60008151905061449c8161535f565b92915050565b6000815190506144b181615376565b92915050565b6000602082840312156144c957600080fd5b60006144d784828501614335565b91505092915050565b6000602082840312156144f257600080fd5b60006145008482850161434a565b91505092915050565b6000806000806080858703121561451f57600080fd5b600061452d8782880161435f565b945050602061453e87828801614478565b935050604061454f87828801614478565b925050606085013567ffffffffffffffff81111561456c57600080fd5b61457887828801614389565b91505092959194509250565b6000806040838503121561459757600080fd5b60006145a585828601614335565b92505060206145b685828601614335565b9150509250929050565b600080604083850312156145d357600080fd5b60006145e185828601614335565b92505060206145f285828601614478565b9150509250929050565b6000806000806080858703121561461257600080fd5b600061462087828801614335565b945050602061463187828801614478565b935050604061464287828801614478565b925050606085013567ffffffffffffffff81111561465f57600080fd5b61466b87828801614389565b91505092959194509250565b60006020828403121561468957600080fd5b600061469784828501614374565b91505092915050565b600060e082840312156146b257600080fd5b60006146c0848285016143b3565b91505092915050565b6000806000606084860312156146de57600080fd5b60006146ec86828701614463565b93505060206146fd86828701614463565b925050604061470e868287016144a2565b9150509250925092565b60006020828403121561472a57600080fd5b60006147388482850161448d565b91505092915050565b600061474d8383614768565b60208301905092915050565b614762816151b5565b82525050565b61477181615131565b82525050565b61478081615131565b82525050565b6000614791826150a8565b61479b81856150cb565b93506147a683615098565b8060005b838110156147d75781516147be8882614741565b97506147c9836150be565b9250506001810190506147aa565b5085935050505092915050565b6147ed81615155565b82525050565b6147fc81615155565b82525050565b600061480d826150b3565b61481781856150dc565b93506148278185602086016151fa565b6148308161522f565b840191505092915050565b6000614848601b836150ed565b91507f424f543a204e6f742066726f6d207468697320636f6e747261637400000000006000830152602082019050919050565b60006148886024836150ed565b91507f424f543a20466c61736820617262697472616765206661696c2c206e6f20707260008301527f6f666974000000000000000000000000000000000000000000000000000000006020830152604082019050919050565b60006148ee6016836150ed565b91507f424f543a2053616d6520706169722061646472657373000000000000000000006000830152602082019050919050565b600061492e6016836150ed565b91507f424f543a2057726f6e6720696e707574206f72646572000000000000000000006000830152602082019050919050565b600061496e6022836150ed565b91507f424f543a204e6f6e207374616e6461726420756e697377617020414d4d20706160008301527f69720000000000000000000000000000000000000000000000000000000000006020830152604082019050919050565b60006149d4602d836150ed565b91507f424f543a20556e697377617056324c6962726172793a20494e5355464649434960008301527f454e545f4c4951554944495459000000000000000000000000000000000000006020830152604082019050919050565b6000614a3a6013836150ed565b91507f424f543a20436f6d706c6578206e756d626572000000000000000000000000006000830152602082019050919050565b6000614a7a6022836150ed565b91507f424f543a204e6f6e207065726d697373696f6e6564206164647265737320636160008301527f6c6c0000000000000000000000000000000000000000000000000000000000006020830152604082019050919050565b6000614ae06011836150ed565b91507f424f543a204c6f73696e67206d6f6e65790000000000000000000000000000006000830152602082019050919050565b6000614b20601a836150ed565b91507f424f543a204e6f206261736520746f6b656e20696e20706169720000000000006000830152602082019050919050565b6000614b60601c836150ed565b91507f424f543a20526571756972652073616d6520746f6b656e2070616972000000006000830152602082019050919050565b6000614ba06030836150ed565b91507f424f543a20556e697377617056324c6962726172793a20494e5355464649434960008301527f454e545f494e5055545f414d4f554e54000000000000000000000000000000006020830152604082019050919050565b6000614c066031836150ed565b91507f424f543a20556e697377617056324c6962726172793a20494e5355464649434960008301527f454e545f4f55545055545f414d4f554e540000000000000000000000000000006020830152604082019050919050565b6000614c6c601e836150ed565b91507f424f543a20417262697472616765206661696c2c206e6f2070726f66697400006000830152602082019050919050565b60e082016000820151614cb56000850182614768565b506020820151614cc86020850182614768565b506040820151614cdb60408501826147e4565b506060820151614cee6060850182614768565b506080820151614d016080850182614768565b5060a0820151614d1460a0850182614d2d565b5060c0820151614d2760c0850182614d2d565b50505050565b614d368161519b565b82525050565b614d458161519b565b82525050565b6000602082019050614d606000830184614777565b92915050565b6000602082019050614d7b6000830184614759565b92915050565b6000604082019050614d966000830185614777565b614da36020830184614d3c565b9392505050565b60006020820190508181036000830152614dc48184614786565b905092915050565b6000602082019050614de160008301846147f3565b92915050565b60006020820190508181036000830152614e008161483b565b9050919050565b60006020820190508181036000830152614e208161487b565b9050919050565b60006020820190508181036000830152614e40816148e1565b9050919050565b60006020820190508181036000830152614e6081614921565b9050919050565b60006020820190508181036000830152614e8081614961565b9050919050565b60006020820190508181036000830152614ea0816149c7565b9050919050565b60006020820190508181036000830152614ec081614a2d565b9050919050565b60006020820190508181036000830152614ee081614a6d565b9050919050565b60006020820190508181036000830152614f0081614ad3565b9050919050565b60006020820190508181036000830152614f2081614b13565b9050919050565b60006020820190508181036000830152614f4081614b53565b9050919050565b60006020820190508181036000830152614f6081614b93565b9050919050565b60006020820190508181036000830152614f8081614bf9565b9050919050565b60006020820190508181036000830152614fa081614c5f565b9050919050565b600060e082019050614fbc6000830184614c9f565b92915050565b6000604082019050614fd76000830185614d3c565b614fe46020830184614777565b9392505050565b60006080820190506150006000830187614d3c565b61500d6020830186614d3c565b61501a6040830185614759565b818103606083015261502c8184614802565b905095945050505050565b6000604051905081810181811067ffffffffffffffff8211171561505e5761505d61522d565b5b8060405250919050565b600067ffffffffffffffff8211156150835761508261522d565b5b601f19601f8301169050602081019050919050565b6000819050602082019050919050565b600081519050919050565b600081519050919050565b6000602082019050919050565b600082825260208201905092915050565b600082825260208201905092915050565b600082825260208201905092915050565b6000808585111561510e57600080fd5b8386111561511b57600080fd5b6001850283019150848603905094509492505050565b600061513c8261517b565b9050919050565b600061514e8261517b565b9050919050565b60008115159050919050565b60006dffffffffffffffffffffffffffff82169050919050565b600073ffffffffffffffffffffffffffffffffffffffff82169050919050565b6000819050919050565b600063ffffffff82169050919050565b60006151c0826151c7565b9050919050565b60006151d2826151d9565b9050919050565b60006151e48261517b565b9050919050565b82818337600083830152505050565b60005b838110156152185780820151818401526020810190506151fd565b83811115615227576000848401525b50505050565bfe5b6000601f19601f8301169050919050565b60008160e01c9050919050565b600060443d101561525d57615300565b60046000803e61526e600051615240565b6308c379a0811461527f5750615300565b60405160043d036004823e80513d602482011167ffffffffffffffff821117156152ab57505050615300565b808201805167ffffffffffffffff8111156152ca575050505050615300565b8060208301013d85018111156152e557505050505050615300565b6152ee8261522f565b60208401016040528296505050505050505b90565b61530c81615131565b811461531757600080fd5b50565b61532381615143565b811461532e57600080fd5b50565b61533a81615155565b811461534557600080fd5b50565b61535181615161565b811461535c57600080fd5b50565b6153688161519b565b811461537357600080fd5b50565b61537f816151a5565b811461538a57600080fd5b5056fe456e756d657261626c655365743a20696e646578206f7574206f6620626f756e64734f776e61626c653a206e6577206f776e657220697320746865207a65726f2061646472657373416464726573733a20696e73756666696369656e742062616c616e636520666f722063616c6c66616c6c6c6261636b20756e6973776170563243616c6c2073656e6465722c20616d6f756e74302c20616d6f756e7431536166654d6174683a206d756c7469706c69636174696f6e206f766572666c6f775361666545524332303a204552433230206f7065726174696f6e20646964206e6f742073756363656564a2646970667358221220e4716040d86f053fe9fda32d6aed4cff3021cc9134d0d3861628cdc568305efd64736f6c63430007060033",
  "devdoc": {
    "kind": "dev",
    "methods": {
      "flashArbitrage(address,address)": {
        "details": "Two pools must contains same token pair"
      },
      "owner()": {
        "details": "Returns the address of the current owner."
      },
      "renounceOwnership()": {
        "details": "Leaves the contract without owner. It will not be possible to call `onlyOwner` functions anymore. Can only be called by the current owner. NOTE: Renouncing ownership will leave the contract without an owner, thereby removing any functionality that is only available to the owner."
      },
      "transferOwnership(address)": {
        "details": "Transfers ownership of the contract to a new account (`newOwner`). Can only be called by the current owner."
      }
    },
    "version": 1
  },
  "userdoc": {
    "kind": "user",
    "methods": {
      "flashArbitrage(address,address)": {
        "notice": "Do an arbitrage between two Uniswap-like AMM pools"
      },
      "getProfit(address,address)": {
        "notice": "Calculate how much profit we can by arbitraging between two pools"
      }
    },
    "version": 1
  },
  "storageLayout": {
    "storage": [
      {
        "astId": 7,
        "contract": "contracts/FlashBot.sol:FlashBot",
        "label": "_owner",
        "offset": 0,
        "slot": "0",
        "type": "t_address"
      },
      {
        "astId": 1638,
        "contract": "contracts/FlashBot.sol:FlashBot",
        "label": "permissionedPairAddress",
        "offset": 0,
        "slot": "1",
        "type": "t_address"
      },
      {
        "astId": 1642,
        "contract": "contracts/FlashBot.sol:FlashBot",
        "label": "baseTokens",
        "offset": 0,
        "slot": "2",
        "type": "t_struct(AddressSet)1350_storage"
      }
    ],
    "types": {
      "t_address": {
        "encoding": "inplace",
        "label": "address",
        "numberOfBytes": "20"
      },
      "t_array(t_bytes32)dyn_storage": {
        "base": "t_bytes32",
        "encoding": "dynamic_array",
        "label": "bytes32[]",
        "numberOfBytes": "32"
      },
      "t_bytes32": {
        "encoding": "inplace",
        "label": "bytes32",
        "numberOfBytes": "32"
      },
      "t_mapping(t_bytes32,t_uint256)": {
        "encoding": "mapping",
        "key": "t_bytes32",
        "label": "mapping(bytes32 => uint256)",
        "numberOfBytes": "32",
        "value": "t_uint256"
      },
      "t_struct(AddressSet)1350_storage": {
        "encoding": "inplace",
        "label": "struct EnumerableSet.AddressSet",
        "members": [
          {
            "astId": 1349,
            "contract": "contracts/FlashBot.sol:FlashBot",
            "label": "_inner",
            "offset": 0,
            "slot": "0",
            "type": "t_struct(Set)1085_storage"
          }
        ],
        "numberOfBytes": "64"
      },
      "t_struct(Set)1085_storage": {
        "encoding": "inplace",
        "label": "struct EnumerableSet.Set",
        "members": [
          {
            "astId": 1080,
            "contract": "contracts/FlashBot.sol:FlashBot",
            "label": "_values",
            "offset": 0,
            "slot": "0",
            "type": "t_array(t_bytes32)dyn_storage"
          },
          {
            "astId": 1084,
            "contract": "contracts/FlashBot.sol:FlashBot",
            "label": "_indexes",
            "offset": 0,
            "slot": "1",
            "type": "t_mapping(t_bytes32,t_uint256)"
          }
        ],
        "numberOfBytes": "64"
      },
      "t_uint256": {
        "encoding": "inplace",
        "label": "uint256",
        "numberOfBytes": "32"
      }
    }
  }
}