{
  "address": "0x61f1ccE76bd3424cc993B647d90cF54f934570c5",
  "abi": [
    {
      "inputs": [
        {
          "internalType": "address",
          "name": "_WETH",
          "type": "address"
        },
        {
          "internalType": "address[]",
          "name": "_baseTokens",
          "type": "address[]"
        }
      ],
      "stateMutability": "nonpayable",
      "type": "constructor"
    },
    {
      "anonymous": false,
      "inputs": [
        {
          "indexed": true,
          "internalType": "address",
          "name": "token",
          "type": "address"
        }
      ],
      "name": "BaseTokenAdded",
      "type": "event"
    },
    {
      "anonymous": false,
      "inputs": [
        {
          "indexed": true,
          "internalType": "address",
          "name": "token",
          "type": "address"
        }
      ],
      "name": "BaseTokenRemoved",
      "type": "event"
    },
    {
      "anonymous": false,
      "inputs": [
        {
          "indexed": true,
          "internalType": "address",
          "name": "previousOwner",
          "type": "address"
        },
        {
          "indexed": true,
          "internalType": "address",
          "name": "newOwner",
          "type": "address"
        }
      ],
      "name": "OwnershipTransferred",
      "type": "event"
    },
    {
      "anonymous": false,
      "inputs": [
        {
          "indexed": true,
          "internalType": "address",
          "name": "to",
          "type": "address"
        },
        {
          "indexed": true,
          "internalType": "uint256",
          "name": "value",
          "type": "uint256"
        }
      ],
      "name": "Withdrawn",
      "type": "event"
    },
    {
      "inputs": [],
      "name": "WETH",
      "outputs": [
        {
          "internalType": "address",
          "name": "",
          "type": "address"
        }
      ],
      "stateMutability": "view",
      "type": "function"
    },
    {
      "inputs": [
        {
          "internalType": "address",
          "name": "token",
          "type": "address"
        }
      ],
      "name": "addBaseToken",
      "outputs": [],
      "stateMutability": "nonpayable",
      "type": "function"
    },
    {
      "inputs": [
        {
          "internalType": "address",
          "name": "pool0",
          "type": "address"
        },
        {
          "internalType": "address",
          "name": "pool1",
          "type": "address"
        }
      ],
      "name": "flashArbitrage",
      "outputs": [],
      "stateMutability": "nonpayable",
      "type": "function"
    },
    {
      "inputs": [],
      "name": "getBaseTokens",
      "outputs": [
        {
          "internalType": "address[]",
          "name": "tokens",
          "type": "address[]"
        }
      ],
      "stateMutability": "view",
      "type": "function"
    },
    {
      "inputs": [],
      "name": "getOwner",
      "outputs": [
        {
          "internalType": "address",
          "name": "",
          "type": "address"
        }
      ],
      "stateMutability": "view",
      "type": "function"
    },
    {
      "inputs": [
        {
          "internalType": "address",
          "name": "pool0",
          "type": "address"
        },
        {
          "internalType": "address",
          "name": "pool1",
          "type": "address"
        }
      ],
      "name": "getProfit",
      "outputs": [
        {
          "internalType": "uint256",
          "name": "profit",
          "type": "uint256"
        },
        {
          "internalType": "address",
          "name": "baseToken",
          "type": "address"
        }
      ],
      "stateMutability": "view",
      "type": "function"
    },
    {
      "inputs": [
        {
          "internalType": "address",
          "name": "newOwner",
          "type": "address"
        }
      ],
      "name": "initOwner",
      "outputs": [],
      "stateMutability": "nonpayable",
      "type": "function"
    },
    {
      "inputs": [
        {
          "internalType": "address",
          "name": "_WETH",
          "type": "address"
        },
        {
          "internalType": "address[]",
          "name": "_baseTokens",
          "type": "address[]"
        }
      ],
      "name": "initialize",
      "outputs": [],
      "stateMutability": "nonpayable",
      "type": "function"
    },
    {
      "inputs": [
        {
          "internalType": "address",
          "name": "token",
          "type": "address"
        }
      ],
      "name": "removeBaseToken",
      "outputs": [],
      "stateMutability": "nonpayable",
      "type": "function"
    },
    {
      "inputs": [
        {
          "internalType": "address",
          "name": "newOwner",
          "type": "address"
        }
      ],
      "name": "transferContractOwnership",
      "outputs": [],
      "stateMutability": "nonpayable",
      "type": "function"
    },
    {
      "inputs": [
        {
          "internalType": "address",
          "name": "token",
          "type": "address"
        },
        {
          "internalType": "uint256",
          "name": "amount",
          "type": "uint256"
        }
      ],
      "name": "withdraw",
      "outputs": [],
      "stateMutability": "nonpayable",
      "type": "function"
    },
    {
      "inputs": [],
      "name": "withdrawAll",
      "outputs": [],
      "stateMutability": "nonpayable",
      "type": "function"
    },
    {
      "stateMutability": "payable",
      "type": "receive"
    }
  ],
  "transactionHash": "0xa40c6e242d49ad07c1e3e36031489158ecb54b6a99a7396e5cf38534df067822",
  "args": [
    "0x0d500B1d8E8eF31E21C99d1Db9A6444d3ADf1270",
    [
      "0x2791Bca1f2de4661ED88A30C99A7a9449Aa84174",
      "0xc2132D05D31c914a87C6611C10748AEb04B58e8F"
    ]
  ],
  "solcInputHash": "932033c86ed97fafaf496d5c678478fa",
  "bytecode": "0x60806040523480156200001157600080fd5b5060405162004d6738038062004d678339818101604052810190620000379190620006b6565b620000576200004b6200007160201b60201c565b6200007960201b60201c565b6200006982826200013d60201b60201c565b5050620009ce565b600033905090565b60008060009054906101000a900473ffffffffffffffffffffffffffffffffffffffff169050816000806101000a81548173ffffffffffffffffffffffffffffffffffffffff021916908373ffffffffffffffffffffffffffffffffffffffff1602179055508173ffffffffffffffffffffffffffffffffffffffff168173ffffffffffffffffffffffffffffffffffffffff167f8be0079c531659141344cd1fd0a4f28419497f9722a3daafe3b4186f6b6457e060405160405180910390a35050565b600060159054906101000a900460ff1680620001665750600060149054906101000a900460ff16155b620001a8576040517f08c379a00000000000000000000000000000000000000000000000000000000081526004016200019f906200075e565b60405180910390fd5b60008060159054906101000a900460ff161590508015620001fa576001600060156101000a81548160ff0219169083151502179055506001600060146101000a81548160ff0219169083151502179055505b6200021a6200020e6200007160201b60201c565b6200031460201b60201c565b82600160006101000a81548173ffffffffffffffffffffffffffffffffffffffff021916908373ffffffffffffffffffffffffffffffffffffffff160217905550620002768360026200040e60201b620019db1790919060201c565b5060005b8251811015620002ec57620002d6838281518110620002c2577f4e487b7100000000000000000000000000000000000000000000000000000000600052603260045260246000fd5b60200260200101516200044660201b60201c565b8080620002e3906200087f565b9150506200027a565b5080156200030f5760008060156101000a81548160ff0219169083151502179055505b505050565b600073ffffffffffffffffffffffffffffffffffffffff1660008054906101000a900473ffffffffffffffffffffffffffffffffffffffff1673ffffffffffffffffffffffffffffffffffffffff16146200036f576200040b565b806000806101000a81548173ffffffffffffffffffffffffffffffffffffffff021916908373ffffffffffffffffffffffffffffffffffffffff1602179055508073ffffffffffffffffffffffffffffffffffffffff16600073ffffffffffffffffffffffffffffffffffffffff167f8be0079c531659141344cd1fd0a4f28419497f9722a3daafe3b4186f6b6457e060405160405180910390a35b50565b60006200043e836000018373ffffffffffffffffffffffffffffffffffffffff1660001b6200053760201b60201c565b905092915050565b620004566200007160201b60201c565b73ffffffffffffffffffffffffffffffffffffffff166200047c620005b160201b60201c565b73ffffffffffffffffffffffffffffffffffffffff1614620004d5576040517f08c379a0000000000000000000000000000000000000000000000000000000008152600401620004cc9062000780565b60405180910390fd5b620004f08160026200040e60201b620019db1790919060201c565b508073ffffffffffffffffffffffffffffffffffffffff167ffa1388d6e7328e9c711a539b0addfc27de8bfb6f5924cce26f80f41023b1525360405160405180910390a250565b60006200054b8383620005da60201b60201c565b620005a6578260000182908060018154018082558091505060019003906000526020600020016000909190919091505582600001805490508360010160008481526020019081526020016000208190555060019050620005ab565b600090505b92915050565b60008060009054906101000a900473ffffffffffffffffffffffffffffffffffffffff16905090565b600080836001016000848152602001908152602001600020541415905092915050565b6000620006146200060e84620007cb565b620007a2565b905080838252602082019050828560208602820111156200063457600080fd5b60005b858110156200066857816200064d888262000672565b84526020840193506020830192505060018101905062000637565b5050509392505050565b6000815190506200068381620009b4565b92915050565b600082601f8301126200069b57600080fd5b8151620006ad848260208601620005fd565b91505092915050565b60008060408385031215620006ca57600080fd5b6000620006da8582860162000672565b925050602083015167ffffffffffffffff811115620006f857600080fd5b620007068582860162000689565b9150509250929050565b60006200071f602e83620007fa565b91506200072c826200093c565b604082019050919050565b600062000746602083620007fa565b915062000753826200098b565b602082019050919050565b60006020820190508181036000830152620007798162000710565b9050919050565b600060208201905081810360008301526200079b8162000737565b9050919050565b6000620007ae620007c1565b9050620007bc828262000849565b919050565b6000604051905090565b600067ffffffffffffffff821115620007e957620007e8620008fc565b5b602082029050602081019050919050565b600082825260208201905092915050565b600062000818826200081f565b9050919050565b600073ffffffffffffffffffffffffffffffffffffffff82169050919050565b6000819050919050565b62000854826200092b565b810181811067ffffffffffffffff82111715620008765762000875620008fc565b5b80604052505050565b60006200088c826200083f565b91507fffffffffffffffffffffffffffffffffffffffffffffffffffffffffffffffff821415620008c257620008c1620008cd565b5b600182019050919050565b7f4e487b7100000000000000000000000000000000000000000000000000000000600052601160045260246000fd5b7f4e487b7100000000000000000000000000000000000000000000000000000000600052604160045260246000fd5b6000601f19601f8301169050919050565b7f496e697469616c697a61626c653a20636f6e747261637420697320616c72656160008201527f647920696e697469616c697a6564000000000000000000000000000000000000602082015250565b7f4f776e61626c653a2063616c6c6572206973206e6f7420746865206f776e6572600082015250565b620009bf816200080b565b8114620009cb57600080fd5b50565b61438980620009de6000396000f3fe6080604052600436106100ab5760003560e01c8063a843c51f11610064578063a843c51f146101b2578063ad5c4648146101db578063baee64f114610206578063bbd1e1221461022f578063bed64c2f14610258578063f3fef3a314610283576100b2565b80630d009297146100b7578063759eee10146100e057806383e280d91461011e578063853828b614610147578063893d20e81461015e578063946d920414610189576100b2565b366100b257005b600080fd5b3480156100c357600080fd5b506100de60048036038101906100d99190613115565b6102ac565b005b3480156100ec57600080fd5b5061010760048036038101906101029190613167565b6103a4565b6040516101159291906139cf565b60405180910390f35b34801561012a57600080fd5b5061014560048036038101906101409190613115565b610654565b005b34801561015357600080fd5b5061015c61072b565b005b34801561016a57600080fd5b506101736109bd565b60405161018091906136a7565b60405180910390f35b34801561019557600080fd5b506101b060048036038101906101ab91906131a3565b6109e6565b005b3480156101be57600080fd5b506101d960048036038101906101d49190613115565b610b93565b005b3480156101e757600080fd5b506101f0610c8b565b6040516101fd91906136a7565b60405180910390f35b34801561021257600080fd5b5061022d60048036038101906102289190613167565b610cb1565b005b34801561023b57600080fd5b5061025660048036038101906102519190613115565b611467565b005b34801561026457600080fd5b5061026d61166b565b60405161027a91906136eb565b60405180910390f35b34801561028f57600080fd5b506102aa60048036038101906102a591906131f7565b611796565b005b600073ffffffffffffffffffffffffffffffffffffffff1660008054906101000a900473ffffffffffffffffffffffffffffffffffffffff1673ffffffffffffffffffffffffffffffffffffffff1614610305576103a1565b806000806101000a81548173ffffffffffffffffffffffffffffffffffffffff021916908373ffffffffffffffffffffffffffffffffffffffff1602179055508073ffffffffffffffffffffffffffffffffffffffff16600073ffffffffffffffffffffffffffffffffffffffff167f8be0079c531659141344cd1fd0a4f28419497f9722a3daafe3b4186f6b6457e060405160405180910390a35b50565b6000806000806103b48686611a0b565b509150915080925060008060006103cc898987611e7a565b92509250925060008673ffffffffffffffffffffffffffffffffffffffff166370a08231306040518263ffffffff1660e01b815260040161040d91906136a7565b60206040518083038186803b15801561042557600080fd5b505afa158015610439573d6000803e3d6000fd5b505050506040513d601f19601f8201168201806040525081019061045d91906132ab565b905061049e6040518060400160405280601081526020017f2b626173655374617274416d6f756e74000000000000000000000000000000008152508261217c565b60006104a985612218565b90506104ea6040518060400160405280600581526020017f2b666565310000000000000000000000000000000000000000000000000000008152508261217c565b60006105008385600001518660200151856123d7565b90506105416040518060400160405280600f81526020017f2b71756f74654f7574416d6f756e7400000000000000000000000000000000008152508261217c565b600061054c86612218565b905061058d6040518060400160405280600581526020017f2b666565320000000000000000000000000000000000000000000000000000008152508261217c565b60006105a38387606001518860400151856123d7565b90506105e46040518060400160405280600e81526020017f2b626173654f7574416d6f756e740000000000000000000000000000000000008152508261217c565b848110156105f55760009b50610643565b84816106019190613bf2565b9b506106426040518060400160405280600781526020017f2b70726f666974000000000000000000000000000000000000000000000000008152508d61217c565b5b505050505050505050509250929050565b61065c6124e9565b73ffffffffffffffffffffffffffffffffffffffff1661067a6109bd565b73ffffffffffffffffffffffffffffffffffffffff16146106d0576040517f08c379a00000000000000000000000000000000000000000000000000000000081526004016106c7906138af565b60405180910390fd5b6106e48160026119db90919063ffffffff16565b508073ffffffffffffffffffffffffffffffffffffffff167ffa1388d6e7328e9c711a539b0addfc27de8bfb6f5924cce26f80f41023b1525360405160405180910390a250565b6107336124e9565b73ffffffffffffffffffffffffffffffffffffffff166107516109bd565b73ffffffffffffffffffffffffffffffffffffffff16146107a7576040517f08c379a000000000000000000000000000000000000000000000000000000000815260040161079e906138af565b60405180910390fd5b6000479050600081111561084f576107bd6109bd565b73ffffffffffffffffffffffffffffffffffffffff166108fc829081150290604051600060405180830381858888f19350505050158015610802573d6000803e3d6000fd5b508061080c6109bd565b73ffffffffffffffffffffffffffffffffffffffff167f7084f5476618d8e60b11ef0d7d3f06914655adb8793e28ff7f018d4c76d505d560405160405180910390a35b60005b61085c60026124f1565b8110156109b957600061087982600261250690919063ffffffff16565b90508073ffffffffffffffffffffffffffffffffffffffff166370a08231306040518263ffffffff1660e01b81526004016108b491906136a7565b60206040518083038186803b1580156108cc57600080fd5b505afa1580156108e0573d6000803e3d6000fd5b505050506040513d601f19601f8201168201806040525081019061090491906132ab565b925060008311156109a5578073ffffffffffffffffffffffffffffffffffffffff1663a9059cbb6109336109bd565b856040518363ffffffff1660e01b81526004016109519291906136c2565b602060405180830381600087803b15801561096b57600080fd5b505af115801561097f573d6000803e3d6000fd5b505050506040513d601f19601f820116820180604052508101906109a39190613233565b505b5080806109b190613cfc565b915050610852565b5050565b60008060009054906101000a900473ffffffffffffffffffffffffffffffffffffffff16905090565b600060159054906101000a900460ff1680610a0e5750600060149054906101000a900460ff16155b610a4d576040517f08c379a0000000000000000000000000000000000000000000000000000000008152600401610a449061386f565b60405180910390fd5b60008060159054906101000a900460ff161590508015610a9e576001600060156101000a81548160ff0219169083151502179055506001600060146101000a81548160ff0219169083151502179055505b610aae610aa96124e9565b6102ac565b82600160006101000a81548173ffffffffffffffffffffffffffffffffffffffff021916908373ffffffffffffffffffffffffffffffffffffffff160217905550610b038360026119db90919063ffffffff16565b5060005b8251811015610b6c57610b59838281518110610b4c577f4e487b7100000000000000000000000000000000000000000000000000000000600052603260045260246000fd5b6020026020010151610654565b8080610b6490613cfc565b915050610b07565b508015610b8e5760008060156101000a81548160ff0219169083151502179055505b505050565b610b9b6124e9565b73ffffffffffffffffffffffffffffffffffffffff16610bb96109bd565b73ffffffffffffffffffffffffffffffffffffffff1614610c0f576040517f08c379a0000000000000000000000000000000000000000000000000000000008152600401610c06906138af565b60405180910390fd5b600073ffffffffffffffffffffffffffffffffffffffff168173ffffffffffffffffffffffffffffffffffffffff161415610c7f576040517f08c379a0000000000000000000000000000000000000000000000000000000008152600401610c76906137af565b60405180910390fd5b610c8881612520565b50565b600160009054906101000a900473ffffffffffffffffffffffffffffffffffffffff1681565b610cb9612f28565b610cc38383611a0b565b8360400184600001856020018373ffffffffffffffffffffffffffffffffffffffff1673ffffffffffffffffffffffffffffffffffffffff168152508373ffffffffffffffffffffffffffffffffffffffff1673ffffffffffffffffffffffffffffffffffffffff168152508315151515815250505050610d42612fb1565b610d5184848460400151611e7a565b84606001856080018295508373ffffffffffffffffffffffffffffffffffffffff1673ffffffffffffffffffffffffffffffffffffffff168152508373ffffffffffffffffffffffffffffffffffffffff1673ffffffffffffffffffffffffffffffffffffffff168152505050506000826000015173ffffffffffffffffffffffffffffffffffffffff166370a08231306040518263ffffffff1660e01b8152600401610dfe91906136a7565b60206040518083038186803b158015610e1657600080fd5b505afa158015610e2a573d6000803e3d6000fd5b505050506040513d601f19601f82011682018060405250810190610e4e91906132ab565b9050610e8f6040518060400160405280600e81526020017f2d62616c616e63654265666f72650000000000000000000000000000000000008152508261217c565b6000610e9e8460600151612218565b9050610edf6040518060400160405280600581526020017f2d666565310000000000000000000000000000000000000000000000000000008152508261217c565b6000829050610f236040518060400160405280600c81526020017f2d7374617274416d6f756e7400000000000000000000000000000000000000008152508261217c565b6000610f398286600001518760200151866123d7565b9050610f7a6040518060400160405280600f81526020017f2d71756f74654f7574416d6f756e7400000000000000000000000000000000008152508261217c565b6000610f898760800151612218565b9050610fca6040518060400160405280600581526020017f2d666565320000000000000000000000000000000000000000000000000000008152508261217c565b6000610fe08388606001518960400151856123d7565b90506110216040518060400160405280600e81526020017f2d626173654f7574416d6f756e740000000000000000000000000000000000008152508261217c565b838111611063576040517f08c379a000000000000000000000000000000000000000000000000000000000815260040161105a9061394f565b60405180910390fd5b6110ad6040518060400160405280601281526020017f2d657374696d617465642070726f6669743a000000000000000000000000000081525085836110a89190613bf2565b61217c565b6060868511156110f2576040517f08c379a00000000000000000000000000000000000000000000000000000000081526004016110e99061398f565b60405180910390fd5b6111258960600151868b6000015173ffffffffffffffffffffffffffffffffffffffff166125e49092919063ffffffff16565b6000808a604001516111395785600061113d565b6000865b915091508a6060015173ffffffffffffffffffffffffffffffffffffffff1663022c0d9f838330876040518563ffffffff1660e01b815260040161118494939291906139f8565b600060405180830381600087803b15801561119e57600080fd5b505af11580156111b2573d6000803e3d6000fd5b5050505060008083116111c557816111c7565b825b90506111fc8c60800151828e6020015173ffffffffffffffffffffffffffffffffffffffff166125e49092919063ffffffff16565b6000808d6040015161121057600087611214565b8660005b915091508d6080015173ffffffffffffffffffffffffffffffffffffffff1663022c0d9f8383308a6040518563ffffffff1660e01b815260040161125b94939291906139f8565b600060405180830381600087803b15801561127557600080fd5b505af1158015611289573d6000803e3d6000fd5b5050505050505050505050505050506000836000015173ffffffffffffffffffffffffffffffffffffffff166370a08231306040518263ffffffff1660e01b81526004016112d791906136a7565b60206040518083038186803b1580156112ef57600080fd5b505afa158015611303573d6000803e3d6000fd5b505050506040513d601f19601f8201168201806040525081019061132791906132ab565b905081811161136b576040517f08c379a0000000000000000000000000000000000000000000000000000000008152600401611362906138cf565b60405180910390fd5b600082826113799190613bf2565b90506113c56040518060400160405280601081526020017f2d72656365697665642070726f6669740000000000000000000000000000000081525084846113c09190613bf2565b61217c565b846000015173ffffffffffffffffffffffffffffffffffffffff1663a9059cbb6113ed6109bd565b836040518363ffffffff1660e01b815260040161140b9291906136c2565b602060405180830381600087803b15801561142557600080fd5b505af1158015611439573d6000803e3d6000fd5b505050506040513d601f19601f8201168201806040525081019061145d9190613233565b5050505050505050565b61146f6124e9565b73ffffffffffffffffffffffffffffffffffffffff1661148d6109bd565b73ffffffffffffffffffffffffffffffffffffffff16146114e3576040517f08c379a00000000000000000000000000000000000000000000000000000000081526004016114da906138af565b60405180910390fd5b60008173ffffffffffffffffffffffffffffffffffffffff166370a08231306040518263ffffffff1660e01b815260040161151e91906136a7565b60206040518083038186803b15801561153657600080fd5b505afa15801561154a573d6000803e3d6000fd5b505050506040513d601f19601f8201168201806040525081019061156e91906132ab565b9050600081111561160f578173ffffffffffffffffffffffffffffffffffffffff1663a9059cbb61159d6109bd565b836040518363ffffffff1660e01b81526004016115bb9291906136c2565b602060405180830381600087803b1580156115d557600080fd5b505af11580156115e9573d6000803e3d6000fd5b505050506040513d601f19601f8201168201806040525081019061160d9190613233565b505b61162382600261266a90919063ffffffff16565b508173ffffffffffffffffffffffffffffffffffffffff167fdc23a849435922f20a9732eb85192a9d0c1cb34725ebe6d7de0be10212ba02fb60405160405180910390a25050565b6060600061167960026124f1565b90508067ffffffffffffffff8111156116bb577f4e487b7100000000000000000000000000000000000000000000000000000000600052604160045260246000fd5b6040519080825280602002602001820160405280156116e95781602001602082028036833780820191505090505b50915060005b818110156117915761170b81600261250690919063ffffffff16565b838281518110611744577f4e487b7100000000000000000000000000000000000000000000000000000000600052603260045260246000fd5b602002602001019073ffffffffffffffffffffffffffffffffffffffff16908173ffffffffffffffffffffffffffffffffffffffff1681525050808061178990613cfc565b9150506116ef565b505090565b61179e6124e9565b73ffffffffffffffffffffffffffffffffffffffff166117bc6109bd565b73ffffffffffffffffffffffffffffffffffffffff1614611812576040517f08c379a0000000000000000000000000000000000000000000000000000000008152600401611809906138af565b60405180910390fd5b60008273ffffffffffffffffffffffffffffffffffffffff166370a08231306040518263ffffffff1660e01b815260040161184d91906136a7565b60206040518083038186803b15801561186557600080fd5b505afa158015611879573d6000803e3d6000fd5b505050506040513d601f19601f8201168201806040525081019061189d91906132ab565b9050818110611940578273ffffffffffffffffffffffffffffffffffffffff1663a9059cbb6118ca6109bd565b846040518363ffffffff1660e01b81526004016118e89291906136c2565b602060405180830381600087803b15801561190257600080fd5b505af1158015611916573d6000803e3d6000fd5b505050506040513d601f19601f8201168201806040525081019061193a9190613233565b506119d6565b8273ffffffffffffffffffffffffffffffffffffffff1663a9059cbb6119646109bd565b836040518363ffffffff1660e01b81526004016119829291906136c2565b602060405180830381600087803b15801561199c57600080fd5b505af11580156119b0573d6000803e3d6000fd5b505050506040513d601f19601f820116820180604052508101906119d49190613233565b505b505050565b6000611a03836000018373ffffffffffffffffffffffffffffffffffffffff1660001b61269a565b905092915050565b60008060008373ffffffffffffffffffffffffffffffffffffffff168573ffffffffffffffffffffffffffffffffffffffff161415611a7f576040517f08c379a0000000000000000000000000000000000000000000000000000000008152600401611a769061378f565b60405180910390fd5b6000808673ffffffffffffffffffffffffffffffffffffffff16630dfe16816040518163ffffffff1660e01b815260040160206040518083038186803b158015611ac857600080fd5b505afa158015611adc573d6000803e3d6000fd5b505050506040513d601f19601f82011682018060405250810190611b00919061313e565b8773ffffffffffffffffffffffffffffffffffffffff1663d21220a76040518163ffffffff1660e01b815260040160206040518083038186803b158015611b4657600080fd5b505afa158015611b5a573d6000803e3d6000fd5b505050506040513d601f19601f82011682018060405250810190611b7e919061313e565b915091506000808773ffffffffffffffffffffffffffffffffffffffff16630dfe16816040518163ffffffff1660e01b815260040160206040518083038186803b158015611bcb57600080fd5b505afa158015611bdf573d6000803e3d6000fd5b505050506040513d601f19601f82011682018060405250810190611c03919061313e565b8873ffffffffffffffffffffffffffffffffffffffff1663d21220a76040518163ffffffff1660e01b815260040160206040518083038186803b158015611c4957600080fd5b505afa158015611c5d573d6000803e3d6000fd5b505050506040513d601f19601f82011682018060405250810190611c81919061313e565b915091508273ffffffffffffffffffffffffffffffffffffffff168473ffffffffffffffffffffffffffffffffffffffff16108015611ceb57508073ffffffffffffffffffffffffffffffffffffffff168273ffffffffffffffffffffffffffffffffffffffff16105b611d2a576040517f08c379a0000000000000000000000000000000000000000000000000000000008152600401611d219061380f565b60405180910390fd5b8173ffffffffffffffffffffffffffffffffffffffff168473ffffffffffffffffffffffffffffffffffffffff16148015611d9057508073ffffffffffffffffffffffffffffffffffffffff168373ffffffffffffffffffffffffffffffffffffffff16145b611dcf576040517f08c379a0000000000000000000000000000000000000000000000000000000008152600401611dc69061390f565b60405180910390fd5b611de384600261270a90919063ffffffff16565b80611dfe5750611dfd83600261270a90919063ffffffff16565b5b611e3d576040517f08c379a0000000000000000000000000000000000000000000000000000000008152600401611e34906138ef565b60405180910390fd5b611e5184600261270a90919063ffffffff16565b611e5e5760008385611e63565b600184845b809750819850829950505050505050509250925092565b600080611e85612fb1565b6000808773ffffffffffffffffffffffffffffffffffffffff16630902f1ac6040518163ffffffff1660e01b815260040160606040518083038186803b158015611ece57600080fd5b505afa158015611ee2573d6000803e3d6000fd5b505050506040513d601f19601f82011682018060405250810190611f06919061325c565b506dffffffffffffffffffffffffffff1691506dffffffffffffffffffffffffffff1691506000808873ffffffffffffffffffffffffffffffffffffffff16630902f1ac6040518163ffffffff1660e01b815260040160606040518083038186803b158015611f7457600080fd5b505afa158015611f88573d6000803e3d6000fd5b505050506040513d601f19601f82011682018060405250810190611fac919061325c565b506dffffffffffffffffffffffffffff1691506dffffffffffffffffffffffffffff1691506000808961201457611ff486611fe68761273a565b61277290919063ffffffff16565b61200f856120018661273a565b61277290919063ffffffff16565b61204b565b61202f856120218861273a565b61277290919063ffffffff16565b61204a8461203c8761273a565b61277290919063ffffffff16565b5b9150915061206281836127a790919063ffffffff16565b156120ad578b8b809950819a5050508961207f5784868486612084565b858585855b8a6000018b6020018c6040018d60600184815250848152508481525084815250505050506120ef565b8a8c809950819a505050896120c557828486886120ca565b838387875b8a6000018b6020018c6040018d60600184815250848152508481525084815250505050505b61212e6040518060400160405280600f81526020017f2d4275792066726f6d20706f6f6c3a00000000000000000000000000000000008152508a6127bd565b61216d6040518060400160405280600f81526020017f2d53656c6c2020746f20706f6f6c3a0000000000000000000000000000000000815250896127bd565b50505050505093509350939050565b612214828260405160240161219292919061375f565b6040516020818303038152906040527f9710a9d0000000000000000000000000000000000000000000000000000000007bffffffffffffffffffffffffffffffffffffffffffffffffffffffff19166020820180517bffffffffffffffffffffffffffffffffffffffffffffffffffffffff8381831617835250505050612859565b5050565b600073684d8c187be836171a1af8d533e472489303182873ffffffffffffffffffffffffffffffffffffffff168273ffffffffffffffffffffffffffffffffffffffff1663c45a01556040518163ffffffff1660e01b815260040160206040518083038186803b15801561228b57600080fd5b505afa15801561229f573d6000803e3d6000fd5b505050506040513d601f19601f820116820180604052508101906122c3919061313e565b73ffffffffffffffffffffffffffffffffffffffff1614156123cd578173ffffffffffffffffffffffffffffffffffffffff1663ddca3f436040518163ffffffff1660e01b815260040160206040518083038186803b15801561232557600080fd5b505afa92505050801561235657506040513d601f19601f8201168201806040525081019061235391906132ab565b60015b6123c357612362613dd2565b806308c379a01415612388575061237761424a565b80612382575061238a565b506123be565b505b3d80600081146123b6576040519150601f19603f3d011682016040523d82523d6000602084013e6123bb565b606091505b50505b6123cc565b809150506123d2565b5b601e90505b919050565b600080851161241b576040517f08c379a00000000000000000000000000000000000000000000000000000000081526004016124129061392f565b60405180910390fd5b60008411801561242b5750600083115b61246a576040517f08c379a00000000000000000000000000000000000000000000000000000000081526004016124619061382f565b60405180910390fd5b600061248c8361271061247d9190613bf2565b8761288290919063ffffffff16565b905060006124a3858361288290919063ffffffff16565b905060006124ce836124c06127108a61288290919063ffffffff16565b6128ef90919063ffffffff16565b905080826124dc9190613b67565b9350505050949350505050565b600033905090565b60006124ff82600001612948565b9050919050565b60006125158360000183612959565b60001c905092915050565b60008060009054906101000a900473ffffffffffffffffffffffffffffffffffffffff169050816000806101000a81548173ffffffffffffffffffffffffffffffffffffffff021916908373ffffffffffffffffffffffffffffffffffffffff1602179055508173ffffffffffffffffffffffffffffffffffffffff168173ffffffffffffffffffffffffffffffffffffffff167f8be0079c531659141344cd1fd0a4f28419497f9722a3daafe3b4186f6b6457e060405160405180910390a35050565b6126658363a9059cbb60e01b84846040516024016126039291906136c2565b604051602081830303815290604052907bffffffffffffffffffffffffffffffffffffffffffffffffffffffff19166020820180517bffffffffffffffffffffffffffffffffffffffffffffffffffffffff83818316178352505050506129aa565b505050565b6000612692836000018373ffffffffffffffffffffffffffffffffffffffff1660001b612a71565b905092915050565b60006126a68383612bf7565b6126ff578260000182908060018154018082558091505060019003906000526020600020016000909190919091505582600001805490508360010160008481526020019081526020016000208190555060019050612704565b600090505b92915050565b6000612732836000018373ffffffffffffffffffffffffffffffffffffffff1660001b612bf7565b905092915050565b612742612fd9565b6040518060200160405280612768670de0b6b3a764000085612c1a90919063ffffffff16565b8152509050919050565b61277a612fd9565b604051806020016040528061279c848660000151612c9590919063ffffffff16565b815250905092915050565b6000806127b48484612cdf565b14905092915050565b61285582826040516024016127d392919061372f565b6040516020818303038152906040527f319af333000000000000000000000000000000000000000000000000000000007bffffffffffffffffffffffffffffffffffffffffffffffffffffffff19166020820180517bffffffffffffffffffffffffffffffffffffffffffffffffffffffff8381831617835250505050612859565b5050565b60008151905060006a636f6e736f6c652e6c6f679050602083016000808483855afa5050505050565b6000808214806128aa57508282838561289b9190613b98565b9250826128a89190613b67565b145b6128e9576040517f08c379a00000000000000000000000000000000000000000000000000000000081526004016128e0906137cf565b60405180910390fd5b92915050565b60008282846128fe9190613b11565b9150811015612942576040517f08c379a0000000000000000000000000000000000000000000000000000000008152600401612939906137ef565b60405180910390fd5b92915050565b600081600001805490509050919050565b6000826000018281548110612997577f4e487b7100000000000000000000000000000000000000000000000000000000600052603260045260246000fd5b9060005260206000200154905092915050565b6000612a0c826040518060400160405280602081526020017f5361666545524332303a206c6f772d6c6576656c2063616c6c206661696c65648152508573ffffffffffffffffffffffffffffffffffffffff16612d1f9092919063ffffffff16565b9050600081511115612a6c5780806020019051810190612a2c9190613233565b612a6b576040517f08c379a0000000000000000000000000000000000000000000000000000000008152600401612a62906139af565b60405180910390fd5b5b505050565b60008083600101600084815260200190815260200160002054905060008114612beb576000600182612aa39190613bf2565b9050600060018660000180549050612abb9190613bf2565b9050818114612b76576000866000018281548110612b02577f4e487b7100000000000000000000000000000000000000000000000000000000600052603260045260246000fd5b9060005260206000200154905080876000018481548110612b4c577f4e487b7100000000000000000000000000000000000000000000000000000000600052603260045260246000fd5b90600052602060002001819055508387600101600083815260200190815260200160002081905550505b85600001805480612bb0577f4e487b7100000000000000000000000000000000000000000000000000000000600052603160045260246000fd5b600190038181906000526020600020016000905590558560010160008681526020019081526020016000206000905560019350505050612bf1565b60009150505b92915050565b600080836001016000848152602001908152602001600020541415905092915050565b600080831415612c2d5760009050612c8f565b60008284612c3b9190613b98565b9050828482612c4a9190613b67565b14612c8a576040517f08c379a0000000000000000000000000000000000000000000000000000000008152600401612c819061388f565b60405180910390fd5b809150505b92915050565b6000612cd783836040518060400160405280601a81526020017f536166654d6174683a206469766973696f6e206279207a65726f000000000000815250612d37565b905092915050565b6000816000015183600001511415612cfa5760019050612d19565b8160000151836000015111612d10576000612d13565b60025b60ff1690505b92915050565b6060612d2e8484600085612d9a565b90509392505050565b60008083118290612d7e576040517f08c379a0000000000000000000000000000000000000000000000000000000008152600401612d75919061370d565b60405180910390fd5b5060008385612d8d9190613b67565b9050809150509392505050565b606082471015612ddf576040517f08c379a0000000000000000000000000000000000000000000000000000000008152600401612dd69061384f565b60405180910390fd5b612de885612eae565b612e27576040517f08c379a0000000000000000000000000000000000000000000000000000000008152600401612e1e9061396f565b60405180910390fd5b6000808673ffffffffffffffffffffffffffffffffffffffff168587604051612e509190613690565b60006040518083038185875af1925050503d8060008114612e8d576040519150601f19603f3d011682016040523d82523d6000602084013e612e92565b606091505b5091509150612ea2828286612ec1565b92505050949350505050565b600080823b905060008111915050919050565b60608315612ed157829050612f21565b600083511115612ee45782518084602001fd5b816040517f08c379a0000000000000000000000000000000000000000000000000000000008152600401612f18919061370d565b60405180910390fd5b9392505050565b6040518060a00160405280600073ffffffffffffffffffffffffffffffffffffffff168152602001600073ffffffffffffffffffffffffffffffffffffffff168152602001600015158152602001600073ffffffffffffffffffffffffffffffffffffffff168152602001600073ffffffffffffffffffffffffffffffffffffffff1681525090565b6040518060800160405280600081526020016000815260200160008152602001600081525090565b6040518060200160405280600081525090565b6000612fff612ffa84613a69565b613a44565b9050808382526020820190508285602086028201111561301e57600080fd5b60005b8581101561304e57816130348882613058565b845260208401935060208301925050600181019050613021565b5050509392505050565b600081359050613067816142e0565b92915050565b60008151905061307c816142e0565b92915050565b600082601f83011261309357600080fd5b81356130a3848260208601612fec565b91505092915050565b6000815190506130bb816142f7565b92915050565b6000815190506130d08161430e565b92915050565b6000813590506130e581614325565b92915050565b6000815190506130fa81614325565b92915050565b60008151905061310f8161433c565b92915050565b60006020828403121561312757600080fd5b600061313584828501613058565b91505092915050565b60006020828403121561315057600080fd5b600061315e8482850161306d565b91505092915050565b6000806040838503121561317a57600080fd5b600061318885828601613058565b925050602061319985828601613058565b9150509250929050565b600080604083850312156131b657600080fd5b60006131c485828601613058565b925050602083013567ffffffffffffffff8111156131e157600080fd5b6131ed85828601613082565b9150509250929050565b6000806040838503121561320a57600080fd5b600061321885828601613058565b9250506020613229858286016130d6565b9150509250929050565b60006020828403121561324557600080fd5b6000613253848285016130ac565b91505092915050565b60008060006060848603121561327157600080fd5b600061327f868287016130c1565b9350506020613290868287016130c1565b92505060406132a186828701613100565b9150509250925092565b6000602082840312156132bd57600080fd5b60006132cb848285016130eb565b91505092915050565b60006132e083836132ec565b60208301905092915050565b6132f581613c26565b82525050565b61330481613c26565b82525050565b600061331582613aa5565b61331f8185613ad3565b935061332a83613a95565b8060005b8381101561335b57815161334288826132d4565b975061334d83613ac6565b92505060018101905061332e565b5085935050505092915050565b600061337382613ab0565b61337d8185613ae4565b935061338d818560208601613c98565b61339681613df4565b840191505092915050565b60006133ac82613ab0565b6133b68185613af5565b93506133c6818560208601613c98565b80840191505092915050565b60006133dd82613abb565b6133e78185613b00565b93506133f7818560208601613c98565b61340081613df4565b840191505092915050565b6000613418601683613b00565b915061342382613e12565b602082019050919050565b600061343b602683613b00565b915061344682613e3b565b604082019050919050565b600061345e601483613b00565b915061346982613e8a565b602082019050919050565b6000613481601483613b00565b915061348c82613eb3565b602082019050919050565b60006134a4602283613b00565b91506134af82613edc565b604082019050919050565b60006134c7602d83613b00565b91506134d282613f2b565b604082019050919050565b60006134ea602683613b00565b91506134f582613f7a565b604082019050919050565b600061350d602e83613b00565b915061351882613fc9565b604082019050919050565b6000613530602183613b00565b915061353b82614018565b604082019050919050565b6000613553602083613b00565b915061355e82614067565b602082019050919050565b6000613576601183613b00565b915061358182614090565b602082019050919050565b6000613599601a83613b00565b91506135a4826140b9565b602082019050919050565b60006135bc601c83613b00565b91506135c7826140e2565b602082019050919050565b60006135df603083613b00565b91506135ea8261410b565b604082019050919050565b6000613602601e83613b00565b915061360d8261415a565b602082019050919050565b6000613625601d83613b00565b915061363082614183565b602082019050919050565b6000613648602283613b00565b9150613653826141ac565b604082019050919050565b600061366b602a83613b00565b9150613676826141fb565b604082019050919050565b61368a81613c7e565b82525050565b600061369c82846133a1565b915081905092915050565b60006020820190506136bc60008301846132fb565b92915050565b60006040820190506136d760008301856132fb565b6136e46020830184613681565b9392505050565b60006020820190508181036000830152613705818461330a565b905092915050565b6000602082019050818103600083015261372781846133d2565b905092915050565b6000604082019050818103600083015261374981856133d2565b905061375860208301846132fb565b9392505050565b6000604082019050818103600083015261377981856133d2565b90506137886020830184613681565b9392505050565b600060208201905081810360008301526137a88161340b565b9050919050565b600060208201905081810360008301526137c88161342e565b9050919050565b600060208201905081810360008301526137e881613451565b9050919050565b6000602082019050818103600083015261380881613474565b9050919050565b6000602082019050818103600083015261382881613497565b9050919050565b60006020820190508181036000830152613848816134ba565b9050919050565b60006020820190508181036000830152613868816134dd565b9050919050565b6000602082019050818103600083015261388881613500565b9050919050565b600060208201905081810360008301526138a881613523565b9050919050565b600060208201905081810360008301526138c881613546565b9050919050565b600060208201905081810360008301526138e881613569565b9050919050565b600060208201905081810360008301526139088161358c565b9050919050565b60006020820190508181036000830152613928816135af565b9050919050565b60006020820190508181036000830152613948816135d2565b9050919050565b60006020820190508181036000830152613968816135f5565b9050919050565b6000602082019050818103600083015261398881613618565b9050919050565b600060208201905081810360008301526139a88161363b565b9050919050565b600060208201905081810360008301526139c88161365e565b9050919050565b60006040820190506139e46000830185613681565b6139f160208301846132fb565b9392505050565b6000608082019050613a0d6000830187613681565b613a1a6020830186613681565b613a2760408301856132fb565b8181036060830152613a398184613368565b905095945050505050565b6000613a4e613a5f565b9050613a5a8282613ccb565b919050565b6000604051905090565b600067ffffffffffffffff821115613a8457613a83613da3565b5b602082029050602081019050919050565b6000819050602082019050919050565b600081519050919050565b600081519050919050565b600081519050919050565b6000602082019050919050565b600082825260208201905092915050565b600082825260208201905092915050565b600081905092915050565b600082825260208201905092915050565b6000613b1c82613c7e565b9150613b2783613c7e565b9250827fffffffffffffffffffffffffffffffffffffffffffffffffffffffffffffffff03821115613b5c57613b5b613d45565b5b828201905092915050565b6000613b7282613c7e565b9150613b7d83613c7e565b925082613b8d57613b8c613d74565b5b828204905092915050565b6000613ba382613c7e565b9150613bae83613c7e565b9250817fffffffffffffffffffffffffffffffffffffffffffffffffffffffffffffffff0483118215151615613be757613be6613d45565b5b828202905092915050565b6000613bfd82613c7e565b9150613c0883613c7e565b925082821015613c1b57613c1a613d45565b5b828203905092915050565b6000613c3182613c5e565b9050919050565b60008115159050919050565b60006dffffffffffffffffffffffffffff82169050919050565b600073ffffffffffffffffffffffffffffffffffffffff82169050919050565b6000819050919050565b600063ffffffff82169050919050565b60005b83811015613cb6578082015181840152602081019050613c9b565b83811115613cc5576000848401525b50505050565b613cd482613df4565b810181811067ffffffffffffffff82111715613cf357613cf2613da3565b5b80604052505050565b6000613d0782613c7e565b91507fffffffffffffffffffffffffffffffffffffffffffffffffffffffffffffffff821415613d3a57613d39613d45565b5b600182019050919050565b7f4e487b7100000000000000000000000000000000000000000000000000000000600052601160045260246000fd5b7f4e487b7100000000000000000000000000000000000000000000000000000000600052601260045260246000fd5b7f4e487b7100000000000000000000000000000000000000000000000000000000600052604160045260246000fd5b600060033d1115613df15760046000803e613dee600051613e05565b90505b90565b6000601f19601f8301169050919050565b60008160e01c9050919050565b7f424f543a2053616d652070616972206164647265737300000000000000000000600082015250565b7f4f776e61626c653a206e6577206f776e657220697320746865207a65726f206160008201527f6464726573730000000000000000000000000000000000000000000000000000602082015250565b7f64732d6d6174682d6d756c2d6f766572666c6f77000000000000000000000000600082015250565b7f64732d6d6174682d6164642d6f766572666c6f77000000000000000000000000600082015250565b7f424f543a204e6f6e207374616e6461726420756e697377617020414d4d20706160008201527f6972000000000000000000000000000000000000000000000000000000000000602082015250565b7f424f543a20556e697377617056324c6962726172793a20494e5355464649434960008201527f454e545f4c495155494449545900000000000000000000000000000000000000602082015250565b7f416464726573733a20696e73756666696369656e742062616c616e636520666f60008201527f722063616c6c0000000000000000000000000000000000000000000000000000602082015250565b7f496e697469616c697a61626c653a20636f6e747261637420697320616c72656160008201527f647920696e697469616c697a6564000000000000000000000000000000000000602082015250565b7f536166654d6174683a206d756c7469706c69636174696f6e206f766572666c6f60008201527f7700000000000000000000000000000000000000000000000000000000000000602082015250565b7f4f776e61626c653a2063616c6c6572206973206e6f7420746865206f776e6572600082015250565b7f424f543a204c6f73696e67206d6f6e6579000000000000000000000000000000600082015250565b7f424f543a204e6f206261736520746f6b656e20696e2070616972000000000000600082015250565b7f424f543a20526571756972652073616d6520746f6b656e207061697200000000600082015250565b7f424f543a20556e697377617056324c6962726172793a20494e5355464649434960008201527f454e545f494e5055545f414d4f554e5400000000000000000000000000000000602082015250565b7f424f543a20417262697472616765206661696c2c206e6f2070726f6669740000600082015250565b7f416464726573733a2063616c6c20746f206e6f6e2d636f6e7472616374000000600082015250565b7f424f543a204e6f7420656e6f756768206261736520746f6b656e2062616c616e60008201527f6365000000000000000000000000000000000000000000000000000000000000602082015250565b7f5361666545524332303a204552433230206f7065726174696f6e20646964206e60008201527f6f74207375636365656400000000000000000000000000000000000000000000602082015250565b600060443d101561425a576142dd565b614262613a5f565b60043d036004823e80513d602482011167ffffffffffffffff8211171561428a5750506142dd565b808201805167ffffffffffffffff8111156142a857505050506142dd565b80602083010160043d0385018111156142c55750505050506142dd565b6142d482602001850186613ccb565b82955050505050505b90565b6142e981613c26565b81146142f457600080fd5b50565b61430081613c38565b811461430b57600080fd5b50565b61431781613c44565b811461432257600080fd5b50565b61432e81613c7e565b811461433957600080fd5b50565b61434581613c88565b811461435057600080fd5b5056fea2646970667358221220dda2135380ffb897bd4b5668d415b5bcd421b65848a2aa3e9d25bc6a236d634a64736f6c63430008040033",
  "devdoc": {
    "kind": "dev",
    "methods": {
      "flashArbitrage(address,address)": {
        "details": "Two pools must contains same token pair"
      },
      "getOwner()": {
        "details": "Returns the address of the current owner."
      },
      "initOwner(address)": {
        "details": "for proxy / initializer"
      },
      "transferContractOwnership(address)": {
        "details": "Transfers ownership of the contract to a new account (`newOwner`). Can only be called by the current owner."
      }
    },
    "version": 1
  },
  "userdoc": {
    "kind": "user",
    "methods": {
      "flashArbitrage(address,address)": {
        "notice": "Do an arbitrage between two Uniswap-like AMM pools"
      },
      "getProfit(address,address)": {
        "notice": "Calculate how much profit we can by arbitraging between two pools"
      }
    },
    "version": 1
  },
  "storageLayout": {
    "storage": [
      {
        "astId": 3134,
        "contract": "contracts/FlashBot.sol:FlashBot",
        "label": "_contractOwner",
        "offset": 0,
        "slot": "0",
        "type": "t_address"
      },
      {
        "astId": 5,
        "contract": "contracts/FlashBot.sol:FlashBot",
        "label": "_initialized",
        "offset": 20,
        "slot": "0",
        "type": "t_bool"
      },
      {
        "astId": 8,
        "contract": "contracts/FlashBot.sol:FlashBot",
        "label": "_initializing",
        "offset": 21,
        "slot": "0",
        "type": "t_bool"
      },
      {
        "astId": 1912,
        "contract": "contracts/FlashBot.sol:FlashBot",
        "label": "WETH",
        "offset": 0,
        "slot": "1",
        "type": "t_address"
      },
      {
        "astId": 1915,
        "contract": "contracts/FlashBot.sol:FlashBot",
        "label": "baseTokens",
        "offset": 0,
        "slot": "2",
        "type": "t_struct(AddressSet)1549_storage"
      }
    ],
    "types": {
      "t_address": {
        "encoding": "inplace",
        "label": "address",
        "numberOfBytes": "20"
      },
      "t_array(t_bytes32)dyn_storage": {
        "base": "t_bytes32",
        "encoding": "dynamic_array",
        "label": "bytes32[]",
        "numberOfBytes": "32"
      },
      "t_bool": {
        "encoding": "inplace",
        "label": "bool",
        "numberOfBytes": "1"
      },
      "t_bytes32": {
        "encoding": "inplace",
        "label": "bytes32",
        "numberOfBytes": "32"
      },
      "t_mapping(t_bytes32,t_uint256)": {
        "encoding": "mapping",
        "key": "t_bytes32",
        "label": "mapping(bytes32 => uint256)",
        "numberOfBytes": "32",
        "value": "t_uint256"
      },
      "t_struct(AddressSet)1549_storage": {
        "encoding": "inplace",
        "label": "struct EnumerableSet.AddressSet",
        "members": [
          {
            "astId": 1548,
            "contract": "contracts/FlashBot.sol:FlashBot",
            "label": "_inner",
            "offset": 0,
            "slot": "0",
            "type": "t_struct(Set)1248_storage"
          }
        ],
        "numberOfBytes": "64"
      },
      "t_struct(Set)1248_storage": {
        "encoding": "inplace",
        "label": "struct EnumerableSet.Set",
        "members": [
          {
            "astId": 1243,
            "contract": "contracts/FlashBot.sol:FlashBot",
            "label": "_values",
            "offset": 0,
            "slot": "0",
            "type": "t_array(t_bytes32)dyn_storage"
          },
          {
            "astId": 1247,
            "contract": "contracts/FlashBot.sol:FlashBot",
            "label": "_indexes",
            "offset": 0,
            "slot": "1",
            "type": "t_mapping(t_bytes32,t_uint256)"
          }
        ],
        "numberOfBytes": "64"
      },
      "t_uint256": {
        "encoding": "inplace",
        "label": "uint256",
        "numberOfBytes": "32"
      }
    }
  }
}