{
  "address": "0xc44dd29c9417ec04a7fa2EeD3227d4051814ABe5",
  "abi": [
    {
      "inputs": [
        {
          "internalType": "address",
          "name": "_WETH",
          "type": "address"
        },
        {
          "internalType": "address[]",
          "name": "_baseTokens",
          "type": "address[]"
        }
      ],
      "stateMutability": "nonpayable",
      "type": "constructor"
    },
    {
      "anonymous": false,
      "inputs": [
        {
          "indexed": true,
          "internalType": "address",
          "name": "token",
          "type": "address"
        }
      ],
      "name": "BaseTokenAdded",
      "type": "event"
    },
    {
      "anonymous": false,
      "inputs": [
        {
          "indexed": true,
          "internalType": "address",
          "name": "token",
          "type": "address"
        }
      ],
      "name": "BaseTokenRemoved",
      "type": "event"
    },
    {
      "anonymous": false,
      "inputs": [
        {
          "indexed": true,
          "internalType": "address",
          "name": "previousOwner",
          "type": "address"
        },
        {
          "indexed": true,
          "internalType": "address",
          "name": "newOwner",
          "type": "address"
        }
      ],
      "name": "OwnershipTransferred",
      "type": "event"
    },
    {
      "anonymous": false,
      "inputs": [
        {
          "indexed": true,
          "internalType": "address",
          "name": "base",
          "type": "address"
        },
        {
          "indexed": true,
          "internalType": "address",
          "name": "quote",
          "type": "address"
        },
        {
          "indexed": false,
          "internalType": "uint256",
          "name": "profit",
          "type": "uint256"
        }
      ],
      "name": "Profit",
      "type": "event"
    },
    {
      "anonymous": false,
      "inputs": [
        {
          "indexed": true,
          "internalType": "address",
          "name": "to",
          "type": "address"
        },
        {
          "indexed": true,
          "internalType": "uint256",
          "name": "value",
          "type": "uint256"
        }
      ],
      "name": "Withdrawn",
      "type": "event"
    },
    {
      "inputs": [],
      "name": "WETH",
      "outputs": [
        {
          "internalType": "address",
          "name": "",
          "type": "address"
        }
      ],
      "stateMutability": "view",
      "type": "function"
    },
    {
      "inputs": [
        {
          "internalType": "address",
          "name": "token",
          "type": "address"
        }
      ],
      "name": "addBaseToken",
      "outputs": [],
      "stateMutability": "nonpayable",
      "type": "function"
    },
    {
      "inputs": [],
      "name": "getBaseTokens",
      "outputs": [
        {
          "internalType": "address[]",
          "name": "tokens",
          "type": "address[]"
        }
      ],
      "stateMutability": "view",
      "type": "function"
    },
    {
      "inputs": [],
      "name": "getOwner",
      "outputs": [
        {
          "internalType": "address",
          "name": "",
          "type": "address"
        }
      ],
      "stateMutability": "view",
      "type": "function"
    },
    {
      "inputs": [
        {
          "internalType": "address",
          "name": "pool0",
          "type": "address"
        },
        {
          "internalType": "address",
          "name": "pool1",
          "type": "address"
        }
      ],
      "name": "getProfit",
      "outputs": [
        {
          "internalType": "uint256",
          "name": "profit",
          "type": "uint256"
        },
        {
          "internalType": "address",
          "name": "baseToken",
          "type": "address"
        }
      ],
      "stateMutability": "view",
      "type": "function"
    },
    {
      "inputs": [
        {
          "internalType": "address",
          "name": "newOwner",
          "type": "address"
        }
      ],
      "name": "initOwner",
      "outputs": [],
      "stateMutability": "nonpayable",
      "type": "function"
    },
    {
      "inputs": [
        {
          "internalType": "address",
          "name": "_WETH",
          "type": "address"
        },
        {
          "internalType": "address[]",
          "name": "_baseTokens",
          "type": "address[]"
        }
      ],
      "name": "initialize",
      "outputs": [],
      "stateMutability": "nonpayable",
      "type": "function"
    },
    {
      "inputs": [
        {
          "internalType": "address",
          "name": "token",
          "type": "address"
        }
      ],
      "name": "removeBaseToken",
      "outputs": [],
      "stateMutability": "nonpayable",
      "type": "function"
    },
    {
      "inputs": [
        {
          "internalType": "address",
          "name": "pool0",
          "type": "address"
        },
        {
          "internalType": "address",
          "name": "pool1",
          "type": "address"
        }
      ],
      "name": "swap",
      "outputs": [
        {
          "internalType": "bool",
          "name": "",
          "type": "bool"
        }
      ],
      "stateMutability": "nonpayable",
      "type": "function"
    },
    {
      "inputs": [
        {
          "internalType": "address",
          "name": "newOwner",
          "type": "address"
        }
      ],
      "name": "transferContractOwnership",
      "outputs": [],
      "stateMutability": "nonpayable",
      "type": "function"
    },
    {
      "inputs": [
        {
          "internalType": "address",
          "name": "token",
          "type": "address"
        },
        {
          "internalType": "uint256",
          "name": "amount",
          "type": "uint256"
        }
      ],
      "name": "withdraw",
      "outputs": [],
      "stateMutability": "nonpayable",
      "type": "function"
    },
    {
      "inputs": [],
      "name": "withdrawAll",
      "outputs": [],
      "stateMutability": "nonpayable",
      "type": "function"
    },
    {
      "stateMutability": "payable",
      "type": "receive"
    }
  ],
  "transactionHash": "0xe975df6ddf6ec7f5898793a30d3c042ba528209b2fad1b9db4af8deb6543f68b",
  "args": [
    "0x0d500B1d8E8eF31E21C99d1Db9A6444d3ADf1270",
    [
      "0x2791Bca1f2de4661ED88A30C99A7a9449Aa84174",
      "0xc2132D05D31c914a87C6611C10748AEb04B58e8F"
    ]
  ],
  "solcInputHash": "c1c045b9d3032b41a2cb118a2d52fb33",
  "bytecode": "0x60806040523480156200001157600080fd5b5060405162004edf38038062004edf833981810160405281019062000037919062000668565b620000576200004b6200007160201b60201c565b6200007960201b60201c565b6200006982826200013d60201b60201c565b5050620008e8565b600033905090565b60008060009054906101000a900473ffffffffffffffffffffffffffffffffffffffff169050816000806101000a81548173ffffffffffffffffffffffffffffffffffffffff021916908373ffffffffffffffffffffffffffffffffffffffff1602179055508173ffffffffffffffffffffffffffffffffffffffff168173ffffffffffffffffffffffffffffffffffffffff167f8be0079c531659141344cd1fd0a4f28419497f9722a3daafe3b4186f6b6457e060405160405180910390a35050565b600073ffffffffffffffffffffffffffffffffffffffff16620001656200007160201b60201c565b73ffffffffffffffffffffffffffffffffffffffff161462000187576200027b565b620001a76200019b6200007160201b60201c565b6200027f60201b60201c565b81600160006101000a81548173ffffffffffffffffffffffffffffffffffffffff021916908373ffffffffffffffffffffffffffffffffffffffff160217905550620002038260026200037960201b62001c051790919060201c565b5060005b81518110156200027957620002638282815181106200024f577f4e487b7100000000000000000000000000000000000000000000000000000000600052603260045260246000fd5b6020026020010151620003b160201b60201c565b80806200027090620007e8565b91505062000207565b505b5050565b600073ffffffffffffffffffffffffffffffffffffffff1660008054906101000a900473ffffffffffffffffffffffffffffffffffffffff1673ffffffffffffffffffffffffffffffffffffffff1614620002da5762000376565b806000806101000a81548173ffffffffffffffffffffffffffffffffffffffff021916908373ffffffffffffffffffffffffffffffffffffffff1602179055508073ffffffffffffffffffffffffffffffffffffffff16600073ffffffffffffffffffffffffffffffffffffffff167f8be0079c531659141344cd1fd0a4f28419497f9722a3daafe3b4186f6b6457e060405160405180910390a35b50565b6000620003a9836000018373ffffffffffffffffffffffffffffffffffffffff1660001b620004e960201b60201c565b905092915050565b620003c16200007160201b60201c565b73ffffffffffffffffffffffffffffffffffffffff16620003e76200056360201b60201c565b73ffffffffffffffffffffffffffffffffffffffff161480620004455750600073ffffffffffffffffffffffffffffffffffffffff166200042d6200056360201b60201c565b73ffffffffffffffffffffffffffffffffffffffff16145b62000487576040517f08c379a00000000000000000000000000000000000000000000000000000000081526004016200047e90620006e9565b60405180910390fd5b620004a28160026200037960201b62001c051790919060201c565b508073ffffffffffffffffffffffffffffffffffffffff167ffa1388d6e7328e9c711a539b0addfc27de8bfb6f5924cce26f80f41023b1525360405160405180910390a250565b6000620004fd83836200058c60201b60201c565b620005585782600001829080600181540180825580915050600190039060005260206000200160009091909190915055826000018054905083600101600084815260200190815260200160002081905550600190506200055d565b600090505b92915050565b60008060009054906101000a900473ffffffffffffffffffffffffffffffffffffffff16905090565b600080836001016000848152602001908152602001600020541415905092915050565b6000620005c6620005c08462000734565b6200070b565b90508083825260208201905082856020860282011115620005e657600080fd5b60005b858110156200061a5781620005ff888262000624565b845260208401935060208301925050600181019050620005e9565b5050509392505050565b6000815190506200063581620008ce565b92915050565b600082601f8301126200064d57600080fd5b81516200065f848260208601620005af565b91505092915050565b600080604083850312156200067c57600080fd5b60006200068c8582860162000624565b925050602083015167ffffffffffffffff811115620006aa57600080fd5b620006b8858286016200063b565b9150509250929050565b6000620006d160208362000763565b9150620006de82620008a5565b602082019050919050565b600060208201905081810360008301526200070481620006c2565b9050919050565b6000620007176200072a565b9050620007258282620007b2565b919050565b6000604051905090565b600067ffffffffffffffff82111562000752576200075162000865565b5b602082029050602081019050919050565b600082825260208201905092915050565b6000620007818262000788565b9050919050565b600073ffffffffffffffffffffffffffffffffffffffff82169050919050565b6000819050919050565b620007bd8262000894565b810181811067ffffffffffffffff82111715620007df57620007de62000865565b5b80604052505050565b6000620007f582620007a8565b91507fffffffffffffffffffffffffffffffffffffffffffffffffffffffffffffffff8214156200082b576200082a62000836565b5b600182019050919050565b7f4e487b7100000000000000000000000000000000000000000000000000000000600052601160045260246000fd5b7f4e487b7100000000000000000000000000000000000000000000000000000000600052604160045260246000fd5b6000601f19601f8301169050919050565b7f4f776e61626c653a2063616c6c6572206973206e6f7420746865206f776e6572600082015250565b620008d98162000774565b8114620008e557600080fd5b50565b6145e780620008f86000396000f3fe6080604052600436106100ab5760003560e01c8063946d920411610064578063946d9204146101c6578063a843c51f146101ef578063ad5c464814610218578063bbd1e12214610243578063bed64c2f1461026c578063f3fef3a314610297576100b2565b80630d009297146100b75780636b76484e146100e0578063759eee101461011d57806383e280d91461015b578063853828b614610184578063893d20e81461019b576100b2565b366100b257005b600080fd5b3480156100c357600080fd5b506100de60048036038101906100d991906133c0565b6102c0565b005b3480156100ec57600080fd5b5061010760048036038101906101029190613412565b6103b8565b60405161011491906139a4565b60405180910390f35b34801561012957600080fd5b50610144600480360381019061013f9190613412565b610ce7565b604051610152929190613c7c565b60405180910390f35b34801561016757600080fd5b50610182600480360381019061017d91906133c0565b610f97565b005b34801561019057600080fd5b506101996110ac565b005b3480156101a757600080fd5b506101b061137c565b6040516101bd919061393e565b60405180910390f35b3480156101d257600080fd5b506101ed60048036038101906101e8919061344e565b6113a5565b005b3480156101fb57600080fd5b50610216600480360381019061021191906133c0565b6114b9565b005b34801561022457600080fd5b5061022d6115ef565b60405161023a919061393e565b60405180910390f35b34801561024f57600080fd5b5061026a600480360381019061026591906133c0565b611615565b005b34801561027857600080fd5b50610281611857565b60405161028e9190613982565b60405180910390f35b3480156102a357600080fd5b506102be60048036038101906102b991906134a2565b611982565b005b600073ffffffffffffffffffffffffffffffffffffffff1660008054906101000a900473ffffffffffffffffffffffffffffffffffffffff1673ffffffffffffffffffffffffffffffffffffffff1614610319576103b5565b806000806101000a81548173ffffffffffffffffffffffffffffffffffffffff021916908373ffffffffffffffffffffffffffffffffffffffff1602179055508073ffffffffffffffffffffffffffffffffffffffff16600073ffffffffffffffffffffffffffffffffffffffff167f8be0079c531659141344cd1fd0a4f28419497f9722a3daafe3b4186f6b6457e060405160405180910390a35b50565b60006103c26131d3565b6103cc8484611c35565b8360400184600001856020018373ffffffffffffffffffffffffffffffffffffffff1673ffffffffffffffffffffffffffffffffffffffff168152508373ffffffffffffffffffffffffffffffffffffffff1673ffffffffffffffffffffffffffffffffffffffff16815250831515151581525050505061044b61325c565b61045a858584604001516120a4565b84606001856080018295508373ffffffffffffffffffffffffffffffffffffffff1673ffffffffffffffffffffffffffffffffffffffff168152508373ffffffffffffffffffffffffffffffffffffffff1673ffffffffffffffffffffffffffffffffffffffff168152505050506000826000015173ffffffffffffffffffffffffffffffffffffffff166370a08231306040518263ffffffff1660e01b8152600401610507919061393e565b60206040518083038186803b15801561051f57600080fd5b505afa158015610533573d6000803e3d6000fd5b505050506040513d601f19601f820116820180604052508101906105579190613556565b90506105986040518060400160405280600e81526020017f2d62616c616e63654265666f7265000000000000000000000000000000000000815250826123a6565b60006105a78460600151612442565b90506105e86040518060400160405280600581526020017f2d66656531000000000000000000000000000000000000000000000000000000815250826123a6565b600082905061062c6040518060400160405280600c81526020017f2d7374617274416d6f756e740000000000000000000000000000000000000000815250826123a6565b6000610642828660000151876020015186612601565b90506106836040518060400160405280600f81526020017f2d71756f74654f7574416d6f756e740000000000000000000000000000000000815250826123a6565b60006106928760800151612442565b90506106d36040518060400160405280600581526020017f2d66656532000000000000000000000000000000000000000000000000000000815250826123a6565b60006106e9838860600151896040015185612601565b905061072a6040518060400160405280600e81526020017f2d626173654f7574416d6f756e74000000000000000000000000000000000000815250826123a6565b83811161076c576040517f08c379a000000000000000000000000000000000000000000000000000000000815260040161076390613be1565b60405180910390fd5b6107b66040518060400160405280601281526020017f2d657374696d617465642070726f6669743a000000000000000000000000000081525085836107b19190613e9f565b6123a6565b858411156107f9576040517f08c379a00000000000000000000000000000000000000000000000000000000081526004016107f090613c21565b60405180910390fd5b61082c8860600151858a6000015173ffffffffffffffffffffffffffffffffffffffff166127139092919063ffffffff16565b600080896040015161084057846000610844565b6000855b915091506108578a606001518383612799565b61086e5760009a5050505050505050505050610ce1565b60008a6020015173ffffffffffffffffffffffffffffffffffffffff166370a08231306040518263ffffffff1660e01b81526004016108ad919061393e565b60206040518083038186803b1580156108c557600080fd5b505afa1580156108d9573d6000803e3d6000fd5b505050506040513d601f19601f820116820180604052508101906108fd9190613556565b905061093e6040518060400160405280600b81526020017f2d6f757442616c616e6365000000000000000000000000000000000000000000815250826123a6565b85811061094b578561094d565b805b955061098e6040518060400160405280600f81526020017f2d71756f74654f7574416d6f756e740000000000000000000000000000000000815250876123a6565b6109c18b60800151878d6020015173ffffffffffffffffffffffffffffffffffffffff166127139092919063ffffffff16565b6109d5868b606001518c6040015188612601565b9350610a166040518060400160405280600e81526020017f2d626173654f7574416d6f756e74000000000000000000000000000000000000815250856123a6565b6000808c60400151610a2a57600086610a2e565b8560005b91509150610a418d608001518383612799565b610a5b5760009d5050505050505050505050505050610ce1565b505050505050505050506000836000015173ffffffffffffffffffffffffffffffffffffffff166370a08231306040518263ffffffff1660e01b8152600401610aa4919061393e565b60206040518083038186803b158015610abc57600080fd5b505afa158015610ad0573d6000803e3d6000fd5b505050506040513d601f19601f82011682018060405250810190610af49190613556565b9050610b356040518060400160405280600d81526020017f2d62616c616e6365416674657200000000000000000000000000000000000000815250826123a6565b818111610b77576040517f08c379a0000000000000000000000000000000000000000000000000000000008152600401610b6e90613b61565b60405180910390fd5b60008282610b859190613e9f565b9050610bd16040518060400160405280601081526020017f2d72656365697665642070726f666974000000000000000000000000000000008152508484610bcc9190613e9f565b6123a6565b846000015173ffffffffffffffffffffffffffffffffffffffff1663a9059cbb610bf961137c565b836040518363ffffffff1660e01b8152600401610c17929190613959565b602060405180830381600087803b158015610c3157600080fd5b505af1158015610c45573d6000803e3d6000fd5b505050506040513d601f19601f82011682018060405250810190610c6991906134de565b50846020015173ffffffffffffffffffffffffffffffffffffffff16856000015173ffffffffffffffffffffffffffffffffffffffff167f927ca72beeafa042127c9b97483d6b6f5ada2790237a7b3310232cab8888ac2783604051610ccf9190613c61565b60405180910390a36001955050505050505b92915050565b600080600080610cf78686611c35565b50915091508092506000806000610d0f8989876120a4565b92509250925060008673ffffffffffffffffffffffffffffffffffffffff166370a08231306040518263ffffffff1660e01b8152600401610d50919061393e565b60206040518083038186803b158015610d6857600080fd5b505afa158015610d7c573d6000803e3d6000fd5b505050506040513d601f19601f82011682018060405250810190610da09190613556565b9050610de16040518060400160405280601081526020017f2b626173655374617274416d6f756e7400000000000000000000000000000000815250826123a6565b6000610dec85612442565b9050610e2d6040518060400160405280600581526020017f2b66656531000000000000000000000000000000000000000000000000000000815250826123a6565b6000610e43838560000151866020015185612601565b9050610e846040518060400160405280600f81526020017f2b71756f74654f7574416d6f756e740000000000000000000000000000000000815250826123a6565b6000610e8f86612442565b9050610ed06040518060400160405280600581526020017f2b66656532000000000000000000000000000000000000000000000000000000815250826123a6565b6000610ee6838760600151886040015185612601565b9050610f276040518060400160405280600e81526020017f2b626173654f7574416d6f756e74000000000000000000000000000000000000815250826123a6565b84811015610f385760009b50610f86565b8481610f449190613e9f565b9b50610f856040518060400160405280600781526020017f2b70726f666974000000000000000000000000000000000000000000000000008152508d6123a6565b5b505050505050505050509250929050565b610f9f61281a565b73ffffffffffffffffffffffffffffffffffffffff16610fbd61137c565b73ffffffffffffffffffffffffffffffffffffffff1614806110125750600073ffffffffffffffffffffffffffffffffffffffff16610ffa61137c565b73ffffffffffffffffffffffffffffffffffffffff16145b611051576040517f08c379a000000000000000000000000000000000000000000000000000000000815260040161104890613b41565b60405180910390fd5b611065816002611c0590919063ffffffff16565b508073ffffffffffffffffffffffffffffffffffffffff167ffa1388d6e7328e9c711a539b0addfc27de8bfb6f5924cce26f80f41023b1525360405160405180910390a250565b6110b461281a565b73ffffffffffffffffffffffffffffffffffffffff166110d261137c565b73ffffffffffffffffffffffffffffffffffffffff1614806111275750600073ffffffffffffffffffffffffffffffffffffffff1661110f61137c565b73ffffffffffffffffffffffffffffffffffffffff16145b611166576040517f08c379a000000000000000000000000000000000000000000000000000000000815260040161115d90613b41565b60405180910390fd5b6000479050600081111561120e5761117c61137c565b73ffffffffffffffffffffffffffffffffffffffff166108fc829081150290604051600060405180830381858888f193505050501580156111c1573d6000803e3d6000fd5b50806111cb61137c565b73ffffffffffffffffffffffffffffffffffffffff167f7084f5476618d8e60b11ef0d7d3f06914655adb8793e28ff7f018d4c76d505d560405160405180910390a35b60005b61121b6002612822565b81101561137857600061123882600261283790919063ffffffff16565b90508073ffffffffffffffffffffffffffffffffffffffff166370a08231306040518263ffffffff1660e01b8152600401611273919061393e565b60206040518083038186803b15801561128b57600080fd5b505afa15801561129f573d6000803e3d6000fd5b505050506040513d601f19601f820116820180604052508101906112c39190613556565b92506000831115611364578073ffffffffffffffffffffffffffffffffffffffff1663a9059cbb6112f261137c565b856040518363ffffffff1660e01b8152600401611310929190613959565b602060405180830381600087803b15801561132a57600080fd5b505af115801561133e573d6000803e3d6000fd5b505050506040513d601f19601f8201168201806040525081019061136291906134de565b505b50808061137090613fa9565b915050611211565b5050565b60008060009054906101000a900473ffffffffffffffffffffffffffffffffffffffff16905090565b600073ffffffffffffffffffffffffffffffffffffffff166113c561281a565b73ffffffffffffffffffffffffffffffffffffffff16146113e5576114b5565b6113f56113f061281a565b6102c0565b81600160006101000a81548173ffffffffffffffffffffffffffffffffffffffff021916908373ffffffffffffffffffffffffffffffffffffffff16021790555061144a826002611c0590919063ffffffff16565b5060005b81518110156114b3576114a0828281518110611493577f4e487b7100000000000000000000000000000000000000000000000000000000600052603260045260246000fd5b6020026020010151610f97565b80806114ab90613fa9565b91505061144e565b505b5050565b6114c161281a565b73ffffffffffffffffffffffffffffffffffffffff166114df61137c565b73ffffffffffffffffffffffffffffffffffffffff1614806115345750600073ffffffffffffffffffffffffffffffffffffffff1661151c61137c565b73ffffffffffffffffffffffffffffffffffffffff16145b611573576040517f08c379a000000000000000000000000000000000000000000000000000000000815260040161156a90613b41565b60405180910390fd5b600073ffffffffffffffffffffffffffffffffffffffff168173ffffffffffffffffffffffffffffffffffffffff1614156115e3576040517f08c379a00000000000000000000000000000000000000000000000000000000081526004016115da90613a61565b60405180910390fd5b6115ec81612851565b50565b600160009054906101000a900473ffffffffffffffffffffffffffffffffffffffff1681565b61161d61281a565b73ffffffffffffffffffffffffffffffffffffffff1661163b61137c565b73ffffffffffffffffffffffffffffffffffffffff1614806116905750600073ffffffffffffffffffffffffffffffffffffffff1661167861137c565b73ffffffffffffffffffffffffffffffffffffffff16145b6116cf576040517f08c379a00000000000000000000000000000000000000000000000000000000081526004016116c690613b41565b60405180910390fd5b60008173ffffffffffffffffffffffffffffffffffffffff166370a08231306040518263ffffffff1660e01b815260040161170a919061393e565b60206040518083038186803b15801561172257600080fd5b505afa158015611736573d6000803e3d6000fd5b505050506040513d601f19601f8201168201806040525081019061175a9190613556565b905060008111156117fb578173ffffffffffffffffffffffffffffffffffffffff1663a9059cbb61178961137c565b836040518363ffffffff1660e01b81526004016117a7929190613959565b602060405180830381600087803b1580156117c157600080fd5b505af11580156117d5573d6000803e3d6000fd5b505050506040513d601f19601f820116820180604052508101906117f991906134de565b505b61180f82600261291590919063ffffffff16565b508173ffffffffffffffffffffffffffffffffffffffff167fdc23a849435922f20a9732eb85192a9d0c1cb34725ebe6d7de0be10212ba02fb60405160405180910390a25050565b606060006118656002612822565b90508067ffffffffffffffff8111156118a7577f4e487b7100000000000000000000000000000000000000000000000000000000600052604160045260246000fd5b6040519080825280602002602001820160405280156118d55781602001602082028036833780820191505090505b50915060005b8181101561197d576118f781600261283790919063ffffffff16565b838281518110611930577f4e487b7100000000000000000000000000000000000000000000000000000000600052603260045260246000fd5b602002602001019073ffffffffffffffffffffffffffffffffffffffff16908173ffffffffffffffffffffffffffffffffffffffff1681525050808061197590613fa9565b9150506118db565b505090565b61198a61281a565b73ffffffffffffffffffffffffffffffffffffffff166119a861137c565b73ffffffffffffffffffffffffffffffffffffffff1614806119fd5750600073ffffffffffffffffffffffffffffffffffffffff166119e561137c565b73ffffffffffffffffffffffffffffffffffffffff16145b611a3c576040517f08c379a0000000000000000000000000000000000000000000000000000000008152600401611a3390613b41565b60405180910390fd5b60008273ffffffffffffffffffffffffffffffffffffffff166370a08231306040518263ffffffff1660e01b8152600401611a77919061393e565b60206040518083038186803b158015611a8f57600080fd5b505afa158015611aa3573d6000803e3d6000fd5b505050506040513d601f19601f82011682018060405250810190611ac79190613556565b9050818110611b6a578273ffffffffffffffffffffffffffffffffffffffff1663a9059cbb611af461137c565b846040518363ffffffff1660e01b8152600401611b12929190613959565b602060405180830381600087803b158015611b2c57600080fd5b505af1158015611b40573d6000803e3d6000fd5b505050506040513d601f19601f82011682018060405250810190611b6491906134de565b50611c00565b8273ffffffffffffffffffffffffffffffffffffffff1663a9059cbb611b8e61137c565b836040518363ffffffff1660e01b8152600401611bac929190613959565b602060405180830381600087803b158015611bc657600080fd5b505af1158015611bda573d6000803e3d6000fd5b505050506040513d601f19601f82011682018060405250810190611bfe91906134de565b505b505050565b6000611c2d836000018373ffffffffffffffffffffffffffffffffffffffff1660001b612945565b905092915050565b60008060008373ffffffffffffffffffffffffffffffffffffffff168573ffffffffffffffffffffffffffffffffffffffff161415611ca9576040517f08c379a0000000000000000000000000000000000000000000000000000000008152600401611ca090613a41565b60405180910390fd5b6000808673ffffffffffffffffffffffffffffffffffffffff16630dfe16816040518163ffffffff1660e01b815260040160206040518083038186803b158015611cf257600080fd5b505afa158015611d06573d6000803e3d6000fd5b505050506040513d601f19601f82011682018060405250810190611d2a91906133e9565b8773ffffffffffffffffffffffffffffffffffffffff1663d21220a76040518163ffffffff1660e01b815260040160206040518083038186803b158015611d7057600080fd5b505afa158015611d84573d6000803e3d6000fd5b505050506040513d601f19601f82011682018060405250810190611da891906133e9565b915091506000808773ffffffffffffffffffffffffffffffffffffffff16630dfe16816040518163ffffffff1660e01b815260040160206040518083038186803b158015611df557600080fd5b505afa158015611e09573d6000803e3d6000fd5b505050506040513d601f19601f82011682018060405250810190611e2d91906133e9565b8873ffffffffffffffffffffffffffffffffffffffff1663d21220a76040518163ffffffff1660e01b815260040160206040518083038186803b158015611e7357600080fd5b505afa158015611e87573d6000803e3d6000fd5b505050506040513d601f19601f82011682018060405250810190611eab91906133e9565b915091508273ffffffffffffffffffffffffffffffffffffffff168473ffffffffffffffffffffffffffffffffffffffff16108015611f1557508073ffffffffffffffffffffffffffffffffffffffff168273ffffffffffffffffffffffffffffffffffffffff16105b611f54576040517f08c379a0000000000000000000000000000000000000000000000000000000008152600401611f4b90613ac1565b60405180910390fd5b8173ffffffffffffffffffffffffffffffffffffffff168473ffffffffffffffffffffffffffffffffffffffff16148015611fba57508073ffffffffffffffffffffffffffffffffffffffff168373ffffffffffffffffffffffffffffffffffffffff16145b611ff9576040517f08c379a0000000000000000000000000000000000000000000000000000000008152600401611ff090613ba1565b60405180910390fd5b61200d8460026129b590919063ffffffff16565b8061202857506120278360026129b590919063ffffffff16565b5b612067576040517f08c379a000000000000000000000000000000000000000000000000000000000815260040161205e90613b81565b60405180910390fd5b61207b8460026129b590919063ffffffff16565b612088576000838561208d565b600184845b809750819850829950505050505050509250925092565b6000806120af61325c565b6000808773ffffffffffffffffffffffffffffffffffffffff16630902f1ac6040518163ffffffff1660e01b815260040160606040518083038186803b1580156120f857600080fd5b505afa15801561210c573d6000803e3d6000fd5b505050506040513d601f19601f820116820180604052508101906121309190613507565b506dffffffffffffffffffffffffffff1691506dffffffffffffffffffffffffffff1691506000808873ffffffffffffffffffffffffffffffffffffffff16630902f1ac6040518163ffffffff1660e01b815260040160606040518083038186803b15801561219e57600080fd5b505afa1580156121b2573d6000803e3d6000fd5b505050506040513d601f19601f820116820180604052508101906121d69190613507565b506dffffffffffffffffffffffffffff1691506dffffffffffffffffffffffffffff1691506000808961223e5761221e86612210876129e5565b612a1d90919063ffffffff16565b6122398561222b866129e5565b612a1d90919063ffffffff16565b612275565b6122598561224b886129e5565b612a1d90919063ffffffff16565b61227484612266876129e5565b612a1d90919063ffffffff16565b5b9150915061228c8183612a5290919063ffffffff16565b156122d7578b8b809950819a505050896122a957848684866122ae565b858585855b8a6000018b6020018c6040018d6060018481525084815250848152508481525050505050612319565b8a8c809950819a505050896122ef57828486886122f4565b838387875b8a6000018b6020018c6040018d60600184815250848152508481525084815250505050505b6123586040518060400160405280600f81526020017f2d4275792066726f6d20706f6f6c3a00000000000000000000000000000000008152508a612a68565b6123976040518060400160405280600f81526020017f2d53656c6c2020746f20706f6f6c3a000000000000000000000000000000000081525089612a68565b50505050505093509350939050565b61243e82826040516024016123bc929190613a11565b6040516020818303038152906040527f9710a9d0000000000000000000000000000000000000000000000000000000007bffffffffffffffffffffffffffffffffffffffffffffffffffffffff19166020820180517bffffffffffffffffffffffffffffffffffffffffffffffffffffffff8381831617835250505050612b04565b5050565b600073684d8c187be836171a1af8d533e472489303182873ffffffffffffffffffffffffffffffffffffffff168273ffffffffffffffffffffffffffffffffffffffff1663c45a01556040518163ffffffff1660e01b815260040160206040518083038186803b1580156124b557600080fd5b505afa1580156124c9573d6000803e3d6000fd5b505050506040513d601f19601f820116820180604052508101906124ed91906133e9565b73ffffffffffffffffffffffffffffffffffffffff1614156125f7578173ffffffffffffffffffffffffffffffffffffffff1663ddca3f436040518163ffffffff1660e01b815260040160206040518083038186803b15801561254f57600080fd5b505afa92505050801561258057506040513d601f19601f8201168201806040525081019061257d9190613556565b60015b6125ed5761258c61407f565b806308c379a014156125b257506125a16144a8565b806125ac57506125b4565b506125e8565b505b3d80600081146125e0576040519150601f19603f3d011682016040523d82523d6000602084013e6125e5565b606091505b50505b6125f6565b809150506125fc565b5b601e90505b919050565b6000808511612645576040517f08c379a000000000000000000000000000000000000000000000000000000000815260040161263c90613bc1565b60405180910390fd5b6000841180156126555750600083115b612694576040517f08c379a000000000000000000000000000000000000000000000000000000000815260040161268b90613ae1565b60405180910390fd5b60006126b6836127106126a79190613e9f565b87612b2d90919063ffffffff16565b905060006126cd8583612b2d90919063ffffffff16565b905060006126f8836126ea6127108a612b2d90919063ffffffff16565b612b9a90919063ffffffff16565b905080826127069190613e14565b9350505050949350505050565b6127948363a9059cbb60e01b8484604051602401612732929190613959565b604051602081830303815290604052907bffffffffffffffffffffffffffffffffffffffffffffffffffffffff19166020820180517bffffffffffffffffffffffffffffffffffffffffffffffffffffffff8381831617835250505050612bf3565b505050565b600060608473ffffffffffffffffffffffffffffffffffffffff1663022c0d9f858530856040518563ffffffff1660e01b81526004016127dc9493929190613ca5565b600060405180830381600087803b1580156127f657600080fd5b505af115801561280a573d6000803e3d6000fd5b5050505060019150509392505050565b600033905090565b600061283082600001612cba565b9050919050565b60006128468360000183612ccb565b60001c905092915050565b60008060009054906101000a900473ffffffffffffffffffffffffffffffffffffffff169050816000806101000a81548173ffffffffffffffffffffffffffffffffffffffff021916908373ffffffffffffffffffffffffffffffffffffffff1602179055508173ffffffffffffffffffffffffffffffffffffffff168173ffffffffffffffffffffffffffffffffffffffff167f8be0079c531659141344cd1fd0a4f28419497f9722a3daafe3b4186f6b6457e060405160405180910390a35050565b600061293d836000018373ffffffffffffffffffffffffffffffffffffffff1660001b612d1c565b905092915050565b60006129518383612ea2565b6129aa5782600001829080600181540180825580915050600190039060005260206000200160009091909190915055826000018054905083600101600084815260200190815260200160002081905550600190506129af565b600090505b92915050565b60006129dd836000018373ffffffffffffffffffffffffffffffffffffffff1660001b612ea2565b905092915050565b6129ed613284565b6040518060200160405280612a13670de0b6b3a764000085612ec590919063ffffffff16565b8152509050919050565b612a25613284565b6040518060200160405280612a47848660000151612f4090919063ffffffff16565b815250905092915050565b600080612a5f8484612f8a565b14905092915050565b612b008282604051602401612a7e9291906139e1565b6040516020818303038152906040527f319af333000000000000000000000000000000000000000000000000000000007bffffffffffffffffffffffffffffffffffffffffffffffffffffffff19166020820180517bffffffffffffffffffffffffffffffffffffffffffffffffffffffff8381831617835250505050612b04565b5050565b60008151905060006a636f6e736f6c652e6c6f679050602083016000808483855afa5050505050565b600080821480612b55575082828385612b469190613e45565b925082612b539190613e14565b145b612b94576040517f08c379a0000000000000000000000000000000000000000000000000000000008152600401612b8b90613a81565b60405180910390fd5b92915050565b6000828284612ba99190613dbe565b9150811015612bed576040517f08c379a0000000000000000000000000000000000000000000000000000000008152600401612be490613aa1565b60405180910390fd5b92915050565b6000612c55826040518060400160405280602081526020017f5361666545524332303a206c6f772d6c6576656c2063616c6c206661696c65648152508573ffffffffffffffffffffffffffffffffffffffff16612fca9092919063ffffffff16565b9050600081511115612cb55780806020019051810190612c7591906134de565b612cb4576040517f08c379a0000000000000000000000000000000000000000000000000000000008152600401612cab90613c41565b60405180910390fd5b5b505050565b600081600001805490509050919050565b6000826000018281548110612d09577f4e487b7100000000000000000000000000000000000000000000000000000000600052603260045260246000fd5b9060005260206000200154905092915050565b60008083600101600084815260200190815260200160002054905060008114612e96576000600182612d4e9190613e9f565b9050600060018660000180549050612d669190613e9f565b9050818114612e21576000866000018281548110612dad577f4e487b7100000000000000000000000000000000000000000000000000000000600052603260045260246000fd5b9060005260206000200154905080876000018481548110612df7577f4e487b7100000000000000000000000000000000000000000000000000000000600052603260045260246000fd5b90600052602060002001819055508387600101600083815260200190815260200160002081905550505b85600001805480612e5b577f4e487b7100000000000000000000000000000000000000000000000000000000600052603160045260246000fd5b600190038181906000526020600020016000905590558560010160008681526020019081526020016000206000905560019350505050612e9c565b60009150505b92915050565b600080836001016000848152602001908152602001600020541415905092915050565b600080831415612ed85760009050612f3a565b60008284612ee69190613e45565b9050828482612ef59190613e14565b14612f35576040517f08c379a0000000000000000000000000000000000000000000000000000000008152600401612f2c90613b21565b60405180910390fd5b809150505b92915050565b6000612f8283836040518060400160405280601a81526020017f536166654d6174683a206469766973696f6e206279207a65726f000000000000815250612fe2565b905092915050565b6000816000015183600001511415612fa55760019050612fc4565b8160000151836000015111612fbb576000612fbe565b60025b60ff1690505b92915050565b6060612fd98484600085613045565b90509392505050565b60008083118290613029576040517f08c379a000000000000000000000000000000000000000000000000000000000815260040161302091906139bf565b60405180910390fd5b50600083856130389190613e14565b9050809150509392505050565b60608247101561308a576040517f08c379a000000000000000000000000000000000000000000000000000000000815260040161308190613b01565b60405180910390fd5b61309385613159565b6130d2576040517f08c379a00000000000000000000000000000000000000000000000000000000081526004016130c990613c01565b60405180910390fd5b6000808673ffffffffffffffffffffffffffffffffffffffff1685876040516130fb9190613927565b60006040518083038185875af1925050503d8060008114613138576040519150601f19603f3d011682016040523d82523d6000602084013e61313d565b606091505b509150915061314d82828661316c565b92505050949350505050565b600080823b905060008111915050919050565b6060831561317c578290506131cc565b60008351111561318f5782518084602001fd5b816040517f08c379a00000000000000000000000000000000000000000000000000000000081526004016131c391906139bf565b60405180910390fd5b9392505050565b6040518060a00160405280600073ffffffffffffffffffffffffffffffffffffffff168152602001600073ffffffffffffffffffffffffffffffffffffffff168152602001600015158152602001600073ffffffffffffffffffffffffffffffffffffffff168152602001600073ffffffffffffffffffffffffffffffffffffffff1681525090565b6040518060800160405280600081526020016000815260200160008152602001600081525090565b6040518060200160405280600081525090565b60006132aa6132a584613d16565b613cf1565b905080838252602082019050828560208602820111156132c957600080fd5b60005b858110156132f957816132df8882613303565b8452602084019350602083019250506001810190506132cc565b5050509392505050565b6000813590506133128161453e565b92915050565b6000815190506133278161453e565b92915050565b600082601f83011261333e57600080fd5b813561334e848260208601613297565b91505092915050565b60008151905061336681614555565b92915050565b60008151905061337b8161456c565b92915050565b60008135905061339081614583565b92915050565b6000815190506133a581614583565b92915050565b6000815190506133ba8161459a565b92915050565b6000602082840312156133d257600080fd5b60006133e084828501613303565b91505092915050565b6000602082840312156133fb57600080fd5b600061340984828501613318565b91505092915050565b6000806040838503121561342557600080fd5b600061343385828601613303565b925050602061344485828601613303565b9150509250929050565b6000806040838503121561346157600080fd5b600061346f85828601613303565b925050602083013567ffffffffffffffff81111561348c57600080fd5b6134988582860161332d565b9150509250929050565b600080604083850312156134b557600080fd5b60006134c385828601613303565b92505060206134d485828601613381565b9150509250929050565b6000602082840312156134f057600080fd5b60006134fe84828501613357565b91505092915050565b60008060006060848603121561351c57600080fd5b600061352a8682870161336c565b935050602061353b8682870161336c565b925050604061354c868287016133ab565b9150509250925092565b60006020828403121561356857600080fd5b600061357684828501613396565b91505092915050565b600061358b8383613597565b60208301905092915050565b6135a081613ed3565b82525050565b6135af81613ed3565b82525050565b60006135c082613d52565b6135ca8185613d80565b93506135d583613d42565b8060005b838110156136065781516135ed888261357f565b97506135f883613d73565b9250506001810190506135d9565b5085935050505092915050565b61361c81613ee5565b82525050565b600061362d82613d5d565b6136378185613d91565b9350613647818560208601613f45565b613650816140a1565b840191505092915050565b600061366682613d5d565b6136708185613da2565b9350613680818560208601613f45565b80840191505092915050565b600061369782613d68565b6136a18185613dad565b93506136b1818560208601613f45565b6136ba816140a1565b840191505092915050565b60006136d2601683613dad565b91506136dd826140bf565b602082019050919050565b60006136f5602683613dad565b9150613700826140e8565b604082019050919050565b6000613718601483613dad565b915061372382614137565b602082019050919050565b600061373b601483613dad565b915061374682614160565b602082019050919050565b600061375e602283613dad565b915061376982614189565b604082019050919050565b6000613781602d83613dad565b915061378c826141d8565b604082019050919050565b60006137a4602683613dad565b91506137af82614227565b604082019050919050565b60006137c7602183613dad565b91506137d282614276565b604082019050919050565b60006137ea602083613dad565b91506137f5826142c5565b602082019050919050565b600061380d601183613dad565b9150613818826142ee565b602082019050919050565b6000613830601a83613dad565b915061383b82614317565b602082019050919050565b6000613853601c83613dad565b915061385e82614340565b602082019050919050565b6000613876603083613dad565b915061388182614369565b604082019050919050565b6000613899601e83613dad565b91506138a4826143b8565b602082019050919050565b60006138bc601d83613dad565b91506138c7826143e1565b602082019050919050565b60006138df602283613dad565b91506138ea8261440a565b604082019050919050565b6000613902602a83613dad565b915061390d82614459565b604082019050919050565b61392181613f2b565b82525050565b6000613933828461365b565b915081905092915050565b600060208201905061395360008301846135a6565b92915050565b600060408201905061396e60008301856135a6565b61397b6020830184613918565b9392505050565b6000602082019050818103600083015261399c81846135b5565b905092915050565b60006020820190506139b96000830184613613565b92915050565b600060208201905081810360008301526139d9818461368c565b905092915050565b600060408201905081810360008301526139fb818561368c565b9050613a0a60208301846135a6565b9392505050565b60006040820190508181036000830152613a2b818561368c565b9050613a3a6020830184613918565b9392505050565b60006020820190508181036000830152613a5a816136c5565b9050919050565b60006020820190508181036000830152613a7a816136e8565b9050919050565b60006020820190508181036000830152613a9a8161370b565b9050919050565b60006020820190508181036000830152613aba8161372e565b9050919050565b60006020820190508181036000830152613ada81613751565b9050919050565b60006020820190508181036000830152613afa81613774565b9050919050565b60006020820190508181036000830152613b1a81613797565b9050919050565b60006020820190508181036000830152613b3a816137ba565b9050919050565b60006020820190508181036000830152613b5a816137dd565b9050919050565b60006020820190508181036000830152613b7a81613800565b9050919050565b60006020820190508181036000830152613b9a81613823565b9050919050565b60006020820190508181036000830152613bba81613846565b9050919050565b60006020820190508181036000830152613bda81613869565b9050919050565b60006020820190508181036000830152613bfa8161388c565b9050919050565b60006020820190508181036000830152613c1a816138af565b9050919050565b60006020820190508181036000830152613c3a816138d2565b9050919050565b60006020820190508181036000830152613c5a816138f5565b9050919050565b6000602082019050613c766000830184613918565b92915050565b6000604082019050613c916000830185613918565b613c9e60208301846135a6565b9392505050565b6000608082019050613cba6000830187613918565b613cc76020830186613918565b613cd460408301856135a6565b8181036060830152613ce68184613622565b905095945050505050565b6000613cfb613d0c565b9050613d078282613f78565b919050565b6000604051905090565b600067ffffffffffffffff821115613d3157613d30614050565b5b602082029050602081019050919050565b6000819050602082019050919050565b600081519050919050565b600081519050919050565b600081519050919050565b6000602082019050919050565b600082825260208201905092915050565b600082825260208201905092915050565b600081905092915050565b600082825260208201905092915050565b6000613dc982613f2b565b9150613dd483613f2b565b9250827fffffffffffffffffffffffffffffffffffffffffffffffffffffffffffffffff03821115613e0957613e08613ff2565b5b828201905092915050565b6000613e1f82613f2b565b9150613e2a83613f2b565b925082613e3a57613e39614021565b5b828204905092915050565b6000613e5082613f2b565b9150613e5b83613f2b565b9250817fffffffffffffffffffffffffffffffffffffffffffffffffffffffffffffffff0483118215151615613e9457613e93613ff2565b5b828202905092915050565b6000613eaa82613f2b565b9150613eb583613f2b565b925082821015613ec857613ec7613ff2565b5b828203905092915050565b6000613ede82613f0b565b9050919050565b60008115159050919050565b60006dffffffffffffffffffffffffffff82169050919050565b600073ffffffffffffffffffffffffffffffffffffffff82169050919050565b6000819050919050565b600063ffffffff82169050919050565b60005b83811015613f63578082015181840152602081019050613f48565b83811115613f72576000848401525b50505050565b613f81826140a1565b810181811067ffffffffffffffff82111715613fa057613f9f614050565b5b80604052505050565b6000613fb482613f2b565b91507fffffffffffffffffffffffffffffffffffffffffffffffffffffffffffffffff821415613fe757613fe6613ff2565b5b600182019050919050565b7f4e487b7100000000000000000000000000000000000000000000000000000000600052601160045260246000fd5b7f4e487b7100000000000000000000000000000000000000000000000000000000600052601260045260246000fd5b7f4e487b7100000000000000000000000000000000000000000000000000000000600052604160045260246000fd5b600060033d111561409e5760046000803e61409b6000516140b2565b90505b90565b6000601f19601f8301169050919050565b60008160e01c9050919050565b7f424f543a2053616d652070616972206164647265737300000000000000000000600082015250565b7f4f776e61626c653a206e6577206f776e657220697320746865207a65726f206160008201527f6464726573730000000000000000000000000000000000000000000000000000602082015250565b7f64732d6d6174682d6d756c2d6f766572666c6f77000000000000000000000000600082015250565b7f64732d6d6174682d6164642d6f766572666c6f77000000000000000000000000600082015250565b7f424f543a204e6f6e207374616e6461726420756e697377617020414d4d20706160008201527f6972000000000000000000000000000000000000000000000000000000000000602082015250565b7f424f543a20556e697377617056324c6962726172793a20494e5355464649434960008201527f454e545f4c495155494449545900000000000000000000000000000000000000602082015250565b7f416464726573733a20696e73756666696369656e742062616c616e636520666f60008201527f722063616c6c0000000000000000000000000000000000000000000000000000602082015250565b7f536166654d6174683a206d756c7469706c69636174696f6e206f766572666c6f60008201527f7700000000000000000000000000000000000000000000000000000000000000602082015250565b7f4f776e61626c653a2063616c6c6572206973206e6f7420746865206f776e6572600082015250565b7f424f543a204c6f73696e67206d6f6e6579000000000000000000000000000000600082015250565b7f424f543a204e6f206261736520746f6b656e20696e2070616972000000000000600082015250565b7f424f543a20526571756972652073616d6520746f6b656e207061697200000000600082015250565b7f424f543a20556e697377617056324c6962726172793a20494e5355464649434960008201527f454e545f494e5055545f414d4f554e5400000000000000000000000000000000602082015250565b7f424f543a20417262697472616765206661696c2c206e6f2070726f6669740000600082015250565b7f416464726573733a2063616c6c20746f206e6f6e2d636f6e7472616374000000600082015250565b7f424f543a204e6f7420656e6f756768206261736520746f6b656e2062616c616e60008201527f6365000000000000000000000000000000000000000000000000000000000000602082015250565b7f5361666545524332303a204552433230206f7065726174696f6e20646964206e60008201527f6f74207375636365656400000000000000000000000000000000000000000000602082015250565b600060443d10156144b85761453b565b6144c0613d0c565b60043d036004823e80513d602482011167ffffffffffffffff821117156144e857505061453b565b808201805167ffffffffffffffff811115614506575050505061453b565b80602083010160043d03850181111561452357505050505061453b565b61453282602001850186613f78565b82955050505050505b90565b61454781613ed3565b811461455257600080fd5b50565b61455e81613ee5565b811461456957600080fd5b50565b61457581613ef1565b811461458057600080fd5b50565b61458c81613f2b565b811461459757600080fd5b50565b6145a381613f35565b81146145ae57600080fd5b5056fea26469706673582212206af49d71a89cfcade9d7c626cbda710fa935f9a26868005efc3a44f8f8592a5864736f6c63430008040033",
  "devdoc": {
    "kind": "dev",
    "methods": {
      "getOwner()": {
        "details": "Returns the address of the current owner."
      },
      "initOwner(address)": {
        "details": "for proxy / initializer"
      },
      "swap(address,address)": {
        "details": "Two pools must contains same token pair"
      },
      "transferContractOwnership(address)": {
        "details": "Transfers ownership of the contract to a new account (`newOwner`). Can only be called by the current owner."
      }
    },
    "version": 1
  },
  "userdoc": {
    "kind": "user",
    "methods": {
      "getProfit(address,address)": {
        "notice": "Calculate how much profit we can by arbitraging between two pools"
      },
      "swap(address,address)": {
        "notice": "Do an arbitrage between two Uniswap-like AMM pools"
      }
    },
    "version": 1
  },
  "storageLayout": {
    "storage": [
      {
        "astId": 4172,
        "contract": "contracts/FlashBot.sol:FlashBot",
        "label": "_contractOwner",
        "offset": 0,
        "slot": "0",
        "type": "t_address"
      },
      {
        "astId": 5,
        "contract": "contracts/FlashBot.sol:FlashBot",
        "label": "_initialized",
        "offset": 20,
        "slot": "0",
        "type": "t_bool"
      },
      {
        "astId": 8,
        "contract": "contracts/FlashBot.sol:FlashBot",
        "label": "_initializing",
        "offset": 21,
        "slot": "0",
        "type": "t_bool"
      },
      {
        "astId": 1912,
        "contract": "contracts/FlashBot.sol:FlashBot",
        "label": "WETH",
        "offset": 0,
        "slot": "1",
        "type": "t_address"
      },
      {
        "astId": 1915,
        "contract": "contracts/FlashBot.sol:FlashBot",
        "label": "baseTokens",
        "offset": 0,
        "slot": "2",
        "type": "t_struct(AddressSet)1549_storage"
      }
    ],
    "types": {
      "t_address": {
        "encoding": "inplace",
        "label": "address",
        "numberOfBytes": "20"
      },
      "t_array(t_bytes32)dyn_storage": {
        "base": "t_bytes32",
        "encoding": "dynamic_array",
        "label": "bytes32[]",
        "numberOfBytes": "32"
      },
      "t_bool": {
        "encoding": "inplace",
        "label": "bool",
        "numberOfBytes": "1"
      },
      "t_bytes32": {
        "encoding": "inplace",
        "label": "bytes32",
        "numberOfBytes": "32"
      },
      "t_mapping(t_bytes32,t_uint256)": {
        "encoding": "mapping",
        "key": "t_bytes32",
        "label": "mapping(bytes32 => uint256)",
        "numberOfBytes": "32",
        "value": "t_uint256"
      },
      "t_struct(AddressSet)1549_storage": {
        "encoding": "inplace",
        "label": "struct EnumerableSet.AddressSet",
        "members": [
          {
            "astId": 1548,
            "contract": "contracts/FlashBot.sol:FlashBot",
            "label": "_inner",
            "offset": 0,
            "slot": "0",
            "type": "t_struct(Set)1248_storage"
          }
        ],
        "numberOfBytes": "64"
      },
      "t_struct(Set)1248_storage": {
        "encoding": "inplace",
        "label": "struct EnumerableSet.Set",
        "members": [
          {
            "astId": 1243,
            "contract": "contracts/FlashBot.sol:FlashBot",
            "label": "_values",
            "offset": 0,
            "slot": "0",
            "type": "t_array(t_bytes32)dyn_storage"
          },
          {
            "astId": 1247,
            "contract": "contracts/FlashBot.sol:FlashBot",
            "label": "_indexes",
            "offset": 0,
            "slot": "1",
            "type": "t_mapping(t_bytes32,t_uint256)"
          }
        ],
        "numberOfBytes": "64"
      },
      "t_uint256": {
        "encoding": "inplace",
        "label": "uint256",
        "numberOfBytes": "32"
      }
    }
  }
}