{
  "address": "0xF186e06EE3A556458D2754BF4d348cdB4c0540F8",
  "abi": [
    {
      "inputs": [
        {
          "internalType": "address",
          "name": "_WETH",
          "type": "address"
        }
      ],
      "stateMutability": "nonpayable",
      "type": "constructor"
    },
    {
      "anonymous": false,
      "inputs": [
        {
          "indexed": true,
          "internalType": "address",
          "name": "token",
          "type": "address"
        }
      ],
      "name": "BaseTokenAdded",
      "type": "event"
    },
    {
      "anonymous": false,
      "inputs": [
        {
          "indexed": true,
          "internalType": "address",
          "name": "token",
          "type": "address"
        }
      ],
      "name": "BaseTokenRemoved",
      "type": "event"
    },
    {
      "anonymous": false,
      "inputs": [
        {
          "indexed": true,
          "internalType": "address",
          "name": "previousOwner",
          "type": "address"
        },
        {
          "indexed": true,
          "internalType": "address",
          "name": "newOwner",
          "type": "address"
        }
      ],
      "name": "OwnershipTransferred",
      "type": "event"
    },
    {
      "anonymous": false,
      "inputs": [
        {
          "indexed": true,
          "internalType": "address",
          "name": "to",
          "type": "address"
        },
        {
          "indexed": true,
          "internalType": "uint256",
          "name": "value",
          "type": "uint256"
        }
      ],
      "name": "Withdrawn",
      "type": "event"
    },
    {
      "stateMutability": "nonpayable",
      "type": "fallback"
    },
    {
      "inputs": [
        {
          "internalType": "address",
          "name": "token",
          "type": "address"
        }
      ],
      "name": "addBaseToken",
      "outputs": [],
      "stateMutability": "nonpayable",
      "type": "function"
    },
    {
      "inputs": [
        {
          "internalType": "address",
          "name": "token",
          "type": "address"
        }
      ],
      "name": "baseTokensContains",
      "outputs": [
        {
          "internalType": "bool",
          "name": "",
          "type": "bool"
        }
      ],
      "stateMutability": "view",
      "type": "function"
    },
    {
      "inputs": [
        {
          "internalType": "address",
          "name": "pool0",
          "type": "address"
        },
        {
          "internalType": "address",
          "name": "pool1",
          "type": "address"
        }
      ],
      "name": "flashArbitrage",
      "outputs": [],
      "stateMutability": "nonpayable",
      "type": "function"
    },
    {
      "inputs": [],
      "name": "getBaseTokens",
      "outputs": [
        {
          "internalType": "address[]",
          "name": "tokens",
          "type": "address[]"
        }
      ],
      "stateMutability": "view",
      "type": "function"
    },
    {
      "inputs": [
        {
          "internalType": "address",
          "name": "pool0",
          "type": "address"
        },
        {
          "internalType": "address",
          "name": "pool1",
          "type": "address"
        }
      ],
      "name": "getProfit",
      "outputs": [
        {
          "internalType": "uint256",
          "name": "profit",
          "type": "uint256"
        },
        {
          "internalType": "address",
          "name": "baseToken",
          "type": "address"
        }
      ],
      "stateMutability": "view",
      "type": "function"
    },
    {
      "inputs": [],
      "name": "owner",
      "outputs": [
        {
          "internalType": "address",
          "name": "",
          "type": "address"
        }
      ],
      "stateMutability": "view",
      "type": "function"
    },
    {
      "inputs": [
        {
          "internalType": "address",
          "name": "token",
          "type": "address"
        }
      ],
      "name": "removeBaseToken",
      "outputs": [],
      "stateMutability": "nonpayable",
      "type": "function"
    },
    {
      "inputs": [],
      "name": "renounceOwnership",
      "outputs": [],
      "stateMutability": "nonpayable",
      "type": "function"
    },
    {
      "inputs": [
        {
          "internalType": "address",
          "name": "newOwner",
          "type": "address"
        }
      ],
      "name": "transferOwnership",
      "outputs": [],
      "stateMutability": "nonpayable",
      "type": "function"
    },
    {
      "inputs": [
        {
          "internalType": "address",
          "name": "sender",
          "type": "address"
        },
        {
          "internalType": "uint256",
          "name": "amount0",
          "type": "uint256"
        },
        {
          "internalType": "uint256",
          "name": "amount1",
          "type": "uint256"
        },
        {
          "internalType": "bytes",
          "name": "data",
          "type": "bytes"
        }
      ],
      "name": "uniswapV2Call",
      "outputs": [],
      "stateMutability": "nonpayable",
      "type": "function"
    },
    {
      "inputs": [
        {
          "internalType": "address",
          "name": "token",
          "type": "address"
        },
        {
          "internalType": "uint256",
          "name": "amount",
          "type": "uint256"
        }
      ],
      "name": "withdraw",
      "outputs": [],
      "stateMutability": "nonpayable",
      "type": "function"
    },
    {
      "inputs": [],
      "name": "withdrawAll",
      "outputs": [],
      "stateMutability": "nonpayable",
      "type": "function"
    },
    {
      "stateMutability": "payable",
      "type": "receive"
    }
  ],
  "transactionHash": "0x383e0d5188b71547abf829f288291206cb2669fc4b01ed7ca2813e70c9b9f249",
  "args": [
    "0x0d500B1d8E8eF31E21C99d1Db9A6444d3ADf1270"
  ],
  "solcInputHash": "d2a60bfdbd4f96741586b6c92b0a1f40",
  "bytecode": "0x60a060405260018060006101000a81548173ffffffffffffffffffffffffffffffffffffffff021916908373ffffffffffffffffffffffffffffffffffffffff1602179055503480156200005257600080fd5b5060405162005c2638038062005c26833981810160405281019062000078919062000276565b60006200008a6200018260201b60201c565b9050806000806101000a81548173ffffffffffffffffffffffffffffffffffffffff021916908373ffffffffffffffffffffffffffffffffffffffff1602179055508073ffffffffffffffffffffffffffffffffffffffff16600073ffffffffffffffffffffffffffffffffffffffff167f8be0079c531659141344cd1fd0a4f28419497f9722a3daafe3b4186f6b6457e060405160405180910390a3508073ffffffffffffffffffffffffffffffffffffffff1660808173ffffffffffffffffffffffffffffffffffffffff1660601b815250506200017a8160026200018a60201b620024e31790919060201c565b5050620002f0565b600033905090565b6000620001ba836000018373ffffffffffffffffffffffffffffffffffffffff1660001b620001c260201b60201c565b905092915050565b6000620001d683836200023c60201b60201c565b6200023157826000018290806001815401808255809150506001900390600052602060002001600090919091909150558260000180549050836001016000848152602001908152602001600020819055506001905062000236565b600090505b92915050565b600080836001016000848152602001908152602001600020541415905092915050565b6000815190506200027081620002d6565b92915050565b6000602082840312156200028957600080fd5b600062000299848285016200025f565b91505092915050565b6000620002af82620002b6565b9050919050565b600073ffffffffffffffffffffffffffffffffffffffff82169050919050565b620002e181620002a2565b8114620002ed57600080fd5b50565b60805160601c61591d620003096000395061591d6000f3fe6080604052600436106100ab5760003560e01c80638da5cb5b116100645780638da5cb5b1461022c578063baee64f114610257578063bbd1e12214610280578063bed64c2f146102a9578063f2fde38b146102d4578063f3fef3a3146102fd576100b2565b806310d1e85c1461013157806321d094261461015a578063715018a614610197578063759eee10146101ae57806383e280d9146101ec578063853828b614610215576100b2565b366100b257005b3480156100be57600080fd5b506000366060600080600080868660049080926100dd9392919061554b565b8101906100ea919061492d565b935093509350935061011660405180606001604052806030815260200161586d60309139858585610326565b61012284848484610455565b50505050915050805190602001f35b34801561013d57600080fd5b5061015860048036038101906101539190614a20565b610455565b005b34801561016657600080fd5b50610181600480360381019061017c91906148db565b6106d6565b60405161018e9190615219565b60405180910390f35b3480156101a357600080fd5b506101ac6106f3565b005b3480156101ba57600080fd5b506101d560048036038101906101d091906149a8565b610860565b6040516101e392919061540f565b60405180910390f35b3480156101f857600080fd5b50610213600480360381019061020e91906148db565b6109d4565b005b34801561022157600080fd5b5061022a610ade565b005b34801561023857600080fd5b50610241610d9d565b60405161024e9190615198565b60405180910390f35b34801561026357600080fd5b5061027e600480360381019061027991906149a8565b610dc6565b005b34801561028c57600080fd5b506102a760048036038101906102a291906148db565b611d72565b005b3480156102b557600080fd5b506102be611fa9565b6040516102cb91906151f7565b60405180910390f35b3480156102e057600080fd5b506102fb60048036038101906102f691906148db565b612079565b005b34801561030957600080fd5b50610324600480360381019061031f91906149e4565b61226b565b005b61044f8484848460405160240180806020018573ffffffffffffffffffffffffffffffffffffffff168152602001848152602001838152602001828103825286818151815260200191508051906020019080838360005b8381101561039857808201518184015260208101905061037d565b50505050905090810190601f1680156103c55780820380516001836020036101000a031916815260200191505b50955050505050506040516020818303038152906040527fdaa394bd000000000000000000000000000000000000000000000000000000007bffffffffffffffffffffffffffffffffffffffffffffffffffffffff19166020820180517bffffffffffffffffffffffffffffffffffffffffffffffffffffffff8381831617835250505050612513565b50505050565b600160009054906101000a900473ffffffffffffffffffffffffffffffffffffffff1673ffffffffffffffffffffffffffffffffffffffff163373ffffffffffffffffffffffffffffffffffffffff16146104e5576040517f08c379a00000000000000000000000000000000000000000000000000000000081526004016104dc90615314565b60405180910390fd5b3073ffffffffffffffffffffffffffffffffffffffff168473ffffffffffffffffffffffffffffffffffffffff1614610553576040517f08c379a000000000000000000000000000000000000000000000000000000000815260040161054a90615234565b60405180910390fd5b60008084116105625782610564565b835b905060008280602001905181019061057c9190614ac4565b90506105b1816020015183836060015173ffffffffffffffffffffffffffffffffffffffff1661253c9092919063ffffffff16565b60008082604001516105c95760008360c001516105d1565b8260c0015160005b91509150826020015173ffffffffffffffffffffffffffffffffffffffff1663022c0d9f838330600067ffffffffffffffff8111801561061057600080fd5b506040519080825280601f01601f1916602001820160405280156106435781602001600182028036833780820191505090505b506040518563ffffffff1660e01b81526004016106639493929190615438565b600060405180830381600087803b15801561067d57600080fd5b505af1158015610691573d6000803e3d6000fd5b505050506106cc83600001518460a00151856080015173ffffffffffffffffffffffffffffffffffffffff1661253c9092919063ffffffff16565b5050505050505050565b60006106ec8260026125de90919063ffffffff16565b9050919050565b6106fb61260e565b73ffffffffffffffffffffffffffffffffffffffff16610719610d9d565b73ffffffffffffffffffffffffffffffffffffffff16146107a2576040517f08c379a00000000000000000000000000000000000000000000000000000000081526004018080602001828103825260208152602001807f4f776e61626c653a2063616c6c6572206973206e6f7420746865206f776e657281525060200191505060405180910390fd5b600073ffffffffffffffffffffffffffffffffffffffff1660008054906101000a900473ffffffffffffffffffffffffffffffffffffffff1673ffffffffffffffffffffffffffffffffffffffff167f8be0079c531659141344cd1fd0a4f28419497f9722a3daafe3b4186f6b6457e060405160405180910390a360008060006101000a81548173ffffffffffffffffffffffffffffffffffffffff021916908373ffffffffffffffffffffffffffffffffffffffff160217905550565b60008060008060006108728787612616565b925092509250819350600080600061088b8a8a88612a64565b925092509250600061089e8b8b89612d36565b9250505060006108ad826132dc565b905060008673ffffffffffffffffffffffffffffffffffffffff1663313ce5676040518163ffffffff1660e01b815260040160206040518083038186803b1580156108f757600080fd5b505afa15801561090b573d6000803e3d6000fd5b505050506040513d601f19601f8201168201806040525081019061092f9190614b65565b905061095d60b461094f83600a0260ff168561365590919063ffffffff16565b6136db90919063ffffffff16565b9150600061096a87613764565b90506000610982848760000151886020015185613846565b9050600061098f88613764565b905060006109a78689606001518a604001518561395a565b9050828110156109ba5760009e506109c0565b8281039e505b505050505050505050505050509250929050565b6109dc61260e565b73ffffffffffffffffffffffffffffffffffffffff166109fa610d9d565b73ffffffffffffffffffffffffffffffffffffffff1614610a83576040517f08c379a00000000000000000000000000000000000000000000000000000000081526004018080602001828103825260208152602001807f4f776e61626c653a2063616c6c6572206973206e6f7420746865206f776e657281525060200191505060405180910390fd5b610a978160026124e390919063ffffffff16565b508073ffffffffffffffffffffffffffffffffffffffff167ffa1388d6e7328e9c711a539b0addfc27de8bfb6f5924cce26f80f41023b1525360405160405180910390a250565b610ae661260e565b73ffffffffffffffffffffffffffffffffffffffff16610b04610d9d565b73ffffffffffffffffffffffffffffffffffffffff1614610b8d576040517f08c379a00000000000000000000000000000000000000000000000000000000081526004018080602001828103825260208152602001807f4f776e61626c653a2063616c6c6572206973206e6f7420746865206f776e657281525060200191505060405180910390fd5b60004790506000811115610c3557610ba3610d9d565b73ffffffffffffffffffffffffffffffffffffffff166108fc829081150290604051600060405180830381858888f19350505050158015610be8573d6000803e3d6000fd5b5080610bf2610d9d565b73ffffffffffffffffffffffffffffffffffffffff167f7084f5476618d8e60b11ef0d7d3f06914655adb8793e28ff7f018d4c76d505d560405160405180910390a35b60005b610c426002613a61565b811015610d99576000610c5f826002613a7690919063ffffffff16565b90508073ffffffffffffffffffffffffffffffffffffffff166370a08231306040518263ffffffff1660e01b8152600401610c9a91906151b3565b60206040518083038186803b158015610cb257600080fd5b505afa158015610cc6573d6000803e3d6000fd5b505050506040513d601f19601f82011682018060405250810190610cea9190614b3c565b92506000831115610d8b578073ffffffffffffffffffffffffffffffffffffffff1663a9059cbb610d19610d9d565b856040518363ffffffff1660e01b8152600401610d379291906151ce565b602060405180830381600087803b158015610d5157600080fd5b505af1158015610d65573d6000803e3d6000fd5b505050506040513d601f19601f82011682018060405250810190610d899190614a9b565b505b508080600101915050610c38565b5050565b60008060009054906101000a900473ffffffffffffffffffffffffffffffffffffffff16905090565b610dce6145be565b610dd88383612616565b8360400184600001856020018373ffffffffffffffffffffffffffffffffffffffff1673ffffffffffffffffffffffffffffffffffffffff168152508373ffffffffffffffffffffffffffffffffffffffff1673ffffffffffffffffffffffffffffffffffffffff168152508315151515815250505050610e57614647565b610e6684848460400151612a64565b84606001856080018295508373ffffffffffffffffffffffffffffffffffffffff1673ffffffffffffffffffffffffffffffffffffffff168152508373ffffffffffffffffffffffffffffffffffffffff1673ffffffffffffffffffffffffffffffffffffffff168152505050506000610ee585858560400151612d36565b925050508260600151600160006101000a81548173ffffffffffffffffffffffffffffffffffffffff021916908373ffffffffffffffffffffffffffffffffffffffff1602179055506000836000015173ffffffffffffffffffffffffffffffffffffffff166370a08231306040518263ffffffff1660e01b8152600401610f6d91906151b3565b60206040518083038186803b158015610f8557600080fd5b505afa158015610f99573d6000803e3d6000fd5b505050506040513d601f19601f82011682018060405250810190610fbd9190614b3c565b90506000610fca836132dc565b90506000856020015173ffffffffffffffffffffffffffffffffffffffff1663313ce5676040518163ffffffff1660e01b815260040160206040518083038186803b15801561101857600080fd5b505afa15801561102c573d6000803e3d6000fd5b505050506040513d601f19601f820116820180604052508101906110509190614b65565b905061107e60b461107083600a0260ff168561365590919063ffffffff16565b6136db90919063ffffffff16565b91506110bf6040518060400160405280600c81526020017f626f72726f77416d6f756e74000000000000000000000000000000000000000081525083613a90565b73684d8c187be836171a1af8d533e472489303182873ffffffffffffffffffffffffffffffffffffffff16866060015173ffffffffffffffffffffffffffffffffffffffff1663c45a01556040518163ffffffff1660e01b815260040160206040518083038186803b15801561113457600080fd5b505afa158015611148573d6000803e3d6000fd5b505050506040513d601f19601f8201168201806040525081019061116c9190614904565b73ffffffffffffffffffffffffffffffffffffffff161415611804576111c66040518060400160405280601281526020017f546574752073776170206265686176696f720000000000000000000000000000815250613b97565b60008087604001516111da578360006111de565b6000845b9150915060006111f18960600151613764565b90506112326040518060400160405280600481526020017f666565310000000000000000000000000000000000000000000000000000000081525082613a90565b6000611248868a600001518b6020015185613846565b90506112896040518060400160405280600a81526020017f64656274416d6f756e740000000000000000000000000000000000000000000081525082613a90565b60006112988b60800151613764565b90506112d96040518060400160405280600481526020017f666565320000000000000000000000000000000000000000000000000000000081525082613a90565b60006112ef888c606001518d604001518561395a565b9050828111611333576040517f08c379a000000000000000000000000000000000000000000000000000000000815260040161132a906153d4565b60405180910390fd5b6113746040518060400160405280600781526020017f50726f6669743a00000000000000000000000000000000000000000000000000815250848303613a90565b61137c61466f565b8c60600151816000019073ffffffffffffffffffffffffffffffffffffffff16908173ffffffffffffffffffffffffffffffffffffffff16815250508c60800151816020019073ffffffffffffffffffffffffffffffffffffffff16908173ffffffffffffffffffffffffffffffffffffffff16815250508c604001518160400190151590811515815250508c60200151816060019073ffffffffffffffffffffffffffffffffffffffff16908173ffffffffffffffffffffffffffffffffffffffff16815250508c60000151816080019073ffffffffffffffffffffffffffffffffffffffff16908173ffffffffffffffffffffffffffffffffffffffff1681525050838160a0018181525050818160c001818152505060606000826080015173ffffffffffffffffffffffffffffffffffffffff166370a08231306040518263ffffffff1660e01b81526004016114d591906151b3565b60206040518083038186803b1580156114ed57600080fd5b505afa158015611501573d6000803e3d6000fd5b505050506040513d601f19601f820116820180604052508101906115259190614b3c565b90506115666040518060400160405280601081526020017f62617365546f6b656e42616c616e63650000000000000000000000000000000081525082613a90565b60006127109050818460a0015111156115e6576115a48460a001516115966127108561365590919063ffffffff16565b6136db90919063ffffffff16565b90506115e56040518060400160405280600981526020017f6e657720726174696f000000000000000000000000000000000000000000000081525082613a90565b5b61162684600001516115fc8660a0015184613c95565b866080015173ffffffffffffffffffffffffffffffffffffffff1661253c9092919063ffffffff16565b8f6060015173ffffffffffffffffffffffffffffffffffffffff1663022c0d9f6116508c84613c95565b61165a8c85613c95565b30876040518563ffffffff1660e01b815260040161167b9493929190615438565b600060405180830381600087803b15801561169557600080fd5b505af11580156116a9573d6000803e3d6000fd5b505050506000808b116116bc57896116be565b8a5b90506116fc85602001516116d28385613c95565b876060015173ffffffffffffffffffffffffffffffffffffffff1661253c9092919063ffffffff16565b60008086604001516117145760008760c0015161171c565b8660c0015160005b91509150866020015173ffffffffffffffffffffffffffffffffffffffff1663022c0d9f61174a8487613c95565b6117548488613c95565b30600067ffffffffffffffff8111801561176d57600080fd5b506040519080825280601f01601f1916602001820160405280156117a05781602001600182028036833780820191505090505b506040518563ffffffff1660e01b81526004016117c09493929190615438565b600060405180830381600087803b1580156117da57600080fd5b505af11580156117ee573d6000803e3d6000fd5b5050505050505050505050505050505050611bb2565b6118426040518060400160405280601b81526020017f44656661756c7420666c6173682073776170206265686176696f720000000000815250613b97565b60008087604001516118565783600061185a565b6000845b91509150600061186d8960600151613764565b90506118ae6040518060400160405280600481526020017f666565310000000000000000000000000000000000000000000000000000000081525082613a90565b60006118c4868a600001518b6020015185613846565b90506119056040518060400160405280600a81526020017f64656274416d6f756e740000000000000000000000000000000000000000000081525082613a90565b60006119148b60800151613764565b90506119556040518060400160405280600481526020017f666565320000000000000000000000000000000000000000000000000000000081525082613a90565b600061196b888c606001518d604001518561395a565b90508281116119af576040517f08c379a00000000000000000000000000000000000000000000000000000000081526004016119a690615254565b60405180910390fd5b6119f06040518060400160405280600781526020017f50726f6669743a00000000000000000000000000000000000000000000000000815250848303613a90565b6119f861466f565b8c60600151816000019073ffffffffffffffffffffffffffffffffffffffff16908173ffffffffffffffffffffffffffffffffffffffff16815250508c60800151816020019073ffffffffffffffffffffffffffffffffffffffff16908173ffffffffffffffffffffffffffffffffffffffff16815250508c604001518160400190151590811515815250508c60200151816060019073ffffffffffffffffffffffffffffffffffffffff16908173ffffffffffffffffffffffffffffffffffffffff16815250508c60000151816080019073ffffffffffffffffffffffffffffffffffffffff16908173ffffffffffffffffffffffffffffffffffffffff1681525050838160a0018181525050818160c0018181525050600081604051602001611b2391906153f4565b60405160208183030381529060405290508d6060015173ffffffffffffffffffffffffffffffffffffffff1663022c0d9f898930856040518563ffffffff1660e01b8152600401611b779493929190615438565b600060405180830381600087803b158015611b9157600080fd5b505af1158015611ba5573d6000803e3d6000fd5b5050505050505050505050505b50506000846000015173ffffffffffffffffffffffffffffffffffffffff166370a08231306040518263ffffffff1660e01b8152600401611bf391906151b3565b60206040518083038186803b158015611c0b57600080fd5b505afa158015611c1f573d6000803e3d6000fd5b505050506040513d601f19601f82011682018060405250810190611c439190614b3c565b9050818111611c87576040517f08c379a0000000000000000000000000000000000000000000000000000000008152600401611c7e90615334565b60405180910390fd5b60008282039050856000015173ffffffffffffffffffffffffffffffffffffffff1663a9059cbb611cb6610d9d565b836040518363ffffffff1660e01b8152600401611cd49291906151ce565b602060405180830381600087803b158015611cee57600080fd5b505af1158015611d02573d6000803e3d6000fd5b505050506040513d601f19601f82011682018060405250810190611d269190614a9b565b5060018060006101000a81548173ffffffffffffffffffffffffffffffffffffffff021916908373ffffffffffffffffffffffffffffffffffffffff1602179055505050505050505050565b611d7a61260e565b73ffffffffffffffffffffffffffffffffffffffff16611d98610d9d565b73ffffffffffffffffffffffffffffffffffffffff1614611e21576040517f08c379a00000000000000000000000000000000000000000000000000000000081526004018080602001828103825260208152602001807f4f776e61626c653a2063616c6c6572206973206e6f7420746865206f776e657281525060200191505060405180910390fd5b60008173ffffffffffffffffffffffffffffffffffffffff166370a08231306040518263ffffffff1660e01b8152600401611e5c91906151b3565b60206040518083038186803b158015611e7457600080fd5b505afa158015611e88573d6000803e3d6000fd5b505050506040513d601f19601f82011682018060405250810190611eac9190614b3c565b90506000811115611f4d578173ffffffffffffffffffffffffffffffffffffffff1663a9059cbb611edb610d9d565b836040518363ffffffff1660e01b8152600401611ef99291906151ce565b602060405180830381600087803b158015611f1357600080fd5b505af1158015611f27573d6000803e3d6000fd5b505050506040513d601f19601f82011682018060405250810190611f4b9190614a9b565b505b611f61826002613cc690919063ffffffff16565b508173ffffffffffffffffffffffffffffffffffffffff167fdc23a849435922f20a9732eb85192a9d0c1cb34725ebe6d7de0be10212ba02fb60405160405180910390a25050565b60606000611fb76002613a61565b90508067ffffffffffffffff81118015611fd057600080fd5b50604051908082528060200260200182016040528015611fff5781602001602082028036833780820191505090505b50915060005b8181101561207457612021816002613a7690919063ffffffff16565b83828151811061202d57fe5b602002602001019073ffffffffffffffffffffffffffffffffffffffff16908173ffffffffffffffffffffffffffffffffffffffff16815250508080600101915050612005565b505090565b61208161260e565b73ffffffffffffffffffffffffffffffffffffffff1661209f610d9d565b73ffffffffffffffffffffffffffffffffffffffff1614612128576040517f08c379a00000000000000000000000000000000000000000000000000000000081526004018080602001828103825260208152602001807f4f776e61626c653a2063616c6c6572206973206e6f7420746865206f776e657281525060200191505060405180910390fd5b600073ffffffffffffffffffffffffffffffffffffffff168173ffffffffffffffffffffffffffffffffffffffff1614156121ae576040517f08c379a00000000000000000000000000000000000000000000000000000000081526004018080602001828103825260268152602001806158216026913960400191505060405180910390fd5b8073ffffffffffffffffffffffffffffffffffffffff1660008054906101000a900473ffffffffffffffffffffffffffffffffffffffff1673ffffffffffffffffffffffffffffffffffffffff167f8be0079c531659141344cd1fd0a4f28419497f9722a3daafe3b4186f6b6457e060405160405180910390a3806000806101000a81548173ffffffffffffffffffffffffffffffffffffffff021916908373ffffffffffffffffffffffffffffffffffffffff16021790555050565b61227361260e565b73ffffffffffffffffffffffffffffffffffffffff16612291610d9d565b73ffffffffffffffffffffffffffffffffffffffff161461231a576040517f08c379a00000000000000000000000000000000000000000000000000000000081526004018080602001828103825260208152602001807f4f776e61626c653a2063616c6c6572206973206e6f7420746865206f776e657281525060200191505060405180910390fd5b60008273ffffffffffffffffffffffffffffffffffffffff166370a08231306040518263ffffffff1660e01b815260040161235591906151b3565b60206040518083038186803b15801561236d57600080fd5b505afa158015612381573d6000803e3d6000fd5b505050506040513d601f19601f820116820180604052508101906123a59190614b3c565b9050818110612448578273ffffffffffffffffffffffffffffffffffffffff1663a9059cbb6123d2610d9d565b846040518363ffffffff1660e01b81526004016123f09291906151ce565b602060405180830381600087803b15801561240a57600080fd5b505af115801561241e573d6000803e3d6000fd5b505050506040513d601f19601f820116820180604052508101906124429190614a9b565b506124de565b8273ffffffffffffffffffffffffffffffffffffffff1663a9059cbb61246c610d9d565b836040518363ffffffff1660e01b815260040161248a9291906151ce565b602060405180830381600087803b1580156124a457600080fd5b505af11580156124b8573d6000803e3d6000fd5b505050506040513d601f19601f820116820180604052508101906124dc9190614a9b565b505b505050565b600061250b836000018373ffffffffffffffffffffffffffffffffffffffff1660001b613cf6565b905092915050565b60008151905060006a636f6e736f6c652e6c6f679050602083016000808483855afa5050505050565b6125d98363a9059cbb60e01b8484604051602401808373ffffffffffffffffffffffffffffffffffffffff16815260200182815260200192505050604051602081830303815290604052907bffffffffffffffffffffffffffffffffffffffffffffffffffffffff19166020820180517bffffffffffffffffffffffffffffffffffffffffffffffffffffffff8381831617835250505050613d66565b505050565b6000612606836000018373ffffffffffffffffffffffffffffffffffffffff1660001b613e55565b905092915050565b600033905090565b60008060008373ffffffffffffffffffffffffffffffffffffffff168573ffffffffffffffffffffffffffffffffffffffff16141561268a576040517f08c379a000000000000000000000000000000000000000000000000000000000815260040161268190615274565b60405180910390fd5b6000808673ffffffffffffffffffffffffffffffffffffffff16630dfe16816040518163ffffffff1660e01b815260040160206040518083038186803b1580156126d357600080fd5b505afa1580156126e7573d6000803e3d6000fd5b505050506040513d601f19601f8201168201806040525081019061270b9190614904565b8773ffffffffffffffffffffffffffffffffffffffff1663d21220a76040518163ffffffff1660e01b815260040160206040518083038186803b15801561275157600080fd5b505afa158015612765573d6000803e3d6000fd5b505050506040513d601f19601f820116820180604052508101906127899190614904565b915091506000808773ffffffffffffffffffffffffffffffffffffffff16630dfe16816040518163ffffffff1660e01b815260040160206040518083038186803b1580156127d657600080fd5b505afa1580156127ea573d6000803e3d6000fd5b505050506040513d601f19601f8201168201806040525081019061280e9190614904565b8873ffffffffffffffffffffffffffffffffffffffff1663d21220a76040518163ffffffff1660e01b815260040160206040518083038186803b15801561285457600080fd5b505afa158015612868573d6000803e3d6000fd5b505050506040513d601f19601f8201168201806040525081019061288c9190614904565b915091508273ffffffffffffffffffffffffffffffffffffffff168473ffffffffffffffffffffffffffffffffffffffff161080156128f657508073ffffffffffffffffffffffffffffffffffffffff168273ffffffffffffffffffffffffffffffffffffffff16105b612935576040517f08c379a000000000000000000000000000000000000000000000000000000000815260040161292c906152b4565b60405180910390fd5b8173ffffffffffffffffffffffffffffffffffffffff168473ffffffffffffffffffffffffffffffffffffffff1614801561299b57508073ffffffffffffffffffffffffffffffffffffffff168373ffffffffffffffffffffffffffffffffffffffff16145b6129da576040517f08c379a00000000000000000000000000000000000000000000000000000000081526004016129d190615374565b60405180910390fd5b6129e3846106d6565b806129f357506129f2836106d6565b5b612a32576040517f08c379a0000000000000000000000000000000000000000000000000000000008152600401612a2990615354565b60405180910390fd5b612a3b846106d6565b612a485760008385612a4d565b600184845b809750819850829950505050505050509250925092565b600080612a6f614647565b6000808773ffffffffffffffffffffffffffffffffffffffff16630902f1ac6040518163ffffffff1660e01b815260040160606040518083038186803b158015612ab857600080fd5b505afa158015612acc573d6000803e3d6000fd5b505050506040513d601f19601f82011682018060405250810190612af09190614aed565b506dffffffffffffffffffffffffffff1691506dffffffffffffffffffffffffffff1691506000808873ffffffffffffffffffffffffffffffffffffffff16630902f1ac6040518163ffffffff1660e01b815260040160606040518083038186803b158015612b5e57600080fd5b505afa158015612b72573d6000803e3d6000fd5b505050506040513d601f19601f82011682018060405250810190612b969190614aed565b506dffffffffffffffffffffffffffff1691506dffffffffffffffffffffffffffff16915060008089612bee57612bd686866136db90919063ffffffff16565b612be985856136db90919063ffffffff16565b612c15565b612c0185876136db90919063ffffffff16565b612c1484866136db90919063ffffffff16565b5b9150915080821015612c67578b8b809950819a50505089612c395784868486612c3e565b858585855b8a6000018b6020018c6040018d6060018481525084815250848152508481525050505050612ca9565b8a8c809950819a50505089612c7f5782848688612c84565b838387875b8a6000018b6020018c6040018d60600184815250848152508481525084815250505050505b612ce86040518060400160405280601181526020017f426f72726f772066726f6d20706f6f6c3a0000000000000000000000000000008152508a613e78565b612d276040518060400160405280600d81526020017f53656c6c20746f20706f6f6c3a0000000000000000000000000000000000000081525089613e78565b50505050505093509350939050565b600080612d41614647565b6000808773ffffffffffffffffffffffffffffffffffffffff16630902f1ac6040518163ffffffff1660e01b815260040160606040518083038186803b158015612d8a57600080fd5b505afa158015612d9e573d6000803e3d6000fd5b505050506040513d601f19601f82011682018060405250810190612dc29190614aed565b506dffffffffffffffffffffffffffff1691506dffffffffffffffffffffffffffff1691506000808873ffffffffffffffffffffffffffffffffffffffff16630902f1ac6040518163ffffffff1660e01b815260040160606040518083038186803b158015612e3057600080fd5b505afa158015612e44573d6000803e3d6000fd5b505050506040513d601f19601f82011682018060405250810190612e689190614aed565b506dffffffffffffffffffffffffffff1691506dffffffffffffffffffffffffffff16915060008a73ffffffffffffffffffffffffffffffffffffffff16630dfe16816040518163ffffffff1660e01b815260040160206040518083038186803b158015612ed557600080fd5b505afa158015612ee9573d6000803e3d6000fd5b505050506040513d601f19601f82011682018060405250810190612f0d9190614904565b73ffffffffffffffffffffffffffffffffffffffff1663313ce5676040518163ffffffff1660e01b815260040160206040518083038186803b158015612f5257600080fd5b505afa158015612f66573d6000803e3d6000fd5b505050506040513d601f19601f82011682018060405250810190612f8a9190614b65565b905060008b73ffffffffffffffffffffffffffffffffffffffff1663d21220a76040518163ffffffff1660e01b815260040160206040518083038186803b158015612fd457600080fd5b505afa158015612fe8573d6000803e3d6000fd5b505050506040513d601f19601f8201168201806040525081019061300c9190614904565b73ffffffffffffffffffffffffffffffffffffffff1663313ce5676040518163ffffffff1660e01b815260040160206040518083038186803b15801561305157600080fd5b505afa158015613065573d6000803e3d6000fd5b505050506040513d601f19601f820116820180604052508101906130899190614b65565b90506130be8260ff16600a0a6130b0670de0b6b3a76400008961365590919063ffffffff16565b6136db90919063ffffffff16565b95506130f38160ff16600a0a6130e5670de0b6b3a76400008861365590919063ffffffff16565b6136db90919063ffffffff16565b94506131288260ff16600a0a61311a670de0b6b3a76400008761365590919063ffffffff16565b6136db90919063ffffffff16565b935061315d8160ff16600a0a61314f670de0b6b3a76400008661365590919063ffffffff16565b6136db90919063ffffffff16565b92506000808b6131925761317a88886136db90919063ffffffff16565b61318d87876136db90919063ffffffff16565b6131b9565b6131a587896136db90919063ffffffff16565b6131b886886136db90919063ffffffff16565b5b915091508082101561320b578d8d809b50819c5050508b6131dd57868886886131e2565b878787875b8c6000018d6020018e6040018f606001848152508481525084815250848152505050505061324d565b8c8e809b50819c5050508b613223578486888a613228565b858589895b8c6000018d6020018e6040018f60600184815250848152508481525084815250505050505b61328c6040518060400160405280601181526020017f426f72726f772066726f6d20706f6f6c3a0000000000000000000000000000008152508c613e78565b6132cb6040518060400160405280600d81526020017f53656c6c20746f20706f6f6c3a000000000000000000000000000000000000008152508b613e78565b505050505050505093509350939050565b60008082602001518360000151106132f85782602001516132fe565b82600001515b90506000836060015184604001511061331b578360600151613321565b83604001515b905060008183106133325781613334565b825b9050600069d3c21bcecceda100000082111561335b5768056bc75e2d63100000905061351d565b69152d02c7e14af680000082111561337d57678ac7230489e80000905061351c565b69021e19e0c9bab240000082111561339f57670de0b6b3a7640000905061351b565b683635c9adc5dea000008211156133c05767016345785d8a0000905061351a565b68056bc75e2d631000008211156133e057662386f26fc100009050613519565b678ac7230489e800008211156133ff5766038d7ea4c680009050613518565b670de0b6b3a764000082111561341d57655af3107a40009050613517565b67016345785d8a000082111561343b576509184e72a0009050613516565b662386f26fc100008211156134575764e8d4a510009050613515565b66038d7ea4c680008211156134735764174876e8009050613514565b655af3107a400082111561348e576402540be4009050613513565b6509184e72a0008211156134a857633b9aca009050613512565b64e8d4a510008211156134c1576305f5e1009050613511565b64174876e8008211156134d957629896809050613510565b6402540be4008211156134f157620f4240905061350f565b633b9aca0082111561350857620186a0905061350e565b61271090505b5b5b5b5b5b5b5b5b5b5b5b5b5b5b5b600080600080848a600001518161353057fe5b04858b604001518161353e57fe5b04868c602001518161354c57fe5b04878d606001518161355a57fe5b04935093509350935060008184028386020390506000848601838560020202029050600084860284880203848602029050600080613599858585613f95565b915091506000821380156135ac57508682125b80156135b757508582125b806135d857506000811380156135cc57508681125b80156135d757508581125b5b613617576040517f08c379a000000000000000000000000000000000000000000000000000000000815260040161360e90615294565b60405180910390fd5b60008213801561362657508682125b801561363157508582125b61363d57898102613641565b8982025b9d5050505050505050505050505050919050565b60008083141561366857600090506136d5565b600082840290508284828161367957fe5b04146136d0576040517f08c379a000000000000000000000000000000000000000000000000000000000815260040180806020018281038252602181526020018061589d6021913960400191505060405180910390fd5b809150505b92915050565b6000808211613752576040517f08c379a000000000000000000000000000000000000000000000000000000000815260040180806020018281038252601a8152602001807f536166654d6174683a206469766973696f6e206279207a65726f00000000000081525060200191505060405180910390fd5b81838161375b57fe5b04905092915050565b60008173ffffffffffffffffffffffffffffffffffffffff1663ddca3f436040518163ffffffff1660e01b815260040160206040518083038186803b1580156137ac57600080fd5b505afa9250505080156137dd57506040513d601f19601f820116820180604052508101906137da9190614b3c565b60015b613833576137e96156a7565b806137f457506137fa565b5061382e565b3d8060008114613826576040519150601f19603f3d011682016040523d82523d6000602084013e61382b565b606091505b50505b61383c565b80915050613841565b601e90505b919050565b600080851161388a576040517f08c379a0000000000000000000000000000000000000000000000000000000008152600401613881906153b4565b60405180910390fd5b60008411801561389a5750600083115b6138d9576040517f08c379a00000000000000000000000000000000000000000000000000000000081526004016138d0906152d4565b60405180910390fd5b60006139026127106138f4888861365590919063ffffffff16565b61365590919063ffffffff16565b9050600061392f8461271003613921898861402990919063ffffffff16565b61365590919063ffffffff16565b905061394e600182848161393f57fe5b046140ac90919063ffffffff16565b92505050949350505050565b600080851161399e576040517f08c379a000000000000000000000000000000000000000000000000000000000815260040161399590615394565b60405180910390fd5b6000841180156139ae5750600083115b6139ed576040517f08c379a00000000000000000000000000000000000000000000000000000000081526004016139e4906152d4565b60405180910390fd5b6000613a0683612710038761365590919063ffffffff16565b90506000613a1d858361365590919063ffffffff16565b90506000613a4883613a3a6127108a61365590919063ffffffff16565b6140ac90919063ffffffff16565b9050808281613a5357fe5b049350505050949350505050565b6000613a6f82600001614134565b9050919050565b6000613a858360000183614145565b60001c905092915050565b613b9382826040516024018080602001838152602001828103825284818151815260200191508051906020019080838360005b83811015613ade578082015181840152602081019050613ac3565b50505050905090810190601f168015613b0b5780820380516001836020036101000a031916815260200191505b5093505050506040516020818303038152906040527f9710a9d0000000000000000000000000000000000000000000000000000000007bffffffffffffffffffffffffffffffffffffffffffffffffffffffff19166020820180517bffffffffffffffffffffffffffffffffffffffffffffffffffffffff8381831617835250505050612513565b5050565b613c92816040516024018080602001828103825283818151815260200191508051906020019080838360005b83811015613bde578082015181840152602081019050613bc3565b50505050905090810190601f168015613c0b5780820380516001836020036101000a031916815260200191505b50925050506040516020818303038152906040527f41304fac000000000000000000000000000000000000000000000000000000007bffffffffffffffffffffffffffffffffffffffffffffffffffffffff19166020820180517bffffffffffffffffffffffffffffffffffffffffffffffffffffffff8381831617835250505050612513565b50565b6000613cbe612710613cb0848661365590919063ffffffff16565b6136db90919063ffffffff16565b905092915050565b6000613cee836000018373ffffffffffffffffffffffffffffffffffffffff1660001b6141c8565b905092915050565b6000613d028383613e55565b613d5b578260000182908060018154018082558091505060019003906000526020600020016000909190919091505582600001805490508360010160008481526020019081526020016000208190555060019050613d60565b600090505b92915050565b6000613dc8826040518060400160405280602081526020017f5361666545524332303a206c6f772d6c6576656c2063616c6c206661696c65648152508573ffffffffffffffffffffffffffffffffffffffff166142b09092919063ffffffff16565b9050600081511115613e5057808060200190516020811015613de957600080fd5b8101908080519060200190929190505050613e4f576040517f08c379a000000000000000000000000000000000000000000000000000000000815260040180806020018281038252602a8152602001806158be602a913960400191505060405180910390fd5b5b505050565b600080836001016000848152602001908152602001600020541415905092915050565b613f91828260405160240180806020018373ffffffffffffffffffffffffffffffffffffffff168152602001828103825284818151815260200191508051906020019080838360005b83811015613edc578082015181840152602081019050613ec1565b50505050905090810190601f168015613f095780820380516001836020036101000a031916815260200191505b5093505050506040516020818303038152906040527f319af333000000000000000000000000000000000000000000000000000000007bffffffffffffffffffffffffffffffffffffffffffffffffffffffff19166020820180517bffffffffffffffffffffffffffffffffffffffffffffffffffffffff8381831617835250505050612513565b5050565b60008060008386600402026002860a03905060008113613fea576040517f08c379a0000000000000000000000000000000000000000000000000000000008152600401613fe1906152f4565b60405180910390fd5b6000613ff5826142c8565b9050866002028187600003018161400857fe5b059350866002028187600003038161401c57fe5b0592505050935093915050565b6000828211156140a1576040517f08c379a000000000000000000000000000000000000000000000000000000000815260040180806020018281038252601e8152602001807f536166654d6174683a207375627472616374696f6e206f766572666c6f77000081525060200191505060405180910390fd5b818303905092915050565b60008082840190508381101561412a576040517f08c379a000000000000000000000000000000000000000000000000000000000815260040180806020018281038252601b8152602001807f536166654d6174683a206164646974696f6e206f766572666c6f77000000000081525060200191505060405180910390fd5b8091505092915050565b600081600001805490509050919050565b6000818360000180549050116141a6576040517f08c379a00000000000000000000000000000000000000000000000000000000081526004018080602001828103825260228152602001806157ff6022913960400191505060405180910390fd5b8260000182815481106141b557fe5b9060005260206000200154905092915050565b600080836001016000848152602001908152602001600020549050600081146142a4576000600182039050600060018660000180549050039050600086600001828154811061421357fe5b906000526020600020015490508087600001848154811061423057fe5b906000526020600020018190555060018301876001016000838152602001908152602001600020819055508660000180548061426857fe5b600190038181906000526020600020016000905590558660010160008781526020019081526020016000206000905560019450505050506142aa565b60009150505b92915050565b60606142bf8484600085614337565b90509392505050565b6000600182116142d457fe5b6000620f424083029050600081905081925060005b6001156143215760028483816142fb57fe5b0485018161430557fe5b0490506103e8818503101561431957614321565b8093506142e9565b6103e8848161432c57fe5b049350505050919050565b606082471015614392576040517f08c379a00000000000000000000000000000000000000000000000000000000081526004018080602001828103825260268152602001806158476026913960400191505060405180910390fd5b61439b856144df565b61440d576040517f08c379a000000000000000000000000000000000000000000000000000000000815260040180806020018281038252601d8152602001807f416464726573733a2063616c6c20746f206e6f6e2d636f6e747261637400000081525060200191505060405180910390fd5b6000808673ffffffffffffffffffffffffffffffffffffffff1685876040518082805190602001908083835b6020831061445c5780518252602082019150602081019050602083039250614439565b6001836020036101000a03801982511681845116808217855250505050505090500191505060006040518083038185875af1925050503d80600081146144be576040519150601f19603f3d011682016040523d82523d6000602084013e6144c3565b606091505b50915091506144d38282866144f2565b92505050949350505050565b600080823b905060008111915050919050565b60608315614502578290506145b7565b6000835111156145155782518084602001fd5b816040517f08c379a00000000000000000000000000000000000000000000000000000000081526004018080602001828103825283818151815260200191508051906020019080838360005b8381101561457c578082015181840152602081019050614561565b50505050905090810190601f1680156145a95780820380516001836020036101000a031916815260200191505b509250505060405180910390fd5b9392505050565b6040518060a00160405280600073ffffffffffffffffffffffffffffffffffffffff168152602001600073ffffffffffffffffffffffffffffffffffffffff168152602001600015158152602001600073ffffffffffffffffffffffffffffffffffffffff168152602001600073ffffffffffffffffffffffffffffffffffffffff1681525090565b6040518060800160405280600081526020016000815260200160008152602001600081525090565b6040518060e00160405280600073ffffffffffffffffffffffffffffffffffffffff168152602001600073ffffffffffffffffffffffffffffffffffffffff168152602001600015158152602001600073ffffffffffffffffffffffffffffffffffffffff168152602001600073ffffffffffffffffffffffffffffffffffffffff16815260200160008152602001600081525090565b6000614719614714846154b5565b615484565b90508281526020810184848401111561473157600080fd5b61473c848285615645565b509392505050565b6000813590506147538161575d565b92915050565b6000815190506147688161575d565b92915050565b60008135905061477d81615774565b92915050565b6000815190506147928161578b565b92915050565b600082601f8301126147a957600080fd5b81356147b9848260208601614706565b91505092915050565b600060e082840312156147d457600080fd5b6147de60e0615484565b905060006147ee84828501614759565b600083015250602061480284828501614759565b602083015250604061481684828501614783565b604083015250606061482a84828501614759565b606083015250608061483e84828501614759565b60808301525060a06148528482850161489c565b60a08301525060c06148668482850161489c565b60c08301525092915050565b600081519050614881816157a2565b92915050565b600081359050614896816157b9565b92915050565b6000815190506148ab816157b9565b92915050565b6000815190506148c0816157d0565b92915050565b6000815190506148d5816157e7565b92915050565b6000602082840312156148ed57600080fd5b60006148fb84828501614744565b91505092915050565b60006020828403121561491657600080fd5b600061492484828501614759565b91505092915050565b6000806000806080858703121561494357600080fd5b60006149518782880161476e565b945050602061496287828801614887565b935050604061497387828801614887565b925050606085013567ffffffffffffffff81111561499057600080fd5b61499c87828801614798565b91505092959194509250565b600080604083850312156149bb57600080fd5b60006149c985828601614744565b92505060206149da85828601614744565b9150509250929050565b600080604083850312156149f757600080fd5b6000614a0585828601614744565b9250506020614a1685828601614887565b9150509250929050565b60008060008060808587031215614a3657600080fd5b6000614a4487828801614744565b9450506020614a5587828801614887565b9350506040614a6687828801614887565b925050606085013567ffffffffffffffff811115614a8357600080fd5b614a8f87828801614798565b91505092959194509250565b600060208284031215614aad57600080fd5b6000614abb84828501614783565b91505092915050565b600060e08284031215614ad657600080fd5b6000614ae4848285016147c2565b91505092915050565b600080600060608486031215614b0257600080fd5b6000614b1086828701614872565b9350506020614b2186828701614872565b9250506040614b32868287016148b1565b9150509250925092565b600060208284031215614b4e57600080fd5b6000614b5c8482850161489c565b91505092915050565b600060208284031215614b7757600080fd5b6000614b85848285016148c6565b91505092915050565b6000614b9a8383614bb5565b60208301905092915050565b614baf8161560f565b82525050565b614bbe8161557e565b82525050565b614bcd8161557e565b82525050565b6000614bde826154f5565b614be88185615518565b9350614bf3836154e5565b8060005b83811015614c24578151614c0b8882614b8e565b9750614c168361550b565b925050600181019050614bf7565b5085935050505092915050565b614c3a816155a2565b82525050565b614c49816155a2565b82525050565b6000614c5a82615500565b614c648185615529565b9350614c74818560208601615654565b614c7d81615689565b840191505092915050565b6000614c95601b8361553a565b91507f424f543a204e6f742066726f6d207468697320636f6e747261637400000000006000830152602082019050919050565b6000614cd560248361553a565b91507f424f543a20466c61736820617262697472616765206661696c2c206e6f20707260008301527f6f666974000000000000000000000000000000000000000000000000000000006020830152604082019050919050565b6000614d3b60168361553a565b91507f424f543a2053616d6520706169722061646472657373000000000000000000006000830152602082019050919050565b6000614d7b60168361553a565b91507f424f543a2057726f6e6720696e707574206f72646572000000000000000000006000830152602082019050919050565b6000614dbb60228361553a565b91507f424f543a204e6f6e207374616e6461726420756e697377617020414d4d20706160008301527f69720000000000000000000000000000000000000000000000000000000000006020830152604082019050919050565b6000614e21602d8361553a565b91507f424f543a20556e697377617056324c6962726172793a20494e5355464649434960008301527f454e545f4c4951554944495459000000000000000000000000000000000000006020830152604082019050919050565b6000614e8760138361553a565b91507f424f543a20436f6d706c6578206e756d626572000000000000000000000000006000830152602082019050919050565b6000614ec760228361553a565b91507f424f543a204e6f6e207065726d697373696f6e6564206164647265737320636160008301527f6c6c0000000000000000000000000000000000000000000000000000000000006020830152604082019050919050565b6000614f2d60118361553a565b91507f424f543a204c6f73696e67206d6f6e65790000000000000000000000000000006000830152602082019050919050565b6000614f6d601a8361553a565b91507f424f543a204e6f206261736520746f6b656e20696e20706169720000000000006000830152602082019050919050565b6000614fad601c8361553a565b91507f424f543a20526571756972652073616d6520746f6b656e2070616972000000006000830152602082019050919050565b6000614fed60308361553a565b91507f424f543a20556e697377617056324c6962726172793a20494e5355464649434960008301527f454e545f494e5055545f414d4f554e54000000000000000000000000000000006020830152604082019050919050565b600061505360318361553a565b91507f424f543a20556e697377617056324c6962726172793a20494e5355464649434960008301527f454e545f4f55545055545f414d4f554e540000000000000000000000000000006020830152604082019050919050565b60006150b9601e8361553a565b91507f424f543a20417262697472616765206661696c2c206e6f2070726f66697400006000830152602082019050919050565b60e0820160008201516151026000850182614bb5565b5060208201516151156020850182614bb5565b5060408201516151286040850182614c31565b50606082015161513b6060850182614bb5565b50608082015161514e6080850182614bb5565b5060a082015161516160a085018261517a565b5060c082015161517460c085018261517a565b50505050565b615183816155e8565b82525050565b615192816155e8565b82525050565b60006020820190506151ad6000830184614bc4565b92915050565b60006020820190506151c86000830184614ba6565b92915050565b60006040820190506151e36000830185614bc4565b6151f06020830184615189565b9392505050565b600060208201905081810360008301526152118184614bd3565b905092915050565b600060208201905061522e6000830184614c40565b92915050565b6000602082019050818103600083015261524d81614c88565b9050919050565b6000602082019050818103600083015261526d81614cc8565b9050919050565b6000602082019050818103600083015261528d81614d2e565b9050919050565b600060208201905081810360008301526152ad81614d6e565b9050919050565b600060208201905081810360008301526152cd81614dae565b9050919050565b600060208201905081810360008301526152ed81614e14565b9050919050565b6000602082019050818103600083015261530d81614e7a565b9050919050565b6000602082019050818103600083015261532d81614eba565b9050919050565b6000602082019050818103600083015261534d81614f20565b9050919050565b6000602082019050818103600083015261536d81614f60565b9050919050565b6000602082019050818103600083015261538d81614fa0565b9050919050565b600060208201905081810360008301526153ad81614fe0565b9050919050565b600060208201905081810360008301526153cd81615046565b9050919050565b600060208201905081810360008301526153ed816150ac565b9050919050565b600060e08201905061540960008301846150ec565b92915050565b60006040820190506154246000830185615189565b6154316020830184614bc4565b9392505050565b600060808201905061544d6000830187615189565b61545a6020830186615189565b6154676040830185614ba6565b81810360608301526154798184614c4f565b905095945050505050565b6000604051905081810181811067ffffffffffffffff821117156154ab576154aa615687565b5b8060405250919050565b600067ffffffffffffffff8211156154d0576154cf615687565b5b601f19601f8301169050602081019050919050565b6000819050602082019050919050565b600081519050919050565b600081519050919050565b6000602082019050919050565b600082825260208201905092915050565b600082825260208201905092915050565b600082825260208201905092915050565b6000808585111561555b57600080fd5b8386111561556857600080fd5b6001850283019150848603905094509492505050565b6000615589826155c8565b9050919050565b600061559b826155c8565b9050919050565b60008115159050919050565b60006dffffffffffffffffffffffffffff82169050919050565b600073ffffffffffffffffffffffffffffffffffffffff82169050919050565b6000819050919050565b600063ffffffff82169050919050565b600060ff82169050919050565b600061561a82615621565b9050919050565b600061562c82615633565b9050919050565b600061563e826155c8565b9050919050565b82818337600083830152505050565b60005b83811015615672578082015181840152602081019050615657565b83811115615681576000848401525b50505050565bfe5b6000601f19601f8301169050919050565b60008160e01c9050919050565b600060443d10156156b75761575a565b60046000803e6156c860005161569a565b6308c379a081146156d9575061575a565b60405160043d036004823e80513d602482011167ffffffffffffffff821117156157055750505061575a565b808201805167ffffffffffffffff81111561572457505050505061575a565b8060208301013d850181111561573f5750505050505061575a565b61574882615689565b60208401016040528296505050505050505b90565b6157668161557e565b811461577157600080fd5b50565b61577d81615590565b811461578857600080fd5b50565b615794816155a2565b811461579f57600080fd5b50565b6157ab816155ae565b81146157b657600080fd5b50565b6157c2816155e8565b81146157cd57600080fd5b50565b6157d9816155f2565b81146157e457600080fd5b50565b6157f081615602565b81146157fb57600080fd5b5056fe456e756d657261626c655365743a20696e646578206f7574206f6620626f756e64734f776e61626c653a206e6577206f776e657220697320746865207a65726f2061646472657373416464726573733a20696e73756666696369656e742062616c616e636520666f722063616c6c66616c6c6c6261636b20756e6973776170563243616c6c2073656e6465722c20616d6f756e74302c20616d6f756e7431536166654d6174683a206d756c7469706c69636174696f6e206f766572666c6f775361666545524332303a204552433230206f7065726174696f6e20646964206e6f742073756363656564a2646970667358221220e0915db4819e43845daf3d87ba44c809de46b0812cd2b849dfd2358f000cf2dd64736f6c63430007060033",
  "devdoc": {
    "kind": "dev",
    "methods": {
      "flashArbitrage(address,address)": {
        "details": "Two pools must contains same token pair"
      },
      "owner()": {
        "details": "Returns the address of the current owner."
      },
      "renounceOwnership()": {
        "details": "Leaves the contract without owner. It will not be possible to call `onlyOwner` functions anymore. Can only be called by the current owner. NOTE: Renouncing ownership will leave the contract without an owner, thereby removing any functionality that is only available to the owner."
      },
      "transferOwnership(address)": {
        "details": "Transfers ownership of the contract to a new account (`newOwner`). Can only be called by the current owner."
      }
    },
    "version": 1
  },
  "userdoc": {
    "kind": "user",
    "methods": {
      "flashArbitrage(address,address)": {
        "notice": "Do an arbitrage between two Uniswap-like AMM pools"
      },
      "getProfit(address,address)": {
        "notice": "Calculate how much profit we can by arbitraging between two pools"
      }
    },
    "version": 1
  },
  "storageLayout": {
    "storage": [
      {
        "astId": 7,
        "contract": "contracts/FlashBot.sol:FlashBot",
        "label": "_owner",
        "offset": 0,
        "slot": "0",
        "type": "t_address"
      },
      {
        "astId": 2138,
        "contract": "contracts/FlashBot.sol:FlashBot",
        "label": "permissionedPairAddress",
        "offset": 0,
        "slot": "1",
        "type": "t_address"
      },
      {
        "astId": 2142,
        "contract": "contracts/FlashBot.sol:FlashBot",
        "label": "baseTokens",
        "offset": 0,
        "slot": "2",
        "type": "t_struct(AddressSet)1853_storage"
      }
    ],
    "types": {
      "t_address": {
        "encoding": "inplace",
        "label": "address",
        "numberOfBytes": "20"
      },
      "t_array(t_bytes32)dyn_storage": {
        "base": "t_bytes32",
        "encoding": "dynamic_array",
        "label": "bytes32[]",
        "numberOfBytes": "32"
      },
      "t_bytes32": {
        "encoding": "inplace",
        "label": "bytes32",
        "numberOfBytes": "32"
      },
      "t_mapping(t_bytes32,t_uint256)": {
        "encoding": "mapping",
        "key": "t_bytes32",
        "label": "mapping(bytes32 => uint256)",
        "numberOfBytes": "32",
        "value": "t_uint256"
      },
      "t_struct(AddressSet)1853_storage": {
        "encoding": "inplace",
        "label": "struct EnumerableSet.AddressSet",
        "members": [
          {
            "astId": 1852,
            "contract": "contracts/FlashBot.sol:FlashBot",
            "label": "_inner",
            "offset": 0,
            "slot": "0",
            "type": "t_struct(Set)1588_storage"
          }
        ],
        "numberOfBytes": "64"
      },
      "t_struct(Set)1588_storage": {
        "encoding": "inplace",
        "label": "struct EnumerableSet.Set",
        "members": [
          {
            "astId": 1583,
            "contract": "contracts/FlashBot.sol:FlashBot",
            "label": "_values",
            "offset": 0,
            "slot": "0",
            "type": "t_array(t_bytes32)dyn_storage"
          },
          {
            "astId": 1587,
            "contract": "contracts/FlashBot.sol:FlashBot",
            "label": "_indexes",
            "offset": 0,
            "slot": "1",
            "type": "t_mapping(t_bytes32,t_uint256)"
          }
        ],
        "numberOfBytes": "64"
      },
      "t_uint256": {
        "encoding": "inplace",
        "label": "uint256",
        "numberOfBytes": "32"
      }
    }
  }
}