{
  "address": "0xBF1B05ea640581e1E571990518fFA440d39580A3",
  "abi": [
    {
      "inputs": [
        {
          "internalType": "address",
          "name": "_WETH",
          "type": "address"
        },
        {
          "internalType": "address[]",
          "name": "_baseTokens",
          "type": "address[]"
        }
      ],
      "stateMutability": "nonpayable",
      "type": "constructor"
    },
    {
      "anonymous": false,
      "inputs": [
        {
          "indexed": true,
          "internalType": "address",
          "name": "token",
          "type": "address"
        }
      ],
      "name": "BaseTokenAdded",
      "type": "event"
    },
    {
      "anonymous": false,
      "inputs": [
        {
          "indexed": true,
          "internalType": "address",
          "name": "token",
          "type": "address"
        }
      ],
      "name": "BaseTokenRemoved",
      "type": "event"
    },
    {
      "anonymous": false,
      "inputs": [
        {
          "indexed": true,
          "internalType": "address",
          "name": "previousOwner",
          "type": "address"
        },
        {
          "indexed": true,
          "internalType": "address",
          "name": "newOwner",
          "type": "address"
        }
      ],
      "name": "OwnershipTransferred",
      "type": "event"
    },
    {
      "anonymous": false,
      "inputs": [
        {
          "indexed": true,
          "internalType": "address",
          "name": "to",
          "type": "address"
        },
        {
          "indexed": true,
          "internalType": "uint256",
          "name": "value",
          "type": "uint256"
        }
      ],
      "name": "Withdrawn",
      "type": "event"
    },
    {
      "inputs": [],
      "name": "WETH",
      "outputs": [
        {
          "internalType": "address",
          "name": "",
          "type": "address"
        }
      ],
      "stateMutability": "view",
      "type": "function"
    },
    {
      "inputs": [
        {
          "internalType": "address",
          "name": "token",
          "type": "address"
        }
      ],
      "name": "addBaseToken",
      "outputs": [],
      "stateMutability": "nonpayable",
      "type": "function"
    },
    {
      "inputs": [
        {
          "internalType": "address",
          "name": "pool0",
          "type": "address"
        },
        {
          "internalType": "address",
          "name": "pool1",
          "type": "address"
        }
      ],
      "name": "flashArbitrage",
      "outputs": [],
      "stateMutability": "nonpayable",
      "type": "function"
    },
    {
      "inputs": [],
      "name": "getBaseTokens",
      "outputs": [
        {
          "internalType": "address[]",
          "name": "tokens",
          "type": "address[]"
        }
      ],
      "stateMutability": "view",
      "type": "function"
    },
    {
      "inputs": [],
      "name": "getOwner",
      "outputs": [
        {
          "internalType": "address",
          "name": "",
          "type": "address"
        }
      ],
      "stateMutability": "view",
      "type": "function"
    },
    {
      "inputs": [
        {
          "internalType": "address",
          "name": "pool0",
          "type": "address"
        },
        {
          "internalType": "address",
          "name": "pool1",
          "type": "address"
        }
      ],
      "name": "getProfit",
      "outputs": [
        {
          "internalType": "uint256",
          "name": "profit",
          "type": "uint256"
        },
        {
          "internalType": "address",
          "name": "baseToken",
          "type": "address"
        }
      ],
      "stateMutability": "view",
      "type": "function"
    },
    {
      "inputs": [
        {
          "internalType": "address",
          "name": "newOwner",
          "type": "address"
        }
      ],
      "name": "initOwner",
      "outputs": [],
      "stateMutability": "nonpayable",
      "type": "function"
    },
    {
      "inputs": [
        {
          "internalType": "address",
          "name": "_WETH",
          "type": "address"
        },
        {
          "internalType": "address[]",
          "name": "_baseTokens",
          "type": "address[]"
        }
      ],
      "name": "initialize",
      "outputs": [],
      "stateMutability": "nonpayable",
      "type": "function"
    },
    {
      "inputs": [
        {
          "internalType": "address",
          "name": "token",
          "type": "address"
        }
      ],
      "name": "removeBaseToken",
      "outputs": [],
      "stateMutability": "nonpayable",
      "type": "function"
    },
    {
      "inputs": [
        {
          "internalType": "address",
          "name": "newOwner",
          "type": "address"
        }
      ],
      "name": "transferContractOwnership",
      "outputs": [],
      "stateMutability": "nonpayable",
      "type": "function"
    },
    {
      "inputs": [
        {
          "internalType": "address",
          "name": "token",
          "type": "address"
        },
        {
          "internalType": "uint256",
          "name": "amount",
          "type": "uint256"
        }
      ],
      "name": "withdraw",
      "outputs": [],
      "stateMutability": "nonpayable",
      "type": "function"
    },
    {
      "inputs": [],
      "name": "withdrawAll",
      "outputs": [],
      "stateMutability": "nonpayable",
      "type": "function"
    },
    {
      "stateMutability": "payable",
      "type": "receive"
    }
  ],
  "transactionHash": "0x8d06050e3e2f8bf47854b1376887461bb7f0d682817a7b272e33a403ca5a5f6b",
  "args": [
    "0x0d500B1d8E8eF31E21C99d1Db9A6444d3ADf1270",
    [
      "0x2791Bca1f2de4661ED88A30C99A7a9449Aa84174",
      "0xc2132D05D31c914a87C6611C10748AEb04B58e8F"
    ]
  ],
  "solcInputHash": "cb36a62ea0ff85e25c061694f30e00c0",
  "bytecode": "0x60806040523480156200001157600080fd5b5060405162004ee438038062004ee48339818101604052810190620000379190620006fd565b620000576200004b6200007160201b60201c565b6200007960201b60201c565b6200006982826200013d60201b60201c565b505062000a15565b600033905090565b60008060009054906101000a900473ffffffffffffffffffffffffffffffffffffffff169050816000806101000a81548173ffffffffffffffffffffffffffffffffffffffff021916908373ffffffffffffffffffffffffffffffffffffffff1602179055508173ffffffffffffffffffffffffffffffffffffffff168173ffffffffffffffffffffffffffffffffffffffff167f8be0079c531659141344cd1fd0a4f28419497f9722a3daafe3b4186f6b6457e060405160405180910390a35050565b600060159054906101000a900460ff1680620001665750600060149054906101000a900460ff16155b620001a8576040517f08c379a00000000000000000000000000000000000000000000000000000000081526004016200019f90620007a5565b60405180910390fd5b60008060159054906101000a900460ff161590508015620001fa576001600060156101000a81548160ff0219169083151502179055506001600060146101000a81548160ff0219169083151502179055505b6200021a6200020e6200007160201b60201c565b6200031460201b60201c565b82600160006101000a81548173ffffffffffffffffffffffffffffffffffffffff021916908373ffffffffffffffffffffffffffffffffffffffff160217905550620002768360026200040e60201b62001b111790919060201c565b5060005b8251811015620002ec57620002d6838281518110620002c2577f4e487b7100000000000000000000000000000000000000000000000000000000600052603260045260246000fd5b60200260200101516200044660201b60201c565b8080620002e390620008c6565b9150506200027a565b5080156200030f5760008060156101000a81548160ff0219169083151502179055505b505050565b600073ffffffffffffffffffffffffffffffffffffffff1660008054906101000a900473ffffffffffffffffffffffffffffffffffffffff1673ffffffffffffffffffffffffffffffffffffffff16146200036f576200040b565b806000806101000a81548173ffffffffffffffffffffffffffffffffffffffff021916908373ffffffffffffffffffffffffffffffffffffffff1602179055508073ffffffffffffffffffffffffffffffffffffffff16600073ffffffffffffffffffffffffffffffffffffffff167f8be0079c531659141344cd1fd0a4f28419497f9722a3daafe3b4186f6b6457e060405160405180910390a35b50565b60006200043e836000018373ffffffffffffffffffffffffffffffffffffffff1660001b6200057e60201b60201c565b905092915050565b620004566200007160201b60201c565b73ffffffffffffffffffffffffffffffffffffffff166200047c620005f860201b60201c565b73ffffffffffffffffffffffffffffffffffffffff161480620004da5750600073ffffffffffffffffffffffffffffffffffffffff16620004c2620005f860201b60201c565b73ffffffffffffffffffffffffffffffffffffffff16145b6200051c576040517f08c379a00000000000000000000000000000000000000000000000000000000081526004016200051390620007c7565b60405180910390fd5b620005378160026200040e60201b62001b111790919060201c565b508073ffffffffffffffffffffffffffffffffffffffff167ffa1388d6e7328e9c711a539b0addfc27de8bfb6f5924cce26f80f41023b1525360405160405180910390a250565b60006200059283836200062160201b60201c565b620005ed578260000182908060018154018082558091505060019003906000526020600020016000909190919091505582600001805490508360010160008481526020019081526020016000208190555060019050620005f2565b600090505b92915050565b60008060009054906101000a900473ffffffffffffffffffffffffffffffffffffffff16905090565b600080836001016000848152602001908152602001600020541415905092915050565b60006200065b620006558462000812565b620007e9565b905080838252602082019050828560208602820111156200067b57600080fd5b60005b85811015620006af5781620006948882620006b9565b8452602084019350602083019250506001810190506200067e565b5050509392505050565b600081519050620006ca81620009fb565b92915050565b600082601f830112620006e257600080fd5b8151620006f484826020860162000644565b91505092915050565b600080604083850312156200071157600080fd5b60006200072185828601620006b9565b925050602083015167ffffffffffffffff8111156200073f57600080fd5b6200074d85828601620006d0565b9150509250929050565b600062000766602e8362000841565b9150620007738262000983565b604082019050919050565b60006200078d60208362000841565b91506200079a82620009d2565b602082019050919050565b60006020820190508181036000830152620007c08162000757565b9050919050565b60006020820190508181036000830152620007e2816200077e565b9050919050565b6000620007f562000808565b905062000803828262000890565b919050565b6000604051905090565b600067ffffffffffffffff82111562000830576200082f62000943565b5b602082029050602081019050919050565b600082825260208201905092915050565b60006200085f8262000866565b9050919050565b600073ffffffffffffffffffffffffffffffffffffffff82169050919050565b6000819050919050565b6200089b8262000972565b810181811067ffffffffffffffff82111715620008bd57620008bc62000943565b5b80604052505050565b6000620008d38262000886565b91507fffffffffffffffffffffffffffffffffffffffffffffffffffffffffffffffff82141562000909576200090862000914565b5b600182019050919050565b7f4e487b7100000000000000000000000000000000000000000000000000000000600052601160045260246000fd5b7f4e487b7100000000000000000000000000000000000000000000000000000000600052604160045260246000fd5b6000601f19601f8301169050919050565b7f496e697469616c697a61626c653a20636f6e747261637420697320616c72656160008201527f647920696e697469616c697a6564000000000000000000000000000000000000602082015250565b7f4f776e61626c653a2063616c6c6572206973206e6f7420746865206f776e6572600082015250565b62000a068162000852565b811462000a1257600080fd5b50565b6144bf8062000a256000396000f3fe6080604052600436106100ab5760003560e01c8063a843c51f11610064578063a843c51f146101b2578063ad5c4648146101db578063baee64f114610206578063bbd1e1221461022f578063bed64c2f14610258578063f3fef3a314610283576100b2565b80630d009297146100b7578063759eee10146100e057806383e280d91461011e578063853828b614610147578063893d20e81461015e578063946d920414610189576100b2565b366100b257005b600080fd5b3480156100c357600080fd5b506100de60048036038101906100d9919061324b565b6102ac565b005b3480156100ec57600080fd5b506101076004803603810190610102919061329d565b6103a4565b604051610115929190613b05565b60405180910390f35b34801561012a57600080fd5b506101456004803603810190610140919061324b565b610654565b005b34801561015357600080fd5b5061015c610769565b005b34801561016a57600080fd5b50610173610a39565b60405161018091906137dd565b60405180910390f35b34801561019557600080fd5b506101b060048036038101906101ab91906132d9565b610a62565b005b3480156101be57600080fd5b506101d960048036038101906101d4919061324b565b610c0f565b005b3480156101e757600080fd5b506101f0610d45565b6040516101fd91906137dd565b60405180910390f35b34801561021257600080fd5b5061022d6004803603810190610228919061329d565b610d6b565b005b34801561023b57600080fd5b506102566004803603810190610251919061324b565b611521565b005b34801561026457600080fd5b5061026d611763565b60405161027a9190613821565b60405180910390f35b34801561028f57600080fd5b506102aa60048036038101906102a5919061332d565b61188e565b005b600073ffffffffffffffffffffffffffffffffffffffff1660008054906101000a900473ffffffffffffffffffffffffffffffffffffffff1673ffffffffffffffffffffffffffffffffffffffff1614610305576103a1565b806000806101000a81548173ffffffffffffffffffffffffffffffffffffffff021916908373ffffffffffffffffffffffffffffffffffffffff1602179055508073ffffffffffffffffffffffffffffffffffffffff16600073ffffffffffffffffffffffffffffffffffffffff167f8be0079c531659141344cd1fd0a4f28419497f9722a3daafe3b4186f6b6457e060405160405180910390a35b50565b6000806000806103b48686611b41565b509150915080925060008060006103cc898987611fb0565b92509250925060008673ffffffffffffffffffffffffffffffffffffffff166370a08231306040518263ffffffff1660e01b815260040161040d91906137dd565b60206040518083038186803b15801561042557600080fd5b505afa158015610439573d6000803e3d6000fd5b505050506040513d601f19601f8201168201806040525081019061045d91906133e1565b905061049e6040518060400160405280601081526020017f2b626173655374617274416d6f756e7400000000000000000000000000000000815250826122b2565b60006104a98561234e565b90506104ea6040518060400160405280600581526020017f2b66656531000000000000000000000000000000000000000000000000000000815250826122b2565b600061050083856000015186602001518561250d565b90506105416040518060400160405280600f81526020017f2b71756f74654f7574416d6f756e740000000000000000000000000000000000815250826122b2565b600061054c8661234e565b905061058d6040518060400160405280600581526020017f2b66656532000000000000000000000000000000000000000000000000000000815250826122b2565b60006105a383876060015188604001518561250d565b90506105e46040518060400160405280600e81526020017f2b626173654f7574416d6f756e74000000000000000000000000000000000000815250826122b2565b848110156105f55760009b50610643565b84816106019190613d28565b9b506106426040518060400160405280600781526020017f2b70726f666974000000000000000000000000000000000000000000000000008152508d6122b2565b5b505050505050505050509250929050565b61065c61261f565b73ffffffffffffffffffffffffffffffffffffffff1661067a610a39565b73ffffffffffffffffffffffffffffffffffffffff1614806106cf5750600073ffffffffffffffffffffffffffffffffffffffff166106b7610a39565b73ffffffffffffffffffffffffffffffffffffffff16145b61070e576040517f08c379a0000000000000000000000000000000000000000000000000000000008152600401610705906139e5565b60405180910390fd5b610722816002611b1190919063ffffffff16565b508073ffffffffffffffffffffffffffffffffffffffff167ffa1388d6e7328e9c711a539b0addfc27de8bfb6f5924cce26f80f41023b1525360405160405180910390a250565b61077161261f565b73ffffffffffffffffffffffffffffffffffffffff1661078f610a39565b73ffffffffffffffffffffffffffffffffffffffff1614806107e45750600073ffffffffffffffffffffffffffffffffffffffff166107cc610a39565b73ffffffffffffffffffffffffffffffffffffffff16145b610823576040517f08c379a000000000000000000000000000000000000000000000000000000000815260040161081a906139e5565b60405180910390fd5b600047905060008111156108cb57610839610a39565b73ffffffffffffffffffffffffffffffffffffffff166108fc829081150290604051600060405180830381858888f1935050505015801561087e573d6000803e3d6000fd5b5080610888610a39565b73ffffffffffffffffffffffffffffffffffffffff167f7084f5476618d8e60b11ef0d7d3f06914655adb8793e28ff7f018d4c76d505d560405160405180910390a35b60005b6108d86002612627565b811015610a355760006108f582600261263c90919063ffffffff16565b90508073ffffffffffffffffffffffffffffffffffffffff166370a08231306040518263ffffffff1660e01b815260040161093091906137dd565b60206040518083038186803b15801561094857600080fd5b505afa15801561095c573d6000803e3d6000fd5b505050506040513d601f19601f8201168201806040525081019061098091906133e1565b92506000831115610a21578073ffffffffffffffffffffffffffffffffffffffff1663a9059cbb6109af610a39565b856040518363ffffffff1660e01b81526004016109cd9291906137f8565b602060405180830381600087803b1580156109e757600080fd5b505af11580156109fb573d6000803e3d6000fd5b505050506040513d601f19601f82011682018060405250810190610a1f9190613369565b505b508080610a2d90613e32565b9150506108ce565b5050565b60008060009054906101000a900473ffffffffffffffffffffffffffffffffffffffff16905090565b600060159054906101000a900460ff1680610a8a5750600060149054906101000a900460ff16155b610ac9576040517f08c379a0000000000000000000000000000000000000000000000000000000008152600401610ac0906139a5565b60405180910390fd5b60008060159054906101000a900460ff161590508015610b1a576001600060156101000a81548160ff0219169083151502179055506001600060146101000a81548160ff0219169083151502179055505b610b2a610b2561261f565b6102ac565b82600160006101000a81548173ffffffffffffffffffffffffffffffffffffffff021916908373ffffffffffffffffffffffffffffffffffffffff160217905550610b7f836002611b1190919063ffffffff16565b5060005b8251811015610be857610bd5838281518110610bc8577f4e487b7100000000000000000000000000000000000000000000000000000000600052603260045260246000fd5b6020026020010151610654565b8080610be090613e32565b915050610b83565b508015610c0a5760008060156101000a81548160ff0219169083151502179055505b505050565b610c1761261f565b73ffffffffffffffffffffffffffffffffffffffff16610c35610a39565b73ffffffffffffffffffffffffffffffffffffffff161480610c8a5750600073ffffffffffffffffffffffffffffffffffffffff16610c72610a39565b73ffffffffffffffffffffffffffffffffffffffff16145b610cc9576040517f08c379a0000000000000000000000000000000000000000000000000000000008152600401610cc0906139e5565b60405180910390fd5b600073ffffffffffffffffffffffffffffffffffffffff168173ffffffffffffffffffffffffffffffffffffffff161415610d39576040517f08c379a0000000000000000000000000000000000000000000000000000000008152600401610d30906138e5565b60405180910390fd5b610d4281612656565b50565b600160009054906101000a900473ffffffffffffffffffffffffffffffffffffffff1681565b610d7361305e565b610d7d8383611b41565b8360400184600001856020018373ffffffffffffffffffffffffffffffffffffffff1673ffffffffffffffffffffffffffffffffffffffff168152508373ffffffffffffffffffffffffffffffffffffffff1673ffffffffffffffffffffffffffffffffffffffff168152508315151515815250505050610dfc6130e7565b610e0b84848460400151611fb0565b84606001856080018295508373ffffffffffffffffffffffffffffffffffffffff1673ffffffffffffffffffffffffffffffffffffffff168152508373ffffffffffffffffffffffffffffffffffffffff1673ffffffffffffffffffffffffffffffffffffffff168152505050506000826000015173ffffffffffffffffffffffffffffffffffffffff166370a08231306040518263ffffffff1660e01b8152600401610eb891906137dd565b60206040518083038186803b158015610ed057600080fd5b505afa158015610ee4573d6000803e3d6000fd5b505050506040513d601f19601f82011682018060405250810190610f0891906133e1565b9050610f496040518060400160405280600e81526020017f2d62616c616e63654265666f7265000000000000000000000000000000000000815250826122b2565b6000610f58846060015161234e565b9050610f996040518060400160405280600581526020017f2d66656531000000000000000000000000000000000000000000000000000000815250826122b2565b6000829050610fdd6040518060400160405280600c81526020017f2d7374617274416d6f756e740000000000000000000000000000000000000000815250826122b2565b6000610ff382866000015187602001518661250d565b90506110346040518060400160405280600f81526020017f2d71756f74654f7574416d6f756e740000000000000000000000000000000000815250826122b2565b6000611043876080015161234e565b90506110846040518060400160405280600581526020017f2d66656532000000000000000000000000000000000000000000000000000000815250826122b2565b600061109a83886060015189604001518561250d565b90506110db6040518060400160405280600e81526020017f2d626173654f7574416d6f756e74000000000000000000000000000000000000815250826122b2565b83811161111d576040517f08c379a000000000000000000000000000000000000000000000000000000000815260040161111490613a85565b60405180910390fd5b6111676040518060400160405280601281526020017f2d657374696d617465642070726f6669743a000000000000000000000000000081525085836111629190613d28565b6122b2565b6060868511156111ac576040517f08c379a00000000000000000000000000000000000000000000000000000000081526004016111a390613ac5565b60405180910390fd5b6111df8960600151868b6000015173ffffffffffffffffffffffffffffffffffffffff1661271a9092919063ffffffff16565b6000808a604001516111f3578560006111f7565b6000865b915091508a6060015173ffffffffffffffffffffffffffffffffffffffff1663022c0d9f838330876040518563ffffffff1660e01b815260040161123e9493929190613b2e565b600060405180830381600087803b15801561125857600080fd5b505af115801561126c573d6000803e3d6000fd5b50505050600080831161127f5781611281565b825b90506112b68c60800151828e6020015173ffffffffffffffffffffffffffffffffffffffff1661271a9092919063ffffffff16565b6000808d604001516112ca576000876112ce565b8660005b915091508d6080015173ffffffffffffffffffffffffffffffffffffffff1663022c0d9f8383308a6040518563ffffffff1660e01b81526004016113159493929190613b2e565b600060405180830381600087803b15801561132f57600080fd5b505af1158015611343573d6000803e3d6000fd5b5050505050505050505050505050506000836000015173ffffffffffffffffffffffffffffffffffffffff166370a08231306040518263ffffffff1660e01b815260040161139191906137dd565b60206040518083038186803b1580156113a957600080fd5b505afa1580156113bd573d6000803e3d6000fd5b505050506040513d601f19601f820116820180604052508101906113e191906133e1565b9050818111611425576040517f08c379a000000000000000000000000000000000000000000000000000000000815260040161141c90613a05565b60405180910390fd5b600082826114339190613d28565b905061147f6040518060400160405280601081526020017f2d72656365697665642070726f66697400000000000000000000000000000000815250848461147a9190613d28565b6122b2565b846000015173ffffffffffffffffffffffffffffffffffffffff1663a9059cbb6114a7610a39565b836040518363ffffffff1660e01b81526004016114c59291906137f8565b602060405180830381600087803b1580156114df57600080fd5b505af11580156114f3573d6000803e3d6000fd5b505050506040513d601f19601f820116820180604052508101906115179190613369565b5050505050505050565b61152961261f565b73ffffffffffffffffffffffffffffffffffffffff16611547610a39565b73ffffffffffffffffffffffffffffffffffffffff16148061159c5750600073ffffffffffffffffffffffffffffffffffffffff16611584610a39565b73ffffffffffffffffffffffffffffffffffffffff16145b6115db576040517f08c379a00000000000000000000000000000000000000000000000000000000081526004016115d2906139e5565b60405180910390fd5b60008173ffffffffffffffffffffffffffffffffffffffff166370a08231306040518263ffffffff1660e01b815260040161161691906137dd565b60206040518083038186803b15801561162e57600080fd5b505afa158015611642573d6000803e3d6000fd5b505050506040513d601f19601f8201168201806040525081019061166691906133e1565b90506000811115611707578173ffffffffffffffffffffffffffffffffffffffff1663a9059cbb611695610a39565b836040518363ffffffff1660e01b81526004016116b39291906137f8565b602060405180830381600087803b1580156116cd57600080fd5b505af11580156116e1573d6000803e3d6000fd5b505050506040513d601f19601f820116820180604052508101906117059190613369565b505b61171b8260026127a090919063ffffffff16565b508173ffffffffffffffffffffffffffffffffffffffff167fdc23a849435922f20a9732eb85192a9d0c1cb34725ebe6d7de0be10212ba02fb60405160405180910390a25050565b606060006117716002612627565b90508067ffffffffffffffff8111156117b3577f4e487b7100000000000000000000000000000000000000000000000000000000600052604160045260246000fd5b6040519080825280602002602001820160405280156117e15781602001602082028036833780820191505090505b50915060005b818110156118895761180381600261263c90919063ffffffff16565b83828151811061183c577f4e487b7100000000000000000000000000000000000000000000000000000000600052603260045260246000fd5b602002602001019073ffffffffffffffffffffffffffffffffffffffff16908173ffffffffffffffffffffffffffffffffffffffff1681525050808061188190613e32565b9150506117e7565b505090565b61189661261f565b73ffffffffffffffffffffffffffffffffffffffff166118b4610a39565b73ffffffffffffffffffffffffffffffffffffffff1614806119095750600073ffffffffffffffffffffffffffffffffffffffff166118f1610a39565b73ffffffffffffffffffffffffffffffffffffffff16145b611948576040517f08c379a000000000000000000000000000000000000000000000000000000000815260040161193f906139e5565b60405180910390fd5b60008273ffffffffffffffffffffffffffffffffffffffff166370a08231306040518263ffffffff1660e01b815260040161198391906137dd565b60206040518083038186803b15801561199b57600080fd5b505afa1580156119af573d6000803e3d6000fd5b505050506040513d601f19601f820116820180604052508101906119d391906133e1565b9050818110611a76578273ffffffffffffffffffffffffffffffffffffffff1663a9059cbb611a00610a39565b846040518363ffffffff1660e01b8152600401611a1e9291906137f8565b602060405180830381600087803b158015611a3857600080fd5b505af1158015611a4c573d6000803e3d6000fd5b505050506040513d601f19601f82011682018060405250810190611a709190613369565b50611b0c565b8273ffffffffffffffffffffffffffffffffffffffff1663a9059cbb611a9a610a39565b836040518363ffffffff1660e01b8152600401611ab89291906137f8565b602060405180830381600087803b158015611ad257600080fd5b505af1158015611ae6573d6000803e3d6000fd5b505050506040513d601f19601f82011682018060405250810190611b0a9190613369565b505b505050565b6000611b39836000018373ffffffffffffffffffffffffffffffffffffffff1660001b6127d0565b905092915050565b60008060008373ffffffffffffffffffffffffffffffffffffffff168573ffffffffffffffffffffffffffffffffffffffff161415611bb5576040517f08c379a0000000000000000000000000000000000000000000000000000000008152600401611bac906138c5565b60405180910390fd5b6000808673ffffffffffffffffffffffffffffffffffffffff16630dfe16816040518163ffffffff1660e01b815260040160206040518083038186803b158015611bfe57600080fd5b505afa158015611c12573d6000803e3d6000fd5b505050506040513d601f19601f82011682018060405250810190611c369190613274565b8773ffffffffffffffffffffffffffffffffffffffff1663d21220a76040518163ffffffff1660e01b815260040160206040518083038186803b158015611c7c57600080fd5b505afa158015611c90573d6000803e3d6000fd5b505050506040513d601f19601f82011682018060405250810190611cb49190613274565b915091506000808773ffffffffffffffffffffffffffffffffffffffff16630dfe16816040518163ffffffff1660e01b815260040160206040518083038186803b158015611d0157600080fd5b505afa158015611d15573d6000803e3d6000fd5b505050506040513d601f19601f82011682018060405250810190611d399190613274565b8873ffffffffffffffffffffffffffffffffffffffff1663d21220a76040518163ffffffff1660e01b815260040160206040518083038186803b158015611d7f57600080fd5b505afa158015611d93573d6000803e3d6000fd5b505050506040513d601f19601f82011682018060405250810190611db79190613274565b915091508273ffffffffffffffffffffffffffffffffffffffff168473ffffffffffffffffffffffffffffffffffffffff16108015611e2157508073ffffffffffffffffffffffffffffffffffffffff168273ffffffffffffffffffffffffffffffffffffffff16105b611e60576040517f08c379a0000000000000000000000000000000000000000000000000000000008152600401611e5790613945565b60405180910390fd5b8173ffffffffffffffffffffffffffffffffffffffff168473ffffffffffffffffffffffffffffffffffffffff16148015611ec657508073ffffffffffffffffffffffffffffffffffffffff168373ffffffffffffffffffffffffffffffffffffffff16145b611f05576040517f08c379a0000000000000000000000000000000000000000000000000000000008152600401611efc90613a45565b60405180910390fd5b611f1984600261284090919063ffffffff16565b80611f345750611f3383600261284090919063ffffffff16565b5b611f73576040517f08c379a0000000000000000000000000000000000000000000000000000000008152600401611f6a90613a25565b60405180910390fd5b611f8784600261284090919063ffffffff16565b611f945760008385611f99565b600184845b809750819850829950505050505050509250925092565b600080611fbb6130e7565b6000808773ffffffffffffffffffffffffffffffffffffffff16630902f1ac6040518163ffffffff1660e01b815260040160606040518083038186803b15801561200457600080fd5b505afa158015612018573d6000803e3d6000fd5b505050506040513d601f19601f8201168201806040525081019061203c9190613392565b506dffffffffffffffffffffffffffff1691506dffffffffffffffffffffffffffff1691506000808873ffffffffffffffffffffffffffffffffffffffff16630902f1ac6040518163ffffffff1660e01b815260040160606040518083038186803b1580156120aa57600080fd5b505afa1580156120be573d6000803e3d6000fd5b505050506040513d601f19601f820116820180604052508101906120e29190613392565b506dffffffffffffffffffffffffffff1691506dffffffffffffffffffffffffffff1691506000808961214a5761212a8661211c87612870565b6128a890919063ffffffff16565b6121458561213786612870565b6128a890919063ffffffff16565b612181565b6121658561215788612870565b6128a890919063ffffffff16565b6121808461217287612870565b6128a890919063ffffffff16565b5b9150915061219881836128dd90919063ffffffff16565b156121e3578b8b809950819a505050896121b557848684866121ba565b858585855b8a6000018b6020018c6040018d6060018481525084815250848152508481525050505050612225565b8a8c809950819a505050896121fb5782848688612200565b838387875b8a6000018b6020018c6040018d60600184815250848152508481525084815250505050505b6122646040518060400160405280600f81526020017f2d4275792066726f6d20706f6f6c3a00000000000000000000000000000000008152508a6128f3565b6122a36040518060400160405280600f81526020017f2d53656c6c2020746f20706f6f6c3a0000000000000000000000000000000000815250896128f3565b50505050505093509350939050565b61234a82826040516024016122c8929190613895565b6040516020818303038152906040527f9710a9d0000000000000000000000000000000000000000000000000000000007bffffffffffffffffffffffffffffffffffffffffffffffffffffffff19166020820180517bffffffffffffffffffffffffffffffffffffffffffffffffffffffff838183161783525050505061298f565b5050565b600073684d8c187be836171a1af8d533e472489303182873ffffffffffffffffffffffffffffffffffffffff168273ffffffffffffffffffffffffffffffffffffffff1663c45a01556040518163ffffffff1660e01b815260040160206040518083038186803b1580156123c157600080fd5b505afa1580156123d5573d6000803e3d6000fd5b505050506040513d601f19601f820116820180604052508101906123f99190613274565b73ffffffffffffffffffffffffffffffffffffffff161415612503578173ffffffffffffffffffffffffffffffffffffffff1663ddca3f436040518163ffffffff1660e01b815260040160206040518083038186803b15801561245b57600080fd5b505afa92505050801561248c57506040513d601f19601f8201168201806040525081019061248991906133e1565b60015b6124f957612498613f08565b806308c379a014156124be57506124ad614380565b806124b857506124c0565b506124f4565b505b3d80600081146124ec576040519150601f19603f3d011682016040523d82523d6000602084013e6124f1565b606091505b50505b612502565b80915050612508565b5b601e90505b919050565b6000808511612551576040517f08c379a000000000000000000000000000000000000000000000000000000000815260040161254890613a65565b60405180910390fd5b6000841180156125615750600083115b6125a0576040517f08c379a000000000000000000000000000000000000000000000000000000000815260040161259790613965565b60405180910390fd5b60006125c2836127106125b39190613d28565b876129b890919063ffffffff16565b905060006125d985836129b890919063ffffffff16565b90506000612604836125f66127108a6129b890919063ffffffff16565b612a2590919063ffffffff16565b905080826126129190613c9d565b9350505050949350505050565b600033905090565b600061263582600001612a7e565b9050919050565b600061264b8360000183612a8f565b60001c905092915050565b60008060009054906101000a900473ffffffffffffffffffffffffffffffffffffffff169050816000806101000a81548173ffffffffffffffffffffffffffffffffffffffff021916908373ffffffffffffffffffffffffffffffffffffffff1602179055508173ffffffffffffffffffffffffffffffffffffffff168173ffffffffffffffffffffffffffffffffffffffff167f8be0079c531659141344cd1fd0a4f28419497f9722a3daafe3b4186f6b6457e060405160405180910390a35050565b61279b8363a9059cbb60e01b84846040516024016127399291906137f8565b604051602081830303815290604052907bffffffffffffffffffffffffffffffffffffffffffffffffffffffff19166020820180517bffffffffffffffffffffffffffffffffffffffffffffffffffffffff8381831617835250505050612ae0565b505050565b60006127c8836000018373ffffffffffffffffffffffffffffffffffffffff1660001b612ba7565b905092915050565b60006127dc8383612d2d565b61283557826000018290806001815401808255809150506001900390600052602060002001600090919091909150558260000180549050836001016000848152602001908152602001600020819055506001905061283a565b600090505b92915050565b6000612868836000018373ffffffffffffffffffffffffffffffffffffffff1660001b612d2d565b905092915050565b61287861310f565b604051806020016040528061289e670de0b6b3a764000085612d5090919063ffffffff16565b8152509050919050565b6128b061310f565b60405180602001604052806128d2848660000151612dcb90919063ffffffff16565b815250905092915050565b6000806128ea8484612e15565b14905092915050565b61298b8282604051602401612909929190613865565b6040516020818303038152906040527f319af333000000000000000000000000000000000000000000000000000000007bffffffffffffffffffffffffffffffffffffffffffffffffffffffff19166020820180517bffffffffffffffffffffffffffffffffffffffffffffffffffffffff838183161783525050505061298f565b5050565b60008151905060006a636f6e736f6c652e6c6f679050602083016000808483855afa5050505050565b6000808214806129e05750828283856129d19190613cce565b9250826129de9190613c9d565b145b612a1f576040517f08c379a0000000000000000000000000000000000000000000000000000000008152600401612a1690613905565b60405180910390fd5b92915050565b6000828284612a349190613c47565b9150811015612a78576040517f08c379a0000000000000000000000000000000000000000000000000000000008152600401612a6f90613925565b60405180910390fd5b92915050565b600081600001805490509050919050565b6000826000018281548110612acd577f4e487b7100000000000000000000000000000000000000000000000000000000600052603260045260246000fd5b9060005260206000200154905092915050565b6000612b42826040518060400160405280602081526020017f5361666545524332303a206c6f772d6c6576656c2063616c6c206661696c65648152508573ffffffffffffffffffffffffffffffffffffffff16612e559092919063ffffffff16565b9050600081511115612ba25780806020019051810190612b629190613369565b612ba1576040517f08c379a0000000000000000000000000000000000000000000000000000000008152600401612b9890613ae5565b60405180910390fd5b5b505050565b60008083600101600084815260200190815260200160002054905060008114612d21576000600182612bd99190613d28565b9050600060018660000180549050612bf19190613d28565b9050818114612cac576000866000018281548110612c38577f4e487b7100000000000000000000000000000000000000000000000000000000600052603260045260246000fd5b9060005260206000200154905080876000018481548110612c82577f4e487b7100000000000000000000000000000000000000000000000000000000600052603260045260246000fd5b90600052602060002001819055508387600101600083815260200190815260200160002081905550505b85600001805480612ce6577f4e487b7100000000000000000000000000000000000000000000000000000000600052603160045260246000fd5b600190038181906000526020600020016000905590558560010160008681526020019081526020016000206000905560019350505050612d27565b60009150505b92915050565b600080836001016000848152602001908152602001600020541415905092915050565b600080831415612d635760009050612dc5565b60008284612d719190613cce565b9050828482612d809190613c9d565b14612dc0576040517f08c379a0000000000000000000000000000000000000000000000000000000008152600401612db7906139c5565b60405180910390fd5b809150505b92915050565b6000612e0d83836040518060400160405280601a81526020017f536166654d6174683a206469766973696f6e206279207a65726f000000000000815250612e6d565b905092915050565b6000816000015183600001511415612e305760019050612e4f565b8160000151836000015111612e46576000612e49565b60025b60ff1690505b92915050565b6060612e648484600085612ed0565b90509392505050565b60008083118290612eb4576040517f08c379a0000000000000000000000000000000000000000000000000000000008152600401612eab9190613843565b60405180910390fd5b5060008385612ec39190613c9d565b9050809150509392505050565b606082471015612f15576040517f08c379a0000000000000000000000000000000000000000000000000000000008152600401612f0c90613985565b60405180910390fd5b612f1e85612fe4565b612f5d576040517f08c379a0000000000000000000000000000000000000000000000000000000008152600401612f5490613aa5565b60405180910390fd5b6000808673ffffffffffffffffffffffffffffffffffffffff168587604051612f8691906137c6565b60006040518083038185875af1925050503d8060008114612fc3576040519150601f19603f3d011682016040523d82523d6000602084013e612fc8565b606091505b5091509150612fd8828286612ff7565b92505050949350505050565b600080823b905060008111915050919050565b6060831561300757829050613057565b60008351111561301a5782518084602001fd5b816040517f08c379a000000000000000000000000000000000000000000000000000000000815260040161304e9190613843565b60405180910390fd5b9392505050565b6040518060a00160405280600073ffffffffffffffffffffffffffffffffffffffff168152602001600073ffffffffffffffffffffffffffffffffffffffff168152602001600015158152602001600073ffffffffffffffffffffffffffffffffffffffff168152602001600073ffffffffffffffffffffffffffffffffffffffff1681525090565b6040518060800160405280600081526020016000815260200160008152602001600081525090565b6040518060200160405280600081525090565b600061313561313084613b9f565b613b7a565b9050808382526020820190508285602086028201111561315457600080fd5b60005b85811015613184578161316a888261318e565b845260208401935060208301925050600181019050613157565b5050509392505050565b60008135905061319d81614416565b92915050565b6000815190506131b281614416565b92915050565b600082601f8301126131c957600080fd5b81356131d9848260208601613122565b91505092915050565b6000815190506131f18161442d565b92915050565b60008151905061320681614444565b92915050565b60008135905061321b8161445b565b92915050565b6000815190506132308161445b565b92915050565b60008151905061324581614472565b92915050565b60006020828403121561325d57600080fd5b600061326b8482850161318e565b91505092915050565b60006020828403121561328657600080fd5b6000613294848285016131a3565b91505092915050565b600080604083850312156132b057600080fd5b60006132be8582860161318e565b92505060206132cf8582860161318e565b9150509250929050565b600080604083850312156132ec57600080fd5b60006132fa8582860161318e565b925050602083013567ffffffffffffffff81111561331757600080fd5b613323858286016131b8565b9150509250929050565b6000806040838503121561334057600080fd5b600061334e8582860161318e565b925050602061335f8582860161320c565b9150509250929050565b60006020828403121561337b57600080fd5b6000613389848285016131e2565b91505092915050565b6000806000606084860312156133a757600080fd5b60006133b5868287016131f7565b93505060206133c6868287016131f7565b92505060406133d786828701613236565b9150509250925092565b6000602082840312156133f357600080fd5b600061340184828501613221565b91505092915050565b60006134168383613422565b60208301905092915050565b61342b81613d5c565b82525050565b61343a81613d5c565b82525050565b600061344b82613bdb565b6134558185613c09565b935061346083613bcb565b8060005b83811015613491578151613478888261340a565b975061348383613bfc565b925050600181019050613464565b5085935050505092915050565b60006134a982613be6565b6134b38185613c1a565b93506134c3818560208601613dce565b6134cc81613f2a565b840191505092915050565b60006134e282613be6565b6134ec8185613c2b565b93506134fc818560208601613dce565b80840191505092915050565b600061351382613bf1565b61351d8185613c36565b935061352d818560208601613dce565b61353681613f2a565b840191505092915050565b600061354e601683613c36565b915061355982613f48565b602082019050919050565b6000613571602683613c36565b915061357c82613f71565b604082019050919050565b6000613594601483613c36565b915061359f82613fc0565b602082019050919050565b60006135b7601483613c36565b91506135c282613fe9565b602082019050919050565b60006135da602283613c36565b91506135e582614012565b604082019050919050565b60006135fd602d83613c36565b915061360882614061565b604082019050919050565b6000613620602683613c36565b915061362b826140b0565b604082019050919050565b6000613643602e83613c36565b915061364e826140ff565b604082019050919050565b6000613666602183613c36565b91506136718261414e565b604082019050919050565b6000613689602083613c36565b91506136948261419d565b602082019050919050565b60006136ac601183613c36565b91506136b7826141c6565b602082019050919050565b60006136cf601a83613c36565b91506136da826141ef565b602082019050919050565b60006136f2601c83613c36565b91506136fd82614218565b602082019050919050565b6000613715603083613c36565b915061372082614241565b604082019050919050565b6000613738601e83613c36565b915061374382614290565b602082019050919050565b600061375b601d83613c36565b9150613766826142b9565b602082019050919050565b600061377e602283613c36565b9150613789826142e2565b604082019050919050565b60006137a1602a83613c36565b91506137ac82614331565b604082019050919050565b6137c081613db4565b82525050565b60006137d282846134d7565b915081905092915050565b60006020820190506137f26000830184613431565b92915050565b600060408201905061380d6000830185613431565b61381a60208301846137b7565b9392505050565b6000602082019050818103600083015261383b8184613440565b905092915050565b6000602082019050818103600083015261385d8184613508565b905092915050565b6000604082019050818103600083015261387f8185613508565b905061388e6020830184613431565b9392505050565b600060408201905081810360008301526138af8185613508565b90506138be60208301846137b7565b9392505050565b600060208201905081810360008301526138de81613541565b9050919050565b600060208201905081810360008301526138fe81613564565b9050919050565b6000602082019050818103600083015261391e81613587565b9050919050565b6000602082019050818103600083015261393e816135aa565b9050919050565b6000602082019050818103600083015261395e816135cd565b9050919050565b6000602082019050818103600083015261397e816135f0565b9050919050565b6000602082019050818103600083015261399e81613613565b9050919050565b600060208201905081810360008301526139be81613636565b9050919050565b600060208201905081810360008301526139de81613659565b9050919050565b600060208201905081810360008301526139fe8161367c565b9050919050565b60006020820190508181036000830152613a1e8161369f565b9050919050565b60006020820190508181036000830152613a3e816136c2565b9050919050565b60006020820190508181036000830152613a5e816136e5565b9050919050565b60006020820190508181036000830152613a7e81613708565b9050919050565b60006020820190508181036000830152613a9e8161372b565b9050919050565b60006020820190508181036000830152613abe8161374e565b9050919050565b60006020820190508181036000830152613ade81613771565b9050919050565b60006020820190508181036000830152613afe81613794565b9050919050565b6000604082019050613b1a60008301856137b7565b613b276020830184613431565b9392505050565b6000608082019050613b4360008301876137b7565b613b5060208301866137b7565b613b5d6040830185613431565b8181036060830152613b6f818461349e565b905095945050505050565b6000613b84613b95565b9050613b908282613e01565b919050565b6000604051905090565b600067ffffffffffffffff821115613bba57613bb9613ed9565b5b602082029050602081019050919050565b6000819050602082019050919050565b600081519050919050565b600081519050919050565b600081519050919050565b6000602082019050919050565b600082825260208201905092915050565b600082825260208201905092915050565b600081905092915050565b600082825260208201905092915050565b6000613c5282613db4565b9150613c5d83613db4565b9250827fffffffffffffffffffffffffffffffffffffffffffffffffffffffffffffffff03821115613c9257613c91613e7b565b5b828201905092915050565b6000613ca882613db4565b9150613cb383613db4565b925082613cc357613cc2613eaa565b5b828204905092915050565b6000613cd982613db4565b9150613ce483613db4565b9250817fffffffffffffffffffffffffffffffffffffffffffffffffffffffffffffffff0483118215151615613d1d57613d1c613e7b565b5b828202905092915050565b6000613d3382613db4565b9150613d3e83613db4565b925082821015613d5157613d50613e7b565b5b828203905092915050565b6000613d6782613d94565b9050919050565b60008115159050919050565b60006dffffffffffffffffffffffffffff82169050919050565b600073ffffffffffffffffffffffffffffffffffffffff82169050919050565b6000819050919050565b600063ffffffff82169050919050565b60005b83811015613dec578082015181840152602081019050613dd1565b83811115613dfb576000848401525b50505050565b613e0a82613f2a565b810181811067ffffffffffffffff82111715613e2957613e28613ed9565b5b80604052505050565b6000613e3d82613db4565b91507fffffffffffffffffffffffffffffffffffffffffffffffffffffffffffffffff821415613e7057613e6f613e7b565b5b600182019050919050565b7f4e487b7100000000000000000000000000000000000000000000000000000000600052601160045260246000fd5b7f4e487b7100000000000000000000000000000000000000000000000000000000600052601260045260246000fd5b7f4e487b7100000000000000000000000000000000000000000000000000000000600052604160045260246000fd5b600060033d1115613f275760046000803e613f24600051613f3b565b90505b90565b6000601f19601f8301169050919050565b60008160e01c9050919050565b7f424f543a2053616d652070616972206164647265737300000000000000000000600082015250565b7f4f776e61626c653a206e6577206f776e657220697320746865207a65726f206160008201527f6464726573730000000000000000000000000000000000000000000000000000602082015250565b7f64732d6d6174682d6d756c2d6f766572666c6f77000000000000000000000000600082015250565b7f64732d6d6174682d6164642d6f766572666c6f77000000000000000000000000600082015250565b7f424f543a204e6f6e207374616e6461726420756e697377617020414d4d20706160008201527f6972000000000000000000000000000000000000000000000000000000000000602082015250565b7f424f543a20556e697377617056324c6962726172793a20494e5355464649434960008201527f454e545f4c495155494449545900000000000000000000000000000000000000602082015250565b7f416464726573733a20696e73756666696369656e742062616c616e636520666f60008201527f722063616c6c0000000000000000000000000000000000000000000000000000602082015250565b7f496e697469616c697a61626c653a20636f6e747261637420697320616c72656160008201527f647920696e697469616c697a6564000000000000000000000000000000000000602082015250565b7f536166654d6174683a206d756c7469706c69636174696f6e206f766572666c6f60008201527f7700000000000000000000000000000000000000000000000000000000000000602082015250565b7f4f776e61626c653a2063616c6c6572206973206e6f7420746865206f776e6572600082015250565b7f424f543a204c6f73696e67206d6f6e6579000000000000000000000000000000600082015250565b7f424f543a204e6f206261736520746f6b656e20696e2070616972000000000000600082015250565b7f424f543a20526571756972652073616d6520746f6b656e207061697200000000600082015250565b7f424f543a20556e697377617056324c6962726172793a20494e5355464649434960008201527f454e545f494e5055545f414d4f554e5400000000000000000000000000000000602082015250565b7f424f543a20417262697472616765206661696c2c206e6f2070726f6669740000600082015250565b7f416464726573733a2063616c6c20746f206e6f6e2d636f6e7472616374000000600082015250565b7f424f543a204e6f7420656e6f756768206261736520746f6b656e2062616c616e60008201527f6365000000000000000000000000000000000000000000000000000000000000602082015250565b7f5361666545524332303a204552433230206f7065726174696f6e20646964206e60008201527f6f74207375636365656400000000000000000000000000000000000000000000602082015250565b600060443d101561439057614413565b614398613b95565b60043d036004823e80513d602482011167ffffffffffffffff821117156143c0575050614413565b808201805167ffffffffffffffff8111156143de5750505050614413565b80602083010160043d0385018111156143fb575050505050614413565b61440a82602001850186613e01565b82955050505050505b90565b61441f81613d5c565b811461442a57600080fd5b50565b61443681613d6e565b811461444157600080fd5b50565b61444d81613d7a565b811461445857600080fd5b50565b61446481613db4565b811461446f57600080fd5b50565b61447b81613dbe565b811461448657600080fd5b5056fea2646970667358221220d548d4754906602468129e318e331ba731cea974be6420c7b9d54b4f8add1e0964736f6c63430008040033",
  "devdoc": {
    "kind": "dev",
    "methods": {
      "flashArbitrage(address,address)": {
        "details": "Two pools must contains same token pair"
      },
      "getOwner()": {
        "details": "Returns the address of the current owner."
      },
      "initOwner(address)": {
        "details": "for proxy / initializer"
      },
      "transferContractOwnership(address)": {
        "details": "Transfers ownership of the contract to a new account (`newOwner`). Can only be called by the current owner."
      }
    },
    "version": 1
  },
  "userdoc": {
    "kind": "user",
    "methods": {
      "flashArbitrage(address,address)": {
        "notice": "Do an arbitrage between two Uniswap-like AMM pools"
      },
      "getProfit(address,address)": {
        "notice": "Calculate how much profit we can by arbitraging between two pools"
      }
    },
    "version": 1
  },
  "storageLayout": {
    "storage": [
      {
        "astId": 3364,
        "contract": "contracts/FlashBot.sol:FlashBot",
        "label": "_contractOwner",
        "offset": 0,
        "slot": "0",
        "type": "t_address"
      },
      {
        "astId": 5,
        "contract": "contracts/FlashBot.sol:FlashBot",
        "label": "_initialized",
        "offset": 20,
        "slot": "0",
        "type": "t_bool"
      },
      {
        "astId": 8,
        "contract": "contracts/FlashBot.sol:FlashBot",
        "label": "_initializing",
        "offset": 21,
        "slot": "0",
        "type": "t_bool"
      },
      {
        "astId": 1912,
        "contract": "contracts/FlashBot.sol:FlashBot",
        "label": "WETH",
        "offset": 0,
        "slot": "1",
        "type": "t_address"
      },
      {
        "astId": 1915,
        "contract": "contracts/FlashBot.sol:FlashBot",
        "label": "baseTokens",
        "offset": 0,
        "slot": "2",
        "type": "t_struct(AddressSet)1549_storage"
      }
    ],
    "types": {
      "t_address": {
        "encoding": "inplace",
        "label": "address",
        "numberOfBytes": "20"
      },
      "t_array(t_bytes32)dyn_storage": {
        "base": "t_bytes32",
        "encoding": "dynamic_array",
        "label": "bytes32[]",
        "numberOfBytes": "32"
      },
      "t_bool": {
        "encoding": "inplace",
        "label": "bool",
        "numberOfBytes": "1"
      },
      "t_bytes32": {
        "encoding": "inplace",
        "label": "bytes32",
        "numberOfBytes": "32"
      },
      "t_mapping(t_bytes32,t_uint256)": {
        "encoding": "mapping",
        "key": "t_bytes32",
        "label": "mapping(bytes32 => uint256)",
        "numberOfBytes": "32",
        "value": "t_uint256"
      },
      "t_struct(AddressSet)1549_storage": {
        "encoding": "inplace",
        "label": "struct EnumerableSet.AddressSet",
        "members": [
          {
            "astId": 1548,
            "contract": "contracts/FlashBot.sol:FlashBot",
            "label": "_inner",
            "offset": 0,
            "slot": "0",
            "type": "t_struct(Set)1248_storage"
          }
        ],
        "numberOfBytes": "64"
      },
      "t_struct(Set)1248_storage": {
        "encoding": "inplace",
        "label": "struct EnumerableSet.Set",
        "members": [
          {
            "astId": 1243,
            "contract": "contracts/FlashBot.sol:FlashBot",
            "label": "_values",
            "offset": 0,
            "slot": "0",
            "type": "t_array(t_bytes32)dyn_storage"
          },
          {
            "astId": 1247,
            "contract": "contracts/FlashBot.sol:FlashBot",
            "label": "_indexes",
            "offset": 0,
            "slot": "1",
            "type": "t_mapping(t_bytes32,t_uint256)"
          }
        ],
        "numberOfBytes": "64"
      },
      "t_uint256": {
        "encoding": "inplace",
        "label": "uint256",
        "numberOfBytes": "32"
      }
    }
  }
}