{
  "address": "0xF42845e040aB771Ce8DfE72b7292Bc2e29C80702",
  "abi": [
    {
      "inputs": [
        {
          "internalType": "address payable",
          "name": "_bot",
          "type": "address"
        }
      ],
      "stateMutability": "nonpayable",
      "type": "constructor"
    },
    {
      "anonymous": false,
      "inputs": [
        {
          "indexed": true,
          "internalType": "address",
          "name": "previousOwner",
          "type": "address"
        },
        {
          "indexed": true,
          "internalType": "address",
          "name": "newOwner",
          "type": "address"
        }
      ],
      "name": "OwnershipTransferred",
      "type": "event"
    },
    {
      "inputs": [
        {
          "internalType": "address[]",
          "name": "_pools",
          "type": "address[]"
        }
      ],
      "name": "addPools",
      "outputs": [],
      "stateMutability": "nonpayable",
      "type": "function"
    },
    {
      "inputs": [],
      "name": "bot",
      "outputs": [
        {
          "internalType": "contract FlashBot",
          "name": "",
          "type": "address"
        }
      ],
      "stateMutability": "view",
      "type": "function"
    },
    {
      "inputs": [],
      "name": "findProfit",
      "outputs": [
        {
          "internalType": "address",
          "name": "pool0",
          "type": "address"
        },
        {
          "internalType": "address",
          "name": "pool1",
          "type": "address"
        },
        {
          "internalType": "uint256",
          "name": "profit",
          "type": "uint256"
        },
        {
          "internalType": "address",
          "name": "baseToken",
          "type": "address"
        }
      ],
      "stateMutability": "view",
      "type": "function"
    },
    {
      "inputs": [],
      "name": "findProfitAndSwap",
      "outputs": [],
      "stateMutability": "nonpayable",
      "type": "function"
    },
    {
      "inputs": [],
      "name": "findProfitOptimized",
      "outputs": [
        {
          "internalType": "address",
          "name": "profitablePool0",
          "type": "address"
        },
        {
          "internalType": "address",
          "name": "profitablePool1",
          "type": "address"
        },
        {
          "internalType": "uint256",
          "name": "maxProfit",
          "type": "uint256"
        },
        {
          "internalType": "address",
          "name": "profitableBaseToken",
          "type": "address"
        }
      ],
      "stateMutability": "view",
      "type": "function"
    },
    {
      "inputs": [],
      "name": "getOwner",
      "outputs": [
        {
          "internalType": "address",
          "name": "",
          "type": "address"
        }
      ],
      "stateMutability": "view",
      "type": "function"
    },
    {
      "inputs": [
        {
          "internalType": "address",
          "name": "newOwner",
          "type": "address"
        }
      ],
      "name": "initOwner",
      "outputs": [],
      "stateMutability": "nonpayable",
      "type": "function"
    },
    {
      "inputs": [
        {
          "internalType": "address payable",
          "name": "_bot",
          "type": "address"
        }
      ],
      "name": "initialize",
      "outputs": [],
      "stateMutability": "nonpayable",
      "type": "function"
    },
    {
      "inputs": [],
      "name": "pairsCount",
      "outputs": [
        {
          "internalType": "uint256",
          "name": "",
          "type": "uint256"
        }
      ],
      "stateMutability": "view",
      "type": "function"
    },
    {
      "inputs": [
        {
          "internalType": "uint256",
          "name": "",
          "type": "uint256"
        }
      ],
      "name": "pools",
      "outputs": [
        {
          "internalType": "address",
          "name": "",
          "type": "address"
        }
      ],
      "stateMutability": "view",
      "type": "function"
    },
    {
      "inputs": [
        {
          "internalType": "address payable",
          "name": "_bot",
          "type": "address"
        }
      ],
      "name": "setBot",
      "outputs": [],
      "stateMutability": "nonpayable",
      "type": "function"
    },
    {
      "inputs": [
        {
          "internalType": "address[]",
          "name": "_pools",
          "type": "address[]"
        }
      ],
      "name": "setPools",
      "outputs": [],
      "stateMutability": "nonpayable",
      "type": "function"
    },
    {
      "inputs": [
        {
          "internalType": "address",
          "name": "newOwner",
          "type": "address"
        }
      ],
      "name": "transferContractOwnership",
      "outputs": [],
      "stateMutability": "nonpayable",
      "type": "function"
    }
  ],
  "transactionHash": "0xeeed053dd63bb47f2e7f0b34e48ee58435516f3a2c9b95068d1b14e71948a700",
  "args": [
    "0xF9cE0ccBA91702f11F22613D9bBf8c90C5e3Acee"
  ],
  "solcInputHash": "2d33e28caef629648fb78083834b3d4c",
  "bytecode": "0x60806040523480156200001157600080fd5b5060405162003281380380620032818339818101604052810190620000379190620003af565b620000576200004b6200006f60201b60201c565b6200007760201b60201c565b62000068816200013b60201b60201c565b50620004ac565b600033905090565b60008060009054906101000a900473ffffffffffffffffffffffffffffffffffffffff169050816000806101000a81548173ffffffffffffffffffffffffffffffffffffffff021916908373ffffffffffffffffffffffffffffffffffffffff1602179055508173ffffffffffffffffffffffffffffffffffffffff168173ffffffffffffffffffffffffffffffffffffffff167f8be0079c531659141344cd1fd0a4f28419497f9722a3daafe3b4186f6b6457e060405160405180910390a35050565b6200014b6200006f60201b60201c565b73ffffffffffffffffffffffffffffffffffffffff16620001716200027560201b60201c565b73ffffffffffffffffffffffffffffffffffffffff161480620001cf5750600073ffffffffffffffffffffffffffffffffffffffff16620001b76200027560201b60201c565b73ffffffffffffffffffffffffffffffffffffffff16145b62000211576040517f08c379a0000000000000000000000000000000000000000000000000000000008152600401620002089062000402565b60405180910390fd5b62000231620002256200006f60201b60201c565b6200029e60201b60201c565b80600160006101000a81548173ffffffffffffffffffffffffffffffffffffffff021916908373ffffffffffffffffffffffffffffffffffffffff16021790555050565b60008060009054906101000a900473ffffffffffffffffffffffffffffffffffffffff16905090565b600073ffffffffffffffffffffffffffffffffffffffff1660008054906101000a900473ffffffffffffffffffffffffffffffffffffffff1673ffffffffffffffffffffffffffffffffffffffff1614620002f95762000395565b806000806101000a81548173ffffffffffffffffffffffffffffffffffffffff021916908373ffffffffffffffffffffffffffffffffffffffff1602179055508073ffffffffffffffffffffffffffffffffffffffff16600073ffffffffffffffffffffffffffffffffffffffff167f8be0079c531659141344cd1fd0a4f28419497f9722a3daafe3b4186f6b6457e060405160405180910390a35b50565b600081519050620003a98162000492565b92915050565b600060208284031215620003c257600080fd5b6000620003d28482850162000398565b91505092915050565b6000620003ea60208362000424565b9150620003f78262000469565b602082019050919050565b600060208201905081810360008301526200041d81620003db565b9050919050565b600082825260208201905092915050565b6000620004428262000449565b9050919050565b600073ffffffffffffffffffffffffffffffffffffffff82169050919050565b7f4f776e61626c653a2063616c6c6572206973206e6f7420746865206f776e6572600082015250565b6200049d8162000435565b8114620004a957600080fd5b50565b612dc580620004bc6000396000f3fe608060405234801561001057600080fd5b50600436106100cf5760003560e01c8063893d20e81161008c578063b36a4ab111610066578063b36a4ab1146101db578063b81b2b71146101f7578063c4d66de814610215578063d9ee37a614610231576100cf565b8063893d20e814610171578063a843c51f1461018f578063ac4afa38146101ab576100cf565b80630d009297146100d457806310814c37146100f05780633bdb3a571461010e5780636b5caec414610118578063790d0c50146101345780638544c53b14610155575b600080fd5b6100ee60048036038101906100e9919061208b565b610252565b005b6100f861034a565b60405161010591906124db565b60405180910390f35b610116610370565b005b610132600480360381019061012d91906120dd565b610443565b005b61013c610541565b60405161014c9493929190612496565b60405180910390f35b61016f600480360381019061016a9190612106565b610792565b005b610179610866565b6040516101869190612452565b60405180910390f35b6101a960048036038101906101a4919061208b565b61088f565b005b6101c560048036038101906101c09190612200565b6109c5565b6040516101d29190612452565b60405180910390f35b6101f560048036038101906101f09190612106565b610a04565b005b6101ff610b84565b60405161020c9190612658565b60405180910390f35b61022f600480360381019061022a91906120dd565b610b9c565b005b610239610caa565b6040516102499493929190612496565b60405180910390f35b600073ffffffffffffffffffffffffffffffffffffffff1660008054906101000a900473ffffffffffffffffffffffffffffffffffffffff1673ffffffffffffffffffffffffffffffffffffffff16146102ab57610347565b806000806101000a81548173ffffffffffffffffffffffffffffffffffffffff021916908373ffffffffffffffffffffffffffffffffffffffff1602179055508073ffffffffffffffffffffffffffffffffffffffff16600073ffffffffffffffffffffffffffffffffffffffff167f8be0079c531659141344cd1fd0a4f28419497f9722a3daafe3b4186f6b6457e060405160405180910390a35b50565b600160009054906101000a900473ffffffffffffffffffffffffffffffffffffffff1681565b600080600061037d610541565b50925092509250600081111561043e57600160009054906101000a900473ffffffffffffffffffffffffffffffffffffffff1673ffffffffffffffffffffffffffffffffffffffff16636b76484e84846040518363ffffffff1660e01b81526004016103ea92919061246d565b602060405180830381600087803b15801561040457600080fd5b505af1158015610418573d6000803e3d6000fd5b505050506040513d601f19601f8201168201806040525081019061043c9190612188565b505b505050565b61044b6110d3565b73ffffffffffffffffffffffffffffffffffffffff16610469610866565b73ffffffffffffffffffffffffffffffffffffffff1614806104be5750600073ffffffffffffffffffffffffffffffffffffffff166104a6610866565b73ffffffffffffffffffffffffffffffffffffffff16145b6104fd576040517f08c379a00000000000000000000000000000000000000000000000000000000081526004016104f4906125f8565b60405180910390fd5b80600160006101000a81548173ffffffffffffffffffffffffffffffffffffffff021916908373ffffffffffffffffffffffffffffffffffffffff16021790555050565b600080600080600091506000935060009250600090506000600280549050905060005b8181101561078a576000600282815481106105a8577f4e487b7100000000000000000000000000000000000000000000000000000000600052603260045260246000fd5b9060005260206000200160009054906101000a900473ffffffffffffffffffffffffffffffffffffffff169050600060026001846105e691906126e0565b8154811061061d577f4e487b7100000000000000000000000000000000000000000000000000000000600052603260045260246000fd5b9060005260206000200160009054906101000a900473ffffffffffffffffffffffffffffffffffffffff169050600160009054906101000a900473ffffffffffffffffffffffffffffffffffffffff1673ffffffffffffffffffffffffffffffffffffffff1663759eee1083836040518363ffffffff1660e01b81526004016106a792919061246d565b604080518083038186803b1580156106be57600080fd5b505afa9250505080156106ef57506040513d601f19601f820116820180604052508101906106ec9190612252565b60015b61075c576106fb6129d7565b806308c379a014156107215750610710612c6f565b8061071b5750610723565b50610757565b505b3d806000811461074f576040519150601f19603f3d011682016040523d82523d6000602084013e610754565b606091505b50505b610774565b87821115610771578197508096508399508298505b50505b505060028161078391906126e0565b9050610564565b505090919293565b61079a6110d3565b73ffffffffffffffffffffffffffffffffffffffff166107b8610866565b73ffffffffffffffffffffffffffffffffffffffff16148061080d5750600073ffffffffffffffffffffffffffffffffffffffff166107f5610866565b73ffffffffffffffffffffffffffffffffffffffff16145b61084c576040517f08c379a0000000000000000000000000000000000000000000000000000000008152600401610843906125f8565b60405180910390fd5b6002600061085a9190611e3e565b61086381610a04565b50565b60008060009054906101000a900473ffffffffffffffffffffffffffffffffffffffff16905090565b6108976110d3565b73ffffffffffffffffffffffffffffffffffffffff166108b5610866565b73ffffffffffffffffffffffffffffffffffffffff16148061090a5750600073ffffffffffffffffffffffffffffffffffffffff166108f2610866565b73ffffffffffffffffffffffffffffffffffffffff16145b610949576040517f08c379a0000000000000000000000000000000000000000000000000000000008152600401610940906125f8565b60405180910390fd5b600073ffffffffffffffffffffffffffffffffffffffff168173ffffffffffffffffffffffffffffffffffffffff1614156109b9576040517f08c379a00000000000000000000000000000000000000000000000000000000081526004016109b090612558565b60405180910390fd5b6109c2816110db565b50565b600281815481106109d557600080fd5b906000526020600020016000915054906101000a900473ffffffffffffffffffffffffffffffffffffffff1681565b610a0c6110d3565b73ffffffffffffffffffffffffffffffffffffffff16610a2a610866565b73ffffffffffffffffffffffffffffffffffffffff161480610a7f5750600073ffffffffffffffffffffffffffffffffffffffff16610a67610866565b73ffffffffffffffffffffffffffffffffffffffff16145b610abe576040517f08c379a0000000000000000000000000000000000000000000000000000000008152600401610ab5906125f8565b60405180910390fd5b60005b8151811015610b80576002828281518110610b05577f4e487b7100000000000000000000000000000000000000000000000000000000600052603260045260246000fd5b60200260200101519080600181540180825580915050600190039060005260206000200160009091909190916101000a81548173ffffffffffffffffffffffffffffffffffffffff021916908373ffffffffffffffffffffffffffffffffffffffff1602179055508080610b7890612901565b915050610ac1565b5050565b600060028080549050610b979190612736565b905090565b610ba46110d3565b73ffffffffffffffffffffffffffffffffffffffff16610bc2610866565b73ffffffffffffffffffffffffffffffffffffffff161480610c175750600073ffffffffffffffffffffffffffffffffffffffff16610bff610866565b73ffffffffffffffffffffffffffffffffffffffff16145b610c56576040517f08c379a0000000000000000000000000000000000000000000000000000000008152600401610c4d906125f8565b60405180910390fd5b610c66610c616110d3565b610252565b80600160006101000a81548173ffffffffffffffffffffffffffffffffffffffff021916908373ffffffffffffffffffffffffffffffffffffffff16021790555050565b600080600080600091506000935060009250600090506000600160009054906101000a900473ffffffffffffffffffffffffffffffffffffffff1673ffffffffffffffffffffffffffffffffffffffff1663bed64c2f6040518163ffffffff1660e01b815260040160006040518083038186803b158015610d2a57600080fd5b505afa158015610d3e573d6000803e3d6000fd5b505050506040513d6000823e3d601f19601f82011682018060405250810190610d679190612147565b90506000815167ffffffffffffffff811115610dac577f4e487b7100000000000000000000000000000000000000000000000000000000600052604160045260246000fd5b604051908082528060200260200182016040528015610dda5781602001602082028036833780820191505090505b5090506000600280549050905060005b818110156110c957600060028281548110610e2e577f4e487b7100000000000000000000000000000000000000000000000000000000600052603260045260246000fd5b9060005260206000200160009054906101000a900473ffffffffffffffffffffffffffffffffffffffff16905060006002600184610e6c91906126e0565b81548110610ea3577f4e487b7100000000000000000000000000000000000000000000000000000000600052603260045260246000fd5b9060005260206000200160009054906101000a900473ffffffffffffffffffffffffffffffffffffffff169050600080600090506000806000610ee787878d61119f565b935050925092508194506000806000610f018a8a88611638565b92509250925060008d8581518110610f42577f4e487b7100000000000000000000000000000000000000000000000000000000600052603260045260246000fd5b602002602001015190506000811415611027578573ffffffffffffffffffffffffffffffffffffffff166370a08231306040518263ffffffff1660e01b8152600401610f8e9190612452565b60206040518083038186803b158015610fa657600080fd5b505afa158015610fba573d6000803e3d6000fd5b505050506040513d601f19601f82011682018060405250810190610fde9190612229565b9050808e868151811061101a577f4e487b7100000000000000000000000000000000000000000000000000000000600052603260045260246000fd5b6020026020010181815250505b6000611032856118bc565b9050600061104a838560000151866020015185611a7b565b90506000611057866118bc565b9050600061106f838760600151886040015185611a7b565b9050848110156110825760009b50611091565b848161108e91906127c1565b9b505b5050505050505050505050898111156110b157809950819850839b50829a505b505050506002816110c291906126e0565b9050610dea565b5050505090919293565b600033905090565b60008060009054906101000a900473ffffffffffffffffffffffffffffffffffffffff169050816000806101000a81548173ffffffffffffffffffffffffffffffffffffffff021916908373ffffffffffffffffffffffffffffffffffffffff1602179055508173ffffffffffffffffffffffffffffffffffffffff168173ffffffffffffffffffffffffffffffffffffffff167f8be0079c531659141344cd1fd0a4f28419497f9722a3daafe3b4186f6b6457e060405160405180910390a35050565b6000806000808573ffffffffffffffffffffffffffffffffffffffff168773ffffffffffffffffffffffffffffffffffffffff161415611214576040517f08c379a000000000000000000000000000000000000000000000000000000000815260040161120b90612538565b60405180910390fd5b6000808873ffffffffffffffffffffffffffffffffffffffff16630dfe16816040518163ffffffff1660e01b815260040160206040518083038186803b15801561125d57600080fd5b505afa158015611271573d6000803e3d6000fd5b505050506040513d601f19601f8201168201806040525081019061129591906120b4565b8973ffffffffffffffffffffffffffffffffffffffff1663d21220a76040518163ffffffff1660e01b815260040160206040518083038186803b1580156112db57600080fd5b505afa1580156112ef573d6000803e3d6000fd5b505050506040513d601f19601f8201168201806040525081019061131391906120b4565b915091506000808973ffffffffffffffffffffffffffffffffffffffff16630dfe16816040518163ffffffff1660e01b815260040160206040518083038186803b15801561136057600080fd5b505afa158015611374573d6000803e3d6000fd5b505050506040513d601f19601f8201168201806040525081019061139891906120b4565b8a73ffffffffffffffffffffffffffffffffffffffff1663d21220a76040518163ffffffff1660e01b815260040160206040518083038186803b1580156113de57600080fd5b505afa1580156113f2573d6000803e3d6000fd5b505050506040513d601f19601f8201168201806040525081019061141691906120b4565b915091508273ffffffffffffffffffffffffffffffffffffffff168473ffffffffffffffffffffffffffffffffffffffff1610801561148057508073ffffffffffffffffffffffffffffffffffffffff168273ffffffffffffffffffffffffffffffffffffffff16105b6114bf576040517f08c379a00000000000000000000000000000000000000000000000000000000081526004016114b6906125b8565b60405180910390fd5b8173ffffffffffffffffffffffffffffffffffffffff168473ffffffffffffffffffffffffffffffffffffffff1614801561152557508073ffffffffffffffffffffffffffffffffffffffff168373ffffffffffffffffffffffffffffffffffffffff16145b611564576040517f08c379a000000000000000000000000000000000000000000000000000000000815260040161155b90612618565b60405180910390fd5b600094506000808a51905060005b81811015611609578673ffffffffffffffffffffffffffffffffffffffff168c82815181106115ca577f4e487b7100000000000000000000000000000000000000000000000000000000600052603260045260246000fd5b602002602001015173ffffffffffffffffffffffffffffffffffffffff1614156115f657600192508097505b808061160190612901565b915050611572565b5081611618576000858761161d565b600186865b809a50819b50829c5050505050505050505093509350935093565b600080611643611e5f565b6000808773ffffffffffffffffffffffffffffffffffffffff16630902f1ac6040518163ffffffff1660e01b815260040160606040518083038186803b15801561168c57600080fd5b505afa1580156116a0573d6000803e3d6000fd5b505050506040513d601f19601f820116820180604052508101906116c491906121b1565b506dffffffffffffffffffffffffffff1691506dffffffffffffffffffffffffffff1691506000808873ffffffffffffffffffffffffffffffffffffffff16630902f1ac6040518163ffffffff1660e01b815260040160606040518083038186803b15801561173257600080fd5b505afa158015611746573d6000803e3d6000fd5b505050506040513d601f19601f8201168201806040525081019061176a91906121b1565b506dffffffffffffffffffffffffffff1691506dffffffffffffffffffffffffffff169150600080896117d2576117b2866117a487611b8d565b611bc590919063ffffffff16565b6117cd856117bf86611b8d565b611bc590919063ffffffff16565b611809565b6117ed856117df88611b8d565b611bc590919063ffffffff16565b611808846117fa87611b8d565b611bc590919063ffffffff16565b5b915091506118208183611bfa90919063ffffffff16565b1561186b578b8b809950819a5050508961183d5784868486611842565b858585855b8a6000018b6020018c6040018d60600184815250848152508481525084815250505050506118ad565b8a8c809950819a505050896118835782848688611888565b838387875b8a6000018b6020018c6040018d60600184815250848152508481525084815250505050505b50505050505093509350939050565b600073684d8c187be836171a1af8d533e472489303182873ffffffffffffffffffffffffffffffffffffffff168273ffffffffffffffffffffffffffffffffffffffff1663c45a01556040518163ffffffff1660e01b815260040160206040518083038186803b15801561192f57600080fd5b505afa158015611943573d6000803e3d6000fd5b505050506040513d601f19601f8201168201806040525081019061196791906120b4565b73ffffffffffffffffffffffffffffffffffffffff161415611a71578173ffffffffffffffffffffffffffffffffffffffff1663ddca3f436040518163ffffffff1660e01b815260040160206040518083038186803b1580156119c957600080fd5b505afa9250505080156119fa57506040513d601f19601f820116820180604052508101906119f79190612229565b60015b611a6757611a066129d7565b806308c379a01415611a2c5750611a1b612c6f565b80611a265750611a2e565b50611a62565b505b3d8060008114611a5a576040519150601f19603f3d011682016040523d82523d6000602084013e611a5f565b606091505b50505b611a70565b80915050611a76565b5b601e90505b919050565b6000808511611abf576040517f08c379a0000000000000000000000000000000000000000000000000000000008152600401611ab690612638565b60405180910390fd5b600084118015611acf5750600083115b611b0e576040517f08c379a0000000000000000000000000000000000000000000000000000000008152600401611b0590612518565b60405180910390fd5b6000611b3083612710611b2191906127c1565b87611c1090919063ffffffff16565b90506000611b478583611c1090919063ffffffff16565b90506000611b7283611b646127108a611c1090919063ffffffff16565b611c7d90919063ffffffff16565b90508082611b809190612736565b9350505050949350505050565b611b95611e87565b6040518060200160405280611bbb670de0b6b3a764000085611cd690919063ffffffff16565b8152509050919050565b611bcd611e87565b6040518060200160405280611bef848660000151611d5190919063ffffffff16565b815250905092915050565b600080611c078484611d9b565b14905092915050565b600080821480611c38575082828385611c299190612767565b925082611c369190612736565b145b611c77576040517f08c379a0000000000000000000000000000000000000000000000000000000008152600401611c6e90612578565b60405180910390fd5b92915050565b6000828284611c8c91906126e0565b9150811015611cd0576040517f08c379a0000000000000000000000000000000000000000000000000000000008152600401611cc790612598565b60405180910390fd5b92915050565b600080831415611ce95760009050611d4b565b60008284611cf79190612767565b9050828482611d069190612736565b14611d46576040517f08c379a0000000000000000000000000000000000000000000000000000000008152600401611d3d906125d8565b60405180910390fd5b809150505b92915050565b6000611d9383836040518060400160405280601a81526020017f536166654d6174683a206469766973696f6e206279207a65726f000000000000815250611ddb565b905092915050565b6000816000015183600001511415611db65760019050611dd5565b8160000151836000015111611dcc576000611dcf565b60025b60ff1690505b92915050565b60008083118290611e22576040517f08c379a0000000000000000000000000000000000000000000000000000000008152600401611e1991906124f6565b60405180910390fd5b5060008385611e319190612736565b9050809150509392505050565b5080546000825590600052602060002090810190611e5c9190611e9a565b50565b6040518060800160405280600081526020016000815260200160008152602001600081525090565b6040518060200160405280600081525090565b5b80821115611eb3576000816000905550600101611e9b565b5090565b6000611eca611ec584612698565b612673565b90508083825260208201905082856020860282011115611ee957600080fd5b60005b85811015611f195781611eff8882611f8f565b845260208401935060208301925050600181019050611eec565b5050509392505050565b6000611f36611f3184612698565b612673565b90508083825260208201905082856020860282011115611f5557600080fd5b60005b85811015611f855781611f6b8882611fa4565b845260208401935060208301925050600181019050611f58565b5050509392505050565b600081359050611f9e81612d05565b92915050565b600081519050611fb381612d05565b92915050565b600081359050611fc881612d1c565b92915050565b600082601f830112611fdf57600080fd5b8135611fef848260208601611eb7565b91505092915050565b600082601f83011261200957600080fd5b8151612019848260208601611f23565b91505092915050565b60008151905061203181612d33565b92915050565b60008151905061204681612d4a565b92915050565b60008135905061205b81612d61565b92915050565b60008151905061207081612d61565b92915050565b60008151905061208581612d78565b92915050565b60006020828403121561209d57600080fd5b60006120ab84828501611f8f565b91505092915050565b6000602082840312156120c657600080fd5b60006120d484828501611fa4565b91505092915050565b6000602082840312156120ef57600080fd5b60006120fd84828501611fb9565b91505092915050565b60006020828403121561211857600080fd5b600082013567ffffffffffffffff81111561213257600080fd5b61213e84828501611fce565b91505092915050565b60006020828403121561215957600080fd5b600082015167ffffffffffffffff81111561217357600080fd5b61217f84828501611ff8565b91505092915050565b60006020828403121561219a57600080fd5b60006121a884828501612022565b91505092915050565b6000806000606084860312156121c657600080fd5b60006121d486828701612037565b93505060206121e586828701612037565b92505060406121f686828701612076565b9150509250925092565b60006020828403121561221257600080fd5b60006122208482850161204c565b91505092915050565b60006020828403121561223b57600080fd5b600061224984828501612061565b91505092915050565b6000806040838503121561226557600080fd5b600061227385828601612061565b925050602061228485828601611fa4565b9150509250929050565b612297816127f5565b82525050565b6122a681612879565b82525050565b60006122b7826126c4565b6122c181856126cf565b93506122d181856020860161289d565b6122da816129f9565b840191505092915050565b60006122f26030836126cf565b91506122fd82612a17565b604082019050919050565b60006123156016836126cf565b915061232082612a66565b602082019050919050565b60006123386026836126cf565b915061234382612a8f565b604082019050919050565b600061235b6014836126cf565b915061236682612ade565b602082019050919050565b600061237e6014836126cf565b915061238982612b07565b602082019050919050565b60006123a16022836126cf565b91506123ac82612b30565b604082019050919050565b60006123c46021836126cf565b91506123cf82612b7f565b604082019050919050565b60006123e76020836126cf565b91506123f282612bce565b602082019050919050565b600061240a601c836126cf565b915061241582612bf7565b602082019050919050565b600061242d6033836126cf565b915061243882612c20565b604082019050919050565b61244c8161285f565b82525050565b6000602082019050612467600083018461228e565b92915050565b6000604082019050612482600083018561228e565b61248f602083018461228e565b9392505050565b60006080820190506124ab600083018761228e565b6124b8602083018661228e565b6124c56040830185612443565b6124d2606083018461228e565b95945050505050565b60006020820190506124f0600083018461229d565b92915050565b6000602082019050818103600083015261251081846122ac565b905092915050565b60006020820190508181036000830152612531816122e5565b9050919050565b6000602082019050818103600083015261255181612308565b9050919050565b600060208201905081810360008301526125718161232b565b9050919050565b600060208201905081810360008301526125918161234e565b9050919050565b600060208201905081810360008301526125b181612371565b9050919050565b600060208201905081810360008301526125d181612394565b9050919050565b600060208201905081810360008301526125f1816123b7565b9050919050565b60006020820190508181036000830152612611816123da565b9050919050565b60006020820190508181036000830152612631816123fd565b9050919050565b6000602082019050818103600083015261265181612420565b9050919050565b600060208201905061266d6000830184612443565b92915050565b600061267d61268e565b905061268982826128d0565b919050565b6000604051905090565b600067ffffffffffffffff8211156126b3576126b26129a8565b5b602082029050602081019050919050565b600081519050919050565b600082825260208201905092915050565b60006126eb8261285f565b91506126f68361285f565b9250827fffffffffffffffffffffffffffffffffffffffffffffffffffffffffffffffff0382111561272b5761272a61294a565b5b828201905092915050565b60006127418261285f565b915061274c8361285f565b92508261275c5761275b612979565b5b828204905092915050565b60006127728261285f565b915061277d8361285f565b9250817fffffffffffffffffffffffffffffffffffffffffffffffffffffffffffffffff04831182151516156127b6576127b561294a565b5b828202905092915050565b60006127cc8261285f565b91506127d78361285f565b9250828210156127ea576127e961294a565b5b828203905092915050565b60006128008261283f565b9050919050565b60006128128261283f565b9050919050565b60008115159050919050565b60006dffffffffffffffffffffffffffff82169050919050565b600073ffffffffffffffffffffffffffffffffffffffff82169050919050565b6000819050919050565b600063ffffffff82169050919050565b60006128848261288b565b9050919050565b60006128968261283f565b9050919050565b60005b838110156128bb5780820151818401526020810190506128a0565b838111156128ca576000848401525b50505050565b6128d9826129f9565b810181811067ffffffffffffffff821117156128f8576128f76129a8565b5b80604052505050565b600061290c8261285f565b91507fffffffffffffffffffffffffffffffffffffffffffffffffffffffffffffffff82141561293f5761293e61294a565b5b600182019050919050565b7f4e487b7100000000000000000000000000000000000000000000000000000000600052601160045260246000fd5b7f4e487b7100000000000000000000000000000000000000000000000000000000600052601260045260246000fd5b7f4e487b7100000000000000000000000000000000000000000000000000000000600052604160045260246000fd5b600060033d11156129f65760046000803e6129f3600051612a0a565b90505b90565b6000601f19601f8301169050919050565b60008160e01c9050919050565b7f46494e4445523a20556e697377617056324c6962726172793a20494e5355464660008201527f494349454e545f4c495155494449545900000000000000000000000000000000602082015250565b7f424f543a2053616d652070616972206164647265737300000000000000000000600082015250565b7f4f776e61626c653a206e6577206f776e657220697320746865207a65726f206160008201527f6464726573730000000000000000000000000000000000000000000000000000602082015250565b7f64732d6d6174682d6d756c2d6f766572666c6f77000000000000000000000000600082015250565b7f64732d6d6174682d6164642d6f766572666c6f77000000000000000000000000600082015250565b7f424f543a204e6f6e207374616e6461726420756e697377617020414d4d20706160008201527f6972000000000000000000000000000000000000000000000000000000000000602082015250565b7f536166654d6174683a206d756c7469706c69636174696f6e206f766572666c6f60008201527f7700000000000000000000000000000000000000000000000000000000000000602082015250565b7f4f776e61626c653a2063616c6c6572206973206e6f7420746865206f776e6572600082015250565b7f424f543a20526571756972652073616d6520746f6b656e207061697200000000600082015250565b7f46494e4445523a20556e697377617056324c6962726172793a20494e5355464660008201527f494349454e545f494e5055545f414d4f554e5400000000000000000000000000602082015250565b600060443d1015612c7f57612d02565b612c8761268e565b60043d036004823e80513d602482011167ffffffffffffffff82111715612caf575050612d02565b808201805167ffffffffffffffff811115612ccd5750505050612d02565b80602083010160043d038501811115612cea575050505050612d02565b612cf9826020018501866128d0565b82955050505050505b90565b612d0e816127f5565b8114612d1957600080fd5b50565b612d2581612807565b8114612d3057600080fd5b50565b612d3c81612819565b8114612d4757600080fd5b50565b612d5381612825565b8114612d5e57600080fd5b50565b612d6a8161285f565b8114612d7557600080fd5b50565b612d8181612869565b8114612d8c57600080fd5b5056fea2646970667358221220db0a22cb24b822093b90195b078925289bcc4172b5598966259a2aadda8cfc0c64736f6c63430008040033",
  "devdoc": {
    "kind": "dev",
    "methods": {
      "getOwner()": {
        "details": "Returns the address of the current owner."
      },
      "initOwner(address)": {
        "details": "for proxy / initializer"
      },
      "transferContractOwnership(address)": {
        "details": "Transfers ownership of the contract to a new account (`newOwner`). Can only be called by the current owner."
      }
    },
    "version": 1
  },
  "userdoc": {
    "kind": "user",
    "methods": {},
    "version": 1
  },
  "storageLayout": {
    "storage": [
      {
        "astId": 4196,
        "contract": "contracts/ProfitFinder.sol:ProfitFinder",
        "label": "_contractOwner",
        "offset": 0,
        "slot": "0",
        "type": "t_address"
      },
      {
        "astId": 5,
        "contract": "contracts/ProfitFinder.sol:ProfitFinder",
        "label": "_initialized",
        "offset": 20,
        "slot": "0",
        "type": "t_bool"
      },
      {
        "astId": 8,
        "contract": "contracts/ProfitFinder.sol:ProfitFinder",
        "label": "_initializing",
        "offset": 21,
        "slot": "0",
        "type": "t_bool"
      },
      {
        "astId": 3257,
        "contract": "contracts/ProfitFinder.sol:ProfitFinder",
        "label": "bot",
        "offset": 0,
        "slot": "1",
        "type": "t_contract(FlashBot)3219"
      },
      {
        "astId": 3260,
        "contract": "contracts/ProfitFinder.sol:ProfitFinder",
        "label": "pools",
        "offset": 0,
        "slot": "2",
        "type": "t_array(t_address)dyn_storage"
      }
    ],
    "types": {
      "t_address": {
        "encoding": "inplace",
        "label": "address",
        "numberOfBytes": "20"
      },
      "t_array(t_address)dyn_storage": {
        "base": "t_address",
        "encoding": "dynamic_array",
        "label": "address[]",
        "numberOfBytes": "32"
      },
      "t_bool": {
        "encoding": "inplace",
        "label": "bool",
        "numberOfBytes": "1"
      },
      "t_contract(FlashBot)3219": {
        "encoding": "inplace",
        "label": "contract FlashBot",
        "numberOfBytes": "20"
      }
    }
  }
}